{
  "_format": "hh-sol-artifact-1",
  "contractName": "LogisticsRegistry",
  "sourceName": "contracts/LogisticsRegistry.sol",
  "abi": [
    {
      "inputs": [],
      "stateMutability": "nonpayable",
      "type": "constructor"
    },
    {
      "anonymous": false,
      "inputs": [
        {
          "indexed": false,
          "internalType": "uint256",
          "name": "companyId",
          "type": "uint256"
        },
        {
          "indexed": false,
          "internalType": "uint8",
          "name": "newStatus",
          "type": "uint8"
        }
      ],
      "name": "CompanyStatusChanged",
      "type": "event"
    },
    {
      "inputs": [
        {
          "internalType": "string",
          "name": "_name",
          "type": "string"
        },
        {
          "internalType": "address",
          "name": "_walletAddress",
          "type": "address"
        }
      ],
      "name": "addCompany",
      "outputs": [],
      "stateMutability": "nonpayable",
      "type": "function"
    },
    {
      "inputs": [
        {
          "internalType": "uint256",
          "name": "_companyId",
          "type": "uint256"
        }
      ],
      "name": "approveCompany",
      "outputs": [],
      "stateMutability": "nonpayable",
      "type": "function"
    },
    {
      "inputs": [
        {
          "internalType": "uint256",
          "name": "",
          "type": "uint256"
        }
      ],
      "name": "companies",
      "outputs": [
        {
          "internalType": "string",
          "name": "name",
          "type": "string"
        },
        {
          "internalType": "uint8",
          "name": "status",
          "type": "uint8"
        },
        {
          "internalType": "uint256",
          "name": "applications",
          "type": "uint256"
        },
        {
          "internalType": "address",
          "name": "walletAddress",
          "type": "address"
        }
      ],
      "stateMutability": "view",
      "type": "function"
    },
    {
      "inputs": [],
      "name": "getCompaniesCount",
      "outputs": [
        {
          "internalType": "uint256",
          "name": "",
          "type": "uint256"
        }
      ],
      "stateMutability": "view",
      "type": "function"
    },
    {
      "inputs": [],
      "name": "owner",
      "outputs": [
        {
          "internalType": "address",
          "name": "",
          "type": "address"
        }
      ],
      "stateMutability": "view",
      "type": "function"
    },
    {
      "inputs": [
        {
          "internalType": "uint256",
          "name": "_companyId",
          "type": "uint256"
        }
      ],
      "name": "rejectCompany",
      "outputs": [],
      "stateMutability": "nonpayable",
      "type": "function"
    }
  ],
  "bytecode": "0x608060405234801561001057600080fd5b5033600160006101000a81548173ffffffffffffffffffffffffffffffffffffffff021916908373ffffffffffffffffffffffffffffffffffffffff160217905550610c60806100616000396000f3fe608060405234801561001057600080fd5b50600436106100625760003560e01c80632813d19d1461006757806338f032691461009a5780635ca8135a146100b65780638da5cb5b146100d2578063ccb0a334146100f0578063fc4a74421461010e575b600080fd5b610081600480360381019061007c91906107c8565b61012a565b6040516100919493929190610936565b60405180910390f35b6100b460048036038101906100af9190610774565b61021f565b005b6100d060048036038101906100cb91906107c8565b61031b565b005b6100da610494565b6040516100e7919061091b565b60405180910390f35b6100f86104ba565b60405161010591906109c2565b60405180910390f35b610128600480360381019061012391906107c8565b6104c6565b005b6000818154811061013a57600080fd5b906000526020600020906004020160009150905080600001805461015d90610b5b565b80601f016020809104026020016040519081016040528092919081815260200182805461018990610b5b565b80156101d65780601f106101ab576101008083540402835291602001916101d6565b820191906000526020600020905b8154815290600101906020018083116101b957829003601f168201915b5050505050908060010160009054906101000a900460ff16908060020154908060030160009054906101000a900473ffffffffffffffffffffffffffffffffffffffff16905084565b60006040518060800160405280848152602001600060ff168152602001600081526020018373ffffffffffffffffffffffffffffffffffffffff16815250908060018154018082558091505060019003906000526020600020906004020160009091909190915060008201518160000190805190602001906102a292919061063f565b5060208201518160010160006101000a81548160ff021916908360ff1602179055506040820151816002015560608201518160030160006101000a81548173ffffffffffffffffffffffffffffffffffffffff021916908373ffffffffffffffffffffffffffffffffffffffff16021790555050505050565b600160009054906101000a900473ffffffffffffffffffffffffffffffffffffffff1673ffffffffffffffffffffffffffffffffffffffff163373ffffffffffffffffffffffffffffffffffffffff16146103ab576040517f08c379a00000000000000000000000000000000000000000000000000000000081526004016103a2906109a2565b60405180910390fd5b60008054905081106103f2576040517f08c379a00000000000000000000000000000000000000000000000000000000081526004016103e990610982565b60405180910390fd5b60026000828154811061042e577f4e487b7100000000000000000000000000000000000000000000000000000000600052603260045260246000fd5b906000526020600020906004020160010160006101000a81548160ff021916908360ff1602179055507f52e678fe02dc9e7eb419188513983e4f05a4b4e48a6a43d26b35393eb1a80a1e816002604051610489929190610a06565b60405180910390a150565b600160009054906101000a900473ffffffffffffffffffffffffffffffffffffffff1681565b60008080549050905090565b600160009054906101000a900473ffffffffffffffffffffffffffffffffffffffff1673ffffffffffffffffffffffffffffffffffffffff163373ffffffffffffffffffffffffffffffffffffffff1614610556576040517f08c379a000000000000000000000000000000000000000000000000000000000815260040161054d906109a2565b60405180910390fd5b600080549050811061059d576040517f08c379a000000000000000000000000000000000000000000000000000000000815260040161059490610982565b60405180910390fd5b6001600082815481106105d9577f4e487b7100000000000000000000000000000000000000000000000000000000600052603260045260246000fd5b906000526020600020906004020160010160006101000a81548160ff021916908360ff1602179055507f52e678fe02dc9e7eb419188513983e4f05a4b4e48a6a43d26b35393eb1a80a1e8160016040516106349291906109dd565b60405180910390a150565b82805461064b90610b5b565b90600052602060002090601f01602090048101928261066d57600085556106b4565b82601f1061068657805160ff19168380011785556106b4565b828001600101855582156106b4579182015b828111156106b3578251825591602001919060010190610698565b5b5090506106c191906106c5565b5090565b5b808211156106de5760008160009055506001016106c6565b5090565b60006106f56106f084610a60565b610a2f565b90508281526020810184848401111561070d57600080fd5b610718848285610b19565b509392505050565b60008135905061072f81610bfc565b92915050565b600082601f83011261074657600080fd5b81356107568482602086016106e2565b91505092915050565b60008135905061076e81610c13565b92915050565b6000806040838503121561078757600080fd5b600083013567ffffffffffffffff8111156107a157600080fd5b6107ad85828601610735565b92505060206107be85828601610720565b9150509250929050565b6000602082840312156107da57600080fd5b60006107e88482850161075f565b91505092915050565b6107fa81610aac565b82525050565b61080981610af5565b82525050565b61081881610b07565b82525050565b600061082982610a90565b6108338185610a9b565b9350610843818560208601610b28565b61084c81610beb565b840191505092915050565b6000610864601683610a9b565b91507f436f6d70616e7920646f6573206e6f74206578697374000000000000000000006000830152602082019050919050565b60006108a4602283610a9b565b91507f4f6e6c79206f776e65722063616e20706572666f726d2074686973206163746960008301527f6f6e0000000000000000000000000000000000000000000000000000000000006020830152604082019050919050565b61090681610ade565b82525050565b61091581610ae8565b82525050565b600060208201905061093060008301846107f1565b92915050565b60006080820190508181036000830152610950818761081e565b905061095f602083018661090c565b61096c60408301856108fd565b61097960608301846107f1565b95945050505050565b6000602082019050818103600083015261099b81610857565b9050919050565b600060208201905081810360008301526109bb81610897565b9050919050565b60006020820190506109d760008301846108fd565b92915050565b60006040820190506109f260008301856108fd565b6109ff6020830184610800565b9392505050565b6000604082019050610a1b60008301856108fd565b610a28602083018461080f565b9392505050565b6000604051905081810181811067ffffffffffffffff82111715610a5657610a55610bbc565b5b8060405250919050565b600067ffffffffffffffff821115610a7b57610a7a610bbc565b5b601f19601f8301169050602081019050919050565b600081519050919050565b600082825260208201905092915050565b6000610ab782610abe565b9050919050565b600073ffffffffffffffffffffffffffffffffffffffff82169050919050565b6000819050919050565b600060ff82169050919050565b6000610b0082610ae8565b9050919050565b6000610b1282610ae8565b9050919050565b82818337600083830152505050565b60005b83811015610b46578082015181840152602081019050610b2b565b83811115610b55576000848401525b50505050565b60006002820490506001821680610b7357607f821691505b60208210811415610b8757610b86610b8d565b5b50919050565b7f4e487b7100000000000000000000000000000000000000000000000000000000600052602260045260246000fd5b7f4e487b7100000000000000000000000000000000000000000000000000000000600052604160045260246000fd5b6000601f19601f8301169050919050565b610c0581610aac565b8114610c1057600080fd5b50565b610c1c81610ade565b8114610c2757600080fd5b5056fea26469706673582212201b53a861a920ae120fd129b0ea9a95729aef3caea8f7e07856c1c17e1cada62f64736f6c63430008000033",
  "linkReferences": {},
  "deployedLinkReferences": {}
}