{
  "_format": "hh-sol-artifact-1",
  "contractName": "Shipment",
  "sourceName": "contracts/Shipment.sol",
  "abi": [
    {
      "inputs": [],
      "stateMutability": "nonpayable",
      "type": "constructor"
    },
    {
      "anonymous": false,
      "inputs": [
        {
          "indexed": true,
          "internalType": "uint256",
          "name": "shipmentId",
          "type": "uint256"
        },
        {
          "indexed": true,
          "internalType": "address",
          "name": "customer",
          "type": "address"
        },
        {
          "indexed": false,
          "internalType": "uint256",
          "name": "amount",
          "type": "uint256"
        }
      ],
      "name": "ShipmentCreated",
      "type": "event"
    },
    {
      "inputs": [
        {
          "internalType": "string",
          "name": "vehicleType",
          "type": "string"
        },
        {
          "internalType": "string",
          "name": "capacity",
          "type": "string"
        },
        {
          "internalType": "uint256",
          "name": "price",
          "type": "uint256"
        }
      ],
      "name": "addVehicle",
      "outputs": [],
      "stateMutability": "nonpayable",
      "type": "function"
    },
    {
      "inputs": [
        {
          "internalType": "uint256",
          "name": "shipmentId",
          "type": "uint256"
        }
      ],
      "name": "completeShipment",
      "outputs": [],
      "stateMutability": "nonpayable",
      "type": "function"
    },
    {
      "inputs": [
        {
          "internalType": "string",
          "name": "source",
          "type": "string"
        },
        {
          "internalType": "string",
          "name": "destination",
          "type": "string"
        },
        {
          "internalType": "uint256",
          "name": "vehicleId",
          "type": "uint256"
        },
        {
          "internalType": "string",
          "name": "shipmentType",
          "type": "string"
        }
      ],
      "name": "createShipment",
      "outputs": [],
      "stateMutability": "payable",
      "type": "function"
    },
    {
      "inputs": [
        {
          "internalType": "string",
          "name": "source",
          "type": "string"
        },
        {
          "internalType": "string",
          "name": "destination",
          "type": "string"
        }
      ],
      "name": "getAvailableVehicles",
      "outputs": [
        {
          "components": [
            {
              "internalType": "uint256",
              "name": "id",
              "type": "uint256"
            },
            {
              "internalType": "string",
              "name": "vehicleType",
              "type": "string"
            },
            {
              "internalType": "string",
              "name": "capacity",
              "type": "string"
            },
            {
              "internalType": "uint256",
              "name": "price",
              "type": "uint256"
            },
            {
              "internalType": "bool",
              "name": "isAvailable",
              "type": "bool"
            }
          ],
          "internalType": "struct Shipment.Vehicle[]",
          "name": "",
          "type": "tuple[]"
        }
      ],
      "stateMutability": "view",
      "type": "function"
    },
    {
      "inputs": [
        {
          "internalType": "uint256",
          "name": "shipmentId",
          "type": "uint256"
        }
      ],
      "name": "getShipmentDetails",
      "outputs": [
        {
          "components": [
            {
              "internalType": "string",
              "name": "source",
              "type": "string"
            },
            {
              "internalType": "string",
              "name": "destination",
              "type": "string"
            },
            {
              "internalType": "uint256",
              "name": "vehicleId",
              "type": "uint256"
            },
            {
              "internalType": "string",
              "name": "shipmentType",
              "type": "string"
            },
            {
              "internalType": "address",
              "name": "customer",
              "type": "address"
            },
            {
              "internalType": "uint256",
              "name": "amount",
              "type": "uint256"
            },
            {
              "internalType": "uint256",
              "name": "timestamp",
              "type": "uint256"
            },
            {
              "internalType": "bool",
              "name": "isActive",
              "type": "bool"
            }
          ],
          "internalType": "struct Shipment.ShipmentDetails",
          "name": "",
          "type": "tuple"
        }
      ],
      "stateMutability": "view",
      "type": "function"
    },
    {
      "inputs": [],
      "name": "owner",
      "outputs": [
        {
          "internalType": "address",
          "name": "",
          "type": "address"
        }
      ],
      "stateMutability": "view",
      "type": "function"
    },
    {
      "inputs": [],
      "name": "shipmentCount",
      "outputs": [
        {
          "internalType": "uint256",
          "name": "",
          "type": "uint256"
        }
      ],
      "stateMutability": "view",
      "type": "function"
    },
    {
      "inputs": [
        {
          "internalType": "uint256",
          "name": "",
          "type": "uint256"
        }
      ],
      "name": "shipments",
      "outputs": [
        {
          "internalType": "string",
          "name": "source",
          "type": "string"
        },
        {
          "internalType": "string",
          "name": "destination",
          "type": "string"
        },
        {
          "internalType": "uint256",
          "name": "vehicleId",
          "type": "uint256"
        },
        {
          "internalType": "string",
          "name": "shipmentType",
          "type": "string"
        },
        {
          "internalType": "address",
          "name": "customer",
          "type": "address"
        },
        {
          "internalType": "uint256",
          "name": "amount",
          "type": "uint256"
        },
        {
          "internalType": "uint256",
          "name": "timestamp",
          "type": "uint256"
        },
        {
          "internalType": "bool",
          "name": "isActive",
          "type": "bool"
        }
      ],
      "stateMutability": "view",
      "type": "function"
    },
    {
      "inputs": [],
      "name": "vehicleCount",
      "outputs": [
        {
          "internalType": "uint256",
          "name": "",
          "type": "uint256"
        }
      ],
      "stateMutability": "view",
      "type": "function"
    },
    {
      "inputs": [
        {
          "internalType": "uint256",
          "name": "",
          "type": "uint256"
        }
      ],
      "name": "vehicles",
      "outputs": [
        {
          "internalType": "uint256",
          "name": "id",
          "type": "uint256"
        },
        {
          "internalType": "string",
          "name": "vehicleType",
          "type": "string"
        },
        {
          "internalType": "string",
          "name": "capacity",
          "type": "string"
        },
        {
          "internalType": "uint256",
          "name": "price",
          "type": "uint256"
        },
        {
          "internalType": "bool",
          "name": "isAvailable",
          "type": "bool"
        }
      ],
      "stateMutability": "view",
      "type": "function"
    }
  ],
  "bytecode": "0x60806040523480156200001157600080fd5b5033600460006101000a81548173ffffffffffffffffffffffffffffffffffffffff021916908373ffffffffffffffffffffffffffffffffffffffff160217905550620000d86040518060400160405280600581526020017f547275636b0000000000000000000000000000000000000000000000000000008152506040518060400160405280600681526020017f313030306b670000000000000000000000000000000000000000000000000000815250674563918244f40000620001e860201b60201c565b6200015d6040518060400160405280600381526020017f56616e00000000000000000000000000000000000000000000000000000000008152506040518060400160405280600581526020017f3530306b670000000000000000000000000000000000000000000000000000008152506729a2241af62c0000620001e860201b60201c565b620001e26040518060400160405280600a81526020017f4d696e6920547275636b000000000000000000000000000000000000000000008152506040518060400160405280600581526020017f3735306b67000000000000000000000000000000000000000000000000000000815250673782dace9d900000620001e860201b60201c565b62000586565b600460009054906101000a900473ffffffffffffffffffffffffffffffffffffffff1673ffffffffffffffffffffffffffffffffffffffff163373ffffffffffffffffffffffffffffffffffffffff16146200027b576040517f08c379a0000000000000000000000000000000000000000000000000000000008152600401620002729062000467565b60405180910390fd5b600260008154809291906200029090620004da565b91905055506040518060a001604052806002548152602001848152602001838152602001828152602001600115158152506000806002548152602001908152602001600020600082015181600001556020820151816001019080519060200190620002fd9291906200034f565b5060408201518160020190805190602001906200031c9291906200034f565b506060820151816003015560808201518160040160006101000a81548160ff021916908315150217905550905050505050565b8280546200035d90620004a4565b90600052602060002090601f016020900481019282620003815760008555620003cd565b82601f106200039c57805160ff1916838001178555620003cd565b82800160010185558215620003cd579182015b82811115620003cc578251825591602001919060010190620003af565b5b509050620003dc9190620003e0565b5090565b5b80821115620003fb576000816000905550600101620003e1565b5090565b60006200040e60228362000489565b91507f4f6e6c79206f776e65722063616e20706572666f726d2074686973206163746960008301527f6f6e0000000000000000000000000000000000000000000000000000000000006020830152604082019050919050565b600060208201905081810360008301526200048281620003ff565b9050919050565b600082825260208201905092915050565b6000819050919050565b60006002820490506001821680620004bd57607f821691505b60208210811415620004d457620004d362000557565b5b50919050565b6000620004e7826200049a565b91507fffffffffffffffffffffffffffffffffffffffffffffffffffffffffffffffff8214156200051d576200051c62000528565b5b600182019050919050565b7f4e487b7100000000000000000000000000000000000000000000000000000000600052601160045260246000fd5b7f4e487b7100000000000000000000000000000000000000000000000000000000600052602260045260246000fd5b611d5280620005966000396000f3fe6080604052600436106100915760003560e01c8063997049371161005957806399704937146101a8578063aace20b7146101d3578063b8ba95fa146101fe578063bcfaed461461023f578063f15456b51461025b57610091565b80630651ada7146100965780632ac08a93146100bf578063356f1a4114610103578063693d70aa146101405780638da5cb5b1461017d575b600080fd5b3480156100a257600080fd5b506100bd60048036038101906100b89190611344565b610284565b005b3480156100cb57600080fd5b506100e660048036038101906100e1919061146e565b6103e2565b6040516100fa9897969594939291906118ca565b60405180910390f35b34801561010f57600080fd5b5061012a600480360381019061012591906112d8565b6105ef565b60405161013791906118a8565b60405180910390f35b34801561014c57600080fd5b506101676004803603810190610162919061146e565b6108e7565b60405161017491906119fd565b60405180910390f35b34801561018957600080fd5b50610192610b9f565b60405161019f919061188d565b60405180910390f35b3480156101b457600080fd5b506101bd610bc5565b6040516101ca9190611a1f565b60405180910390f35b3480156101df57600080fd5b506101e8610bcb565b6040516101f59190611a1f565b60405180910390f35b34801561020a57600080fd5b506102256004803603810190610220919061146e565b610bd1565b604051610236959493929190611a3a565b60405180910390f35b610259600480360381019061025491906113c3565b610d24565b005b34801561026757600080fd5b50610282600480360381019061027d919061146e565b610fc1565b005b600460009054906101000a900473ffffffffffffffffffffffffffffffffffffffff1673ffffffffffffffffffffffffffffffffffffffff163373ffffffffffffffffffffffffffffffffffffffff1614610314576040517f08c379a000000000000000000000000000000000000000000000000000000000815260040161030b906119dd565b60405180910390fd5b6002600081548092919061032790611c1e565b91905055506040518060a00160405280600254815260200184815260200183815260200182815260200160011515815250600080600254815260200190815260200160002060008201518160000155602082015181600101908051906020019061039292919061112a565b5060408201518160020190805190602001906103af92919061112a565b506060820151816003015560808201518160040160006101000a81548160ff021916908315150217905550905050505050565b600160205280600052604060002060009150905080600001805461040590611bec565b80601f016020809104026020016040519081016040528092919081815260200182805461043190611bec565b801561047e5780601f106104535761010080835404028352916020019161047e565b820191906000526020600020905b81548152906001019060200180831161046157829003601f168201915b50505050509080600101805461049390611bec565b80601f01602080910402602001604051908101604052809291908181526020018280546104bf90611bec565b801561050c5780601f106104e15761010080835404028352916020019161050c565b820191906000526020600020905b8154815290600101906020018083116104ef57829003601f168201915b50505050509080600201549080600301805461052790611bec565b80601f016020809104026020016040519081016040528092919081815260200182805461055390611bec565b80156105a05780601f10610575576101008083540402835291602001916105a0565b820191906000526020600020905b81548152906001019060200180831161058357829003601f168201915b5050505050908060040160009054906101000a900473ffffffffffffffffffffffffffffffffffffffff16908060050154908060060154908060070160009054906101000a900460ff16905088565b6060600080600190505b600254811161064c5760008082815260200190815260200160002060040160009054906101000a900460ff161561063957818061063590611c1e565b9250505b808061064490611c1e565b9150506105f9565b5060008167ffffffffffffffff81111561068f577f4e487b7100000000000000000000000000000000000000000000000000000000600052604160045260246000fd5b6040519080825280602002602001820160405280156106c857816020015b6106b56111b0565b8152602001906001900390816106ad5790505b509050600080600190505b60025481116108da5760008082815260200190815260200160002060040160009054906101000a900460ff16156108c7576000808281526020019081526020016000206040518060a00160405290816000820154815260200160018201805461073b90611bec565b80601f016020809104026020016040519081016040528092919081815260200182805461076790611bec565b80156107b45780601f10610789576101008083540402835291602001916107b4565b820191906000526020600020905b81548152906001019060200180831161079757829003601f168201915b505050505081526020016002820180546107cd90611bec565b80601f01602080910402602001604051908101604052809291908181526020018280546107f990611bec565b80156108465780601f1061081b57610100808354040283529160200191610846565b820191906000526020600020905b81548152906001019060200180831161082957829003601f168201915b50505050508152602001600382015481526020016004820160009054906101000a900460ff1615151515815250508383815181106108ad577f4e487b7100000000000000000000000000000000000000000000000000000000600052603260045260246000fd5b602002602001018190525081806108c390611c1e565b9250505b80806108d290611c1e565b9150506106d3565b5081935050505092915050565b6108ef6111e1565b600354821115610934576040517f08c379a000000000000000000000000000000000000000000000000000000000815260040161092b906119bd565b60405180910390fd5b600160008381526020019081526020016000206040518061010001604052908160008201805461096390611bec565b80601f016020809104026020016040519081016040528092919081815260200182805461098f90611bec565b80156109dc5780601f106109b1576101008083540402835291602001916109dc565b820191906000526020600020905b8154815290600101906020018083116109bf57829003601f168201915b505050505081526020016001820180546109f590611bec565b80601f0160208091040260200160405190810160405280929190818152602001828054610a2190611bec565b8015610a6e5780601f10610a4357610100808354040283529160200191610a6e565b820191906000526020600020905b815481529060010190602001808311610a5157829003601f168201915b5050505050815260200160028201548152602001600382018054610a9190611bec565b80601f0160208091040260200160405190810160405280929190818152602001828054610abd90611bec565b8015610b0a5780601f10610adf57610100808354040283529160200191610b0a565b820191906000526020600020905b815481529060010190602001808311610aed57829003601f168201915b505050505081526020016004820160009054906101000a900473ffffffffffffffffffffffffffffffffffffffff1673ffffffffffffffffffffffffffffffffffffffff1673ffffffffffffffffffffffffffffffffffffffff16815260200160058201548152602001600682015481526020016007820160009054906101000a900460ff1615151515815250509050919050565b600460009054906101000a900473ffffffffffffffffffffffffffffffffffffffff1681565b60025481565b60035481565b6000602052806000526040600020600091509050806000015490806001018054610bfa90611bec565b80601f0160208091040260200160405190810160405280929190818152602001828054610c2690611bec565b8015610c735780601f10610c4857610100808354040283529160200191610c73565b820191906000526020600020905b815481529060010190602001808311610c5657829003601f168201915b505050505090806002018054610c8890611bec565b80601f0160208091040260200160405190810160405280929190818152602001828054610cb490611bec565b8015610d015780601f10610cd657610100808354040283529160200191610d01565b820191906000526020600020905b815481529060010190602001808311610ce457829003601f168201915b5050505050908060030154908060040160009054906101000a900460ff16905085565b60008083815260200190815260200160002060040160009054906101000a900460ff16610d86576040517f08c379a0000000000000000000000000000000000000000000000000000000008152600401610d7d9061197d565b60405180910390fd5b600080838152602001908152602001600020600301543414610ddd576040517f08c379a0000000000000000000000000000000000000000000000000000000008152600401610dd49061199d565b60405180910390fd5b60036000815480929190610df090611c1e565b91905055506040518061010001604052808581526020018481526020018381526020018281526020013373ffffffffffffffffffffffffffffffffffffffff168152602001348152602001428152602001600115158152506001600060035481526020019081526020016000206000820151816000019080519060200190610e7992919061112a565b506020820151816001019080519060200190610e9692919061112a565b50604082015181600201556060820151816003019080519060200190610ebd92919061112a565b5060808201518160040160006101000a81548173ffffffffffffffffffffffffffffffffffffffff021916908373ffffffffffffffffffffffffffffffffffffffff16021790555060a0820151816005015560c0820151816006015560e08201518160070160006101000a81548160ff021916908315150217905550905050600080600084815260200190815260200160002060040160006101000a81548160ff0219169083151502179055503373ffffffffffffffffffffffffffffffffffffffff166003547fedf892d41ca950980cd2f16b337b699f8ef55ad673f3c2810af49b6a1c20004d34604051610fb39190611a1f565b60405180910390a350505050565b600460009054906101000a900473ffffffffffffffffffffffffffffffffffffffff1673ffffffffffffffffffffffffffffffffffffffff163373ffffffffffffffffffffffffffffffffffffffff1614611051576040517f08c379a0000000000000000000000000000000000000000000000000000000008152600401611048906119dd565b60405180910390fd5b6001600082815260200190815260200160002060070160009054906101000a900460ff166110b4576040517f08c379a00000000000000000000000000000000000000000000000000000000081526004016110ab9061195d565b60405180910390fd5b60006001600083815260200190815260200160002060070160006101000a81548160ff02191690831515021790555060016000806001600085815260200190815260200160002060020154815260200190815260200160002060040160006101000a81548160ff02191690831515021790555050565b82805461113690611bec565b90600052602060002090601f016020900481019282611158576000855561119f565b82601f1061117157805160ff191683800117855561119f565b8280016001018555821561119f579182015b8281111561119e578251825591602001919060010190611183565b5b5090506111ac919061123e565b5090565b6040518060a00160405280600081526020016060815260200160608152602001600081526020016000151581525090565b60405180610100016040528060608152602001606081526020016000815260200160608152602001600073ffffffffffffffffffffffffffffffffffffffff16815260200160008152602001600081526020016000151581525090565b5b8082111561125757600081600090555060010161123f565b5090565b600061126e61126984611acc565b611a9b565b90508281526020810184848401111561128657600080fd5b611291848285611baa565b509392505050565b600082601f8301126112aa57600080fd5b81356112ba84826020860161125b565b91505092915050565b6000813590506112d281611d05565b92915050565b600080604083850312156112eb57600080fd5b600083013567ffffffffffffffff81111561130557600080fd5b61131185828601611299565b925050602083013567ffffffffffffffff81111561132e57600080fd5b61133a85828601611299565b9150509250929050565b60008060006060848603121561135957600080fd5b600084013567ffffffffffffffff81111561137357600080fd5b61137f86828701611299565b935050602084013567ffffffffffffffff81111561139c57600080fd5b6113a886828701611299565b92505060406113b9868287016112c3565b9150509250925092565b600080600080608085870312156113d957600080fd5b600085013567ffffffffffffffff8111156113f357600080fd5b6113ff87828801611299565b945050602085013567ffffffffffffffff81111561141c57600080fd5b61142887828801611299565b9350506040611439878288016112c3565b925050606085013567ffffffffffffffff81111561145657600080fd5b61146287828801611299565b91505092959194509250565b60006020828403121561148057600080fd5b600061148e848285016112c3565b91505092915050565b60006114a383836117f2565b905092915050565b6114b481611b62565b82525050565b6114c381611b62565b82525050565b60006114d482611b0c565b6114de8185611b2f565b9350836020820285016114f085611afc565b8060005b8581101561152c578484038952815161150d8582611497565b945061151883611b22565b925060208a019950506001810190506114f4565b50829750879550505050505092915050565b61154781611b74565b82525050565b61155681611b74565b82525050565b600061156782611b17565b6115718185611b40565b9350611581818560208601611bb9565b61158a81611cf4565b840191505092915050565b60006115a082611b17565b6115aa8185611b51565b93506115ba818560208601611bb9565b6115c381611cf4565b840191505092915050565b60006115db601383611b51565b91507f536869706d656e74206e6f7420616374697665000000000000000000000000006000830152602082019050919050565b600061161b601583611b51565b91507f56656869636c65206e6f7420617661696c61626c6500000000000000000000006000830152602082019050919050565b600061165b601883611b51565b91507f496e636f7272656374207061796d656e7420616d6f756e7400000000000000006000830152602082019050919050565b600061169b601383611b51565b91507f496e76616c696420736869706d656e74204944000000000000000000000000006000830152602082019050919050565b60006116db602283611b51565b91507f4f6e6c79206f776e65722063616e20706572666f726d2074686973206163746960008301527f6f6e0000000000000000000000000000000000000000000000000000000000006020830152604082019050919050565b6000610100830160008301518482036000860152611752828261155c565b9150506020830151848203602086015261176c828261155c565b9150506040830151611781604086018261186f565b5060608301518482036060860152611799828261155c565b91505060808301516117ae60808601826114ab565b5060a08301516117c160a086018261186f565b5060c08301516117d460c086018261186f565b5060e08301516117e760e086018261153e565b508091505092915050565b600060a08301600083015161180a600086018261186f565b5060208301518482036020860152611822828261155c565b9150506040830151848203604086015261183c828261155c565b9150506060830151611851606086018261186f565b506080830151611864608086018261153e565b508091505092915050565b61187881611ba0565b82525050565b61188781611ba0565b82525050565b60006020820190506118a260008301846114ba565b92915050565b600060208201905081810360008301526118c281846114c9565b905092915050565b60006101008201905081810360008301526118e5818b611595565b905081810360208301526118f9818a611595565b9050611908604083018961187e565b818103606083015261191a8188611595565b905061192960808301876114ba565b61193660a083018661187e565b61194360c083018561187e565b61195060e083018461154d565b9998505050505050505050565b60006020820190508181036000830152611976816115ce565b9050919050565b600060208201905081810360008301526119968161160e565b9050919050565b600060208201905081810360008301526119b68161164e565b9050919050565b600060208201905081810360008301526119d68161168e565b9050919050565b600060208201905081810360008301526119f6816116ce565b9050919050565b60006020820190508181036000830152611a178184611734565b905092915050565b6000602082019050611a34600083018461187e565b92915050565b600060a082019050611a4f600083018861187e565b8181036020830152611a618187611595565b90508181036040830152611a758186611595565b9050611a84606083018561187e565b611a91608083018461154d565b9695505050505050565b6000604051905081810181811067ffffffffffffffff82111715611ac257611ac1611cc5565b5b8060405250919050565b600067ffffffffffffffff821115611ae757611ae6611cc5565b5b601f19601f8301169050602081019050919050565b6000819050602082019050919050565b600081519050919050565b600081519050919050565b6000602082019050919050565b600082825260208201905092915050565b600082825260208201905092915050565b600082825260208201905092915050565b6000611b6d82611b80565b9050919050565b60008115159050919050565b600073ffffffffffffffffffffffffffffffffffffffff82169050919050565b6000819050919050565b82818337600083830152505050565b60005b83811015611bd7578082015181840152602081019050611bbc565b83811115611be6576000848401525b50505050565b60006002820490506001821680611c0457607f821691505b60208210811415611c1857611c17611c96565b5b50919050565b6000611c2982611ba0565b91507fffffffffffffffffffffffffffffffffffffffffffffffffffffffffffffffff821415611c5c57611c5b611c67565b5b600182019050919050565b7f4e487b7100000000000000000000000000000000000000000000000000000000600052601160045260246000fd5b7f4e487b7100000000000000000000000000000000000000000000000000000000600052602260045260246000fd5b7f4e487b7100000000000000000000000000000000000000000000000000000000600052604160045260246000fd5b6000601f19601f8301169050919050565b611d0e81611ba0565b8114611d1957600080fd5b5056fea2646970667358221220736f3dea61e0e82fa3d0f412026f9d74beaf1a8ec178da916df3633651f4685a64736f6c63430008000033",
  "linkReferences": {},
  "deployedLinkReferences": {}
}