{
  "_format": "hh-sol-artifact-1",
  "contractName": "Auth",
  "sourceName": "contracts/Auth.sol",
  "abi": [
    {
      "anonymous": false,
      "inputs": [
        {
          "indexed": true,
          "internalType": "address",
          "name": "userAddress",
          "type": "address"
        },
        {
          "indexed": false,
          "internalType": "string",
          "name": "userType",
          "type": "string"
        }
      ],
      "name": "UserLoggedIn",
      "type": "event"
    },
    {
      "anonymous": false,
      "inputs": [
        {
          "indexed": true,
          "internalType": "address",
          "name": "userAddress",
          "type": "address"
        },
        {
          "indexed": false,
          "internalType": "string",
          "name": "userType",
          "type": "string"
        }
      ],
      "name": "UserRegistered",
      "type": "event"
    },
    {
      "inputs": [
        {
          "internalType": "address",
          "name": "_address",
          "type": "address"
        }
      ],
      "name": "getUserType",
      "outputs": [
        {
          "internalType": "string",
          "name": "",
          "type": "string"
        }
      ],
      "stateMutability": "view",
      "type": "function"
    },
    {
      "inputs": [
        {
          "internalType": "string",
          "name": "_email",
          "type": "string"
        },
        {
          "internalType": "bytes32",
          "name": "_passwordHash",
          "type": "bytes32"
        },
        {
          "internalType": "string",
          "name": "_userType",
          "type": "string"
        }
      ],
      "name": "login",
      "outputs": [
        {
          "internalType": "bool",
          "name": "",
          "type": "bool"
        }
      ],
      "stateMutability": "view",
      "type": "function"
    },
    {
      "inputs": [
        {
          "internalType": "string",
          "name": "_email",
          "type": "string"
        },
        {
          "internalType": "bytes32",
          "name": "_passwordHash",
          "type": "bytes32"
        },
        {
          "internalType": "string",
          "name": "_userType",
          "type": "string"
        }
      ],
      "name": "signup",
      "outputs": [],
      "stateMutability": "nonpayable",
      "type": "function"
    },
    {
      "inputs": [
        {
          "internalType": "address",
          "name": "",
          "type": "address"
        }
      ],
      "name": "users",
      "outputs": [
        {
          "internalType": "string",
          "name": "email",
          "type": "string"
        },
        {
          "internalType": "bytes32",
          "name": "passwordHash",
          "type": "bytes32"
        },
        {
          "internalType": "string",
          "name": "userType",
          "type": "string"
        },
        {
          "internalType": "bool",
          "name": "exists",
          "type": "bool"
        }
      ],
      "stateMutability": "view",
      "type": "function"
    }
  ],
  "bytecode": "0x608060405234801561001057600080fd5b50611106806100206000396000f3fe608060405234801561001057600080fd5b506004361061004c5760003560e01c80638b3f863f14610051578063a87430ba14610081578063dc510ecf146100b4578063f3cdd475146100e4575b600080fd5b61006b60048036038101906100669190610b38565b610100565b6040516100789190610dda565b60405180910390f35b61009b60048036038101906100969190610b38565b610261565b6040516100ab9493929190610dfc565b60405180910390f35b6100ce60048036038101906100c99190610b61565b6103ae565b6040516100db9190610dbf565b60405180910390f35b6100fe60048036038101906100f99190610b61565b61074c565b005b60606000808373ffffffffffffffffffffffffffffffffffffffff1673ffffffffffffffffffffffffffffffffffffffff16815260200190815260200160002060030160009054906101000a900460ff16610190576040517f08c379a000000000000000000000000000000000000000000000000000000000815260040161018790610e8f565b60405180910390fd5b6000808373ffffffffffffffffffffffffffffffffffffffff1673ffffffffffffffffffffffffffffffffffffffff16815260200190815260200160002060020180546101dc90611001565b80601f016020809104026020016040519081016040528092919081815260200182805461020890611001565b80156102555780601f1061022a57610100808354040283529160200191610255565b820191906000526020600020905b81548152906001019060200180831161023857829003601f168201915b50505050509050919050565b600060205280600052604060002060009150905080600001805461028490611001565b80601f01602080910402602001604051908101604052809291908181526020018280546102b090611001565b80156102fd5780601f106102d2576101008083540402835291602001916102fd565b820191906000526020600020905b8154815290600101906020018083116102e057829003601f168201915b50505050509080600101549080600201805461031890611001565b80601f016020809104026020016040519081016040528092919081815260200182805461034490611001565b80156103915780601f1061036657610100808354040283529160200191610391565b820191906000526020600020905b81548152906001019060200180831161037457829003601f168201915b5050505050908060030160009054906101000a900460ff16905084565b6000336000808273ffffffffffffffffffffffffffffffffffffffff1673ffffffffffffffffffffffffffffffffffffffff16815260200190815260200160002060030160009054906101000a900460ff1661043f576040517f08c379a000000000000000000000000000000000000000000000000000000000815260040161043690610e8f565b60405180910390fd5b60008060003373ffffffffffffffffffffffffffffffffffffffff1673ffffffffffffffffffffffffffffffffffffffff16815260200190815260200160002060405180608001604052908160008201805461049a90611001565b80601f01602080910402602001604051908101604052809291908181526020018280546104c690611001565b80156105135780601f106104e857610100808354040283529160200191610513565b820191906000526020600020905b8154815290600101906020018083116104f657829003601f168201915b505050505081526020016001820154815260200160028201805461053690611001565b80601f016020809104026020016040519081016040528092919081815260200182805461056290611001565b80156105af5780601f10610584576101008083540402835291602001916105af565b820191906000526020600020905b81548152906001019060200180831161059257829003601f168201915b505050505081526020016003820160009054906101000a900460ff1615151515815250509050856040516020016105e69190610da8565b6040516020818303038152906040528051906020012081600001516040516020016106119190610da8565b6040516020818303038152906040528051906020012014610667576040517f08c379a000000000000000000000000000000000000000000000000000000000815260040161065e90610ecf565b60405180910390fd5b848160200151146106ad576040517f08c379a00000000000000000000000000000000000000000000000000000000081526004016106a490610ecf565b60405180910390fd5b836040516020016106be9190610da8565b6040516020818303038152906040528051906020012081604001516040516020016106e99190610da8565b604051602081830303815290604052805190602001201461073f576040517f08c379a000000000000000000000000000000000000000000000000000000000815260040161073690610e4f565b60405180910390fd5b6001925050509392505050565b336000808273ffffffffffffffffffffffffffffffffffffffff1673ffffffffffffffffffffffffffffffffffffffff16815260200190815260200160002060030160009054906101000a900460ff16156107dc576040517f08c379a00000000000000000000000000000000000000000000000000000000081526004016107d390610e6f565b60405180910390fd5b600073ffffffffffffffffffffffffffffffffffffffff166001856040516108049190610da8565b908152602001604051809103902060009054906101000a900473ffffffffffffffffffffffffffffffffffffffff1673ffffffffffffffffffffffffffffffffffffffff1614610889576040517f08c379a000000000000000000000000000000000000000000000000000000000815260040161088090610eaf565b60405180910390fd5b6040518060800160405280858152602001848152602001838152602001600115158152506000803373ffffffffffffffffffffffffffffffffffffffff1673ffffffffffffffffffffffffffffffffffffffff1681526020019081526020016000206000820151816000019080519060200190610907929190610a03565b5060208201518160010155604082015181600201908051906020019061092e929190610a03565b5060608201518160030160006101000a81548160ff021916908315150217905550905050336001856040516109639190610da8565b908152602001604051809103902060006101000a81548173ffffffffffffffffffffffffffffffffffffffff021916908373ffffffffffffffffffffffffffffffffffffffff1602179055503373ffffffffffffffffffffffffffffffffffffffff167f48cac28ad4dc618e15f4c2dd5e97751182f166de97b25618318b2112aa951a2f836040516109f59190610dda565b60405180910390a250505050565b828054610a0f90611001565b90600052602060002090601f016020900481019282610a315760008555610a78565b82601f10610a4a57805160ff1916838001178555610a78565b82800160010185558215610a78579182015b82811115610a77578251825591602001919060010190610a5c565b5b509050610a859190610a89565b5090565b5b80821115610aa2576000816000905550600101610a8a565b5090565b6000610ab9610ab484610f20565b610eef565b905082815260208101848484011115610ad157600080fd5b610adc848285610fbf565b509392505050565b600081359050610af3816110a2565b92915050565b600081359050610b08816110b9565b92915050565b600082601f830112610b1f57600080fd5b8135610b2f848260208601610aa6565b91505092915050565b600060208284031215610b4a57600080fd5b6000610b5884828501610ae4565b91505092915050565b600080600060608486031215610b7657600080fd5b600084013567ffffffffffffffff811115610b9057600080fd5b610b9c86828701610b0e565b9350506020610bad86828701610af9565b925050604084013567ffffffffffffffff811115610bca57600080fd5b610bd686828701610b0e565b9150509250925092565b610be981610f89565b82525050565b610bf881610f95565b82525050565b6000610c0982610f50565b610c138185610f5b565b9350610c23818560208601610fce565b610c2c81611091565b840191505092915050565b6000610c4282610f50565b610c4c8185610f6c565b9350610c5c818560208601610fce565b80840191505092915050565b6000610c75601183610f5b565b91507f496e76616c6964207573657220747970650000000000000000000000000000006000830152602082019050919050565b6000610cb5601383610f5b565b91507f5573657220616c726561647920657869737473000000000000000000000000006000830152602082019050919050565b6000610cf5601383610f5b565b91507f5573657220646f6573206e6f74206578697374000000000000000000000000006000830152602082019050919050565b6000610d35601883610f5b565b91507f456d61696c20616c7265616479207265676973746572656400000000000000006000830152602082019050919050565b6000610d75601383610f5b565b91507f496e76616c69642063726564656e7469616c73000000000000000000000000006000830152602082019050919050565b6000610db48284610c37565b915081905092915050565b6000602082019050610dd46000830184610be0565b92915050565b60006020820190508181036000830152610df48184610bfe565b905092915050565b60006080820190508181036000830152610e168187610bfe565b9050610e256020830186610bef565b8181036040830152610e378185610bfe565b9050610e466060830184610be0565b95945050505050565b60006020820190508181036000830152610e6881610c68565b9050919050565b60006020820190508181036000830152610e8881610ca8565b9050919050565b60006020820190508181036000830152610ea881610ce8565b9050919050565b60006020820190508181036000830152610ec881610d28565b9050919050565b60006020820190508181036000830152610ee881610d68565b9050919050565b6000604051905081810181811067ffffffffffffffff82111715610f1657610f15611062565b5b8060405250919050565b600067ffffffffffffffff821115610f3b57610f3a611062565b5b601f19601f8301169050602081019050919050565b600081519050919050565b600082825260208201905092915050565b600081905092915050565b6000610f8282610f9f565b9050919050565b60008115159050919050565b6000819050919050565b600073ffffffffffffffffffffffffffffffffffffffff82169050919050565b82818337600083830152505050565b60005b83811015610fec578082015181840152602081019050610fd1565b83811115610ffb576000848401525b50505050565b6000600282049050600182168061101957607f821691505b6020821081141561102d5761102c611033565b5b50919050565b7f4e487b7100000000000000000000000000000000000000000000000000000000600052602260045260246000fd5b7f4e487b7100000000000000000000000000000000000000000000000000000000600052604160045260246000fd5b6000601f19601f8301169050919050565b6110ab81610f77565b81146110b657600080fd5b50565b6110c281610f95565b81146110cd57600080fd5b5056fea26469706673582212207a19196e41c917a6dd102951f3c38458fc7f3f161323b0f7d589c001e22a913564736f6c63430008000033",
  "linkReferences": {},
  "deployedLinkReferences": {}
}