{
  "_format": "hh-sol-artifact-1",
  "contractName": "TruckSpaceToken",
  "sourceName": "contracts/TruckSpaceToken.sol",
  "abi": [
    {
      "inputs": [],
      "stateMutability": "nonpayable",
      "type": "constructor"
    },
    {
      "inputs": [
        {
          "internalType": "address",
          "name": "sender",
          "type": "address"
        },
        {
          "internalType": "uint256",
          "name": "balance",
          "type": "uint256"
        },
        {
          "internalType": "uint256",
          "name": "needed",
          "type": "uint256"
        },
        {
          "internalType": "uint256",
          "name": "tokenId",
          "type": "uint256"
        }
      ],
      "name": "ERC1155InsufficientBalance",
      "type": "error"
    },
    {
      "inputs": [
        {
          "internalType": "address",
          "name": "approver",
          "type": "address"
        }
      ],
      "name": "ERC1155InvalidApprover",
      "type": "error"
    },
    {
      "inputs": [
        {
          "internalType": "uint256",
          "name": "idsLength",
          "type": "uint256"
        },
        {
          "internalType": "uint256",
          "name": "valuesLength",
          "type": "uint256"
        }
      ],
      "name": "ERC1155InvalidArrayLength",
      "type": "error"
    },
    {
      "inputs": [
        {
          "internalType": "address",
          "name": "operator",
          "type": "address"
        }
      ],
      "name": "ERC1155InvalidOperator",
      "type": "error"
    },
    {
      "inputs": [
        {
          "internalType": "address",
          "name": "receiver",
          "type": "address"
        }
      ],
      "name": "ERC1155InvalidReceiver",
      "type": "error"
    },
    {
      "inputs": [
        {
          "internalType": "address",
          "name": "sender",
          "type": "address"
        }
      ],
      "name": "ERC1155InvalidSender",
      "type": "error"
    },
    {
      "inputs": [
        {
          "internalType": "address",
          "name": "operator",
          "type": "address"
        },
        {
          "internalType": "address",
          "name": "owner",
          "type": "address"
        }
      ],
      "name": "ERC1155MissingApprovalForAll",
      "type": "error"
    },
    {
      "inputs": [
        {
          "internalType": "address",
          "name": "owner",
          "type": "address"
        }
      ],
      "name": "OwnableInvalidOwner",
      "type": "error"
    },
    {
      "inputs": [
        {
          "internalType": "address",
          "name": "account",
          "type": "address"
        }
      ],
      "name": "OwnableUnauthorizedAccount",
      "type": "error"
    },
    {
      "anonymous": false,
      "inputs": [
        {
          "indexed": true,
          "internalType": "address",
          "name": "account",
          "type": "address"
        },
        {
          "indexed": true,
          "internalType": "address",
          "name": "operator",
          "type": "address"
        },
        {
          "indexed": false,
          "internalType": "bool",
          "name": "approved",
          "type": "bool"
        }
      ],
      "name": "ApprovalForAll",
      "type": "event"
    },
    {
      "anonymous": false,
      "inputs": [
        {
          "indexed": true,
          "internalType": "address",
          "name": "previousOwner",
          "type": "address"
        },
        {
          "indexed": true,
          "internalType": "address",
          "name": "newOwner",
          "type": "address"
        }
      ],
      "name": "OwnershipTransferred",
      "type": "event"
    },
    {
      "anonymous": false,
      "inputs": [
        {
          "indexed": true,
          "internalType": "uint256",
          "name": "tokenId",
          "type": "uint256"
        },
        {
          "indexed": true,
          "internalType": "address",
          "name": "user",
          "type": "address"
        },
        {
          "indexed": true,
          "internalType": "address",
          "name": "provider",
          "type": "address"
        }
      ],
      "name": "SpaceBooked",
      "type": "event"
    },
    {
      "anonymous": false,
      "inputs": [
        {
          "indexed": true,
          "internalType": "uint256",
          "name": "tokenId",
          "type": "uint256"
        },
        {
          "indexed": true,
          "internalType": "address",
          "name": "provider",
          "type": "address"
        },
        {
          "indexed": false,
          "internalType": "bytes32",
          "name": "truckId",
          "type": "bytes32"
        },
        {
          "indexed": false,
          "internalType": "uint256",
          "name": "volume",
          "type": "uint256"
        }
      ],
      "name": "SpaceTokenized",
      "type": "event"
    },
    {
      "anonymous": false,
      "inputs": [
        {
          "indexed": true,
          "internalType": "address",
          "name": "operator",
          "type": "address"
        },
        {
          "indexed": true,
          "internalType": "address",
          "name": "from",
          "type": "address"
        },
        {
          "indexed": true,
          "internalType": "address",
          "name": "to",
          "type": "address"
        },
        {
          "indexed": false,
          "internalType": "uint256[]",
          "name": "ids",
          "type": "uint256[]"
        },
        {
          "indexed": false,
          "internalType": "uint256[]",
          "name": "values",
          "type": "uint256[]"
        }
      ],
      "name": "TransferBatch",
      "type": "event"
    },
    {
      "anonymous": false,
      "inputs": [
        {
          "indexed": true,
          "internalType": "address",
          "name": "operator",
          "type": "address"
        },
        {
          "indexed": true,
          "internalType": "address",
          "name": "from",
          "type": "address"
        },
        {
          "indexed": true,
          "internalType": "address",
          "name": "to",
          "type": "address"
        },
        {
          "indexed": false,
          "internalType": "uint256",
          "name": "id",
          "type": "uint256"
        },
        {
          "indexed": false,
          "internalType": "uint256",
          "name": "value",
          "type": "uint256"
        }
      ],
      "name": "TransferSingle",
      "type": "event"
    },
    {
      "anonymous": false,
      "inputs": [
        {
          "indexed": false,
          "internalType": "string",
          "name": "value",
          "type": "string"
        },
        {
          "indexed": true,
          "internalType": "uint256",
          "name": "id",
          "type": "uint256"
        }
      ],
      "name": "URI",
      "type": "event"
    },
    {
      "inputs": [
        {
          "internalType": "address",
          "name": "account",
          "type": "address"
        },
        {
          "internalType": "uint256",
          "name": "id",
          "type": "uint256"
        }
      ],
      "name": "balanceOf",
      "outputs": [
        {
          "internalType": "uint256",
          "name": "",
          "type": "uint256"
        }
      ],
      "stateMutability": "view",
      "type": "function"
    },
    {
      "inputs": [
        {
          "internalType": "address[]",
          "name": "accounts",
          "type": "address[]"
        },
        {
          "internalType": "uint256[]",
          "name": "ids",
          "type": "uint256[]"
        }
      ],
      "name": "balanceOfBatch",
      "outputs": [
        {
          "internalType": "uint256[]",
          "name": "",
          "type": "uint256[]"
        }
      ],
      "stateMutability": "view",
      "type": "function"
    },
    {
      "inputs": [
        {
          "internalType": "uint256",
          "name": "tokenId",
          "type": "uint256"
        }
      ],
      "name": "bookSpace",
      "outputs": [],
      "stateMutability": "payable",
      "type": "function"
    },
    {
      "inputs": [
        {
          "internalType": "address",
          "name": "provider",
          "type": "address"
        }
      ],
      "name": "getProviderSpaces",
      "outputs": [
        {
          "internalType": "uint256[]",
          "name": "",
          "type": "uint256[]"
        }
      ],
      "stateMutability": "view",
      "type": "function"
    },
    {
      "inputs": [
        {
          "internalType": "uint256",
          "name": "tokenId",
          "type": "uint256"
        }
      ],
      "name": "getSpaceDetails",
      "outputs": [
        {
          "components": [
            {
              "internalType": "uint256",
              "name": "length",
              "type": "uint256"
            },
            {
              "internalType": "uint256",
              "name": "width",
              "type": "uint256"
            },
            {
              "internalType": "uint256",
              "name": "height",
              "type": "uint256"
            },
            {
              "internalType": "uint256",
              "name": "volume",
              "type": "uint256"
            },
            {
              "internalType": "bytes32",
              "name": "location",
              "type": "bytes32"
            },
            {
              "internalType": "bytes32",
              "name": "destination",
              "type": "bytes32"
            },
            {
              "internalType": "uint256",
              "name": "price",
              "type": "uint256"
            },
            {
              "internalType": "bool",
              "name": "isAvailable",
              "type": "bool"
            },
            {
              "internalType": "address",
              "name": "provider",
              "type": "address"
            },
            {
              "internalType": "bytes32",
              "name": "truckId",
              "type": "bytes32"
            },
            {
              "internalType": "uint256",
              "name": "timestamp",
              "type": "uint256"
            }
          ],
          "internalType": "struct TruckSpaceToken.SpaceDetails",
          "name": "",
          "type": "tuple"
        }
      ],
      "stateMutability": "view",
      "type": "function"
    },
    {
      "inputs": [
        {
          "internalType": "address",
          "name": "user",
          "type": "address"
        }
      ],
      "name": "getUserBookings",
      "outputs": [
        {
          "internalType": "uint256[]",
          "name": "",
          "type": "uint256[]"
        }
      ],
      "stateMutability": "view",
      "type": "function"
    },
    {
      "inputs": [
        {
          "internalType": "address",
          "name": "account",
          "type": "address"
        },
        {
          "internalType": "address",
          "name": "operator",
          "type": "address"
        }
      ],
      "name": "isApprovedForAll",
      "outputs": [
        {
          "internalType": "bool",
          "name": "",
          "type": "bool"
        }
      ],
      "stateMutability": "view",
      "type": "function"
    },
    {
      "inputs": [],
      "name": "owner",
      "outputs": [
        {
          "internalType": "address",
          "name": "",
          "type": "address"
        }
      ],
      "stateMutability": "view",
      "type": "function"
    },
    {
      "inputs": [
        {
          "internalType": "address",
          "name": "",
          "type": "address"
        },
        {
          "internalType": "uint256",
          "name": "",
          "type": "uint256"
        }
      ],
      "name": "providerSpaces",
      "outputs": [
        {
          "internalType": "uint256",
          "name": "",
          "type": "uint256"
        }
      ],
      "stateMutability": "view",
      "type": "function"
    },
    {
      "inputs": [],
      "name": "renounceOwnership",
      "outputs": [],
      "stateMutability": "nonpayable",
      "type": "function"
    },
    {
      "inputs": [
        {
          "internalType": "address",
          "name": "from",
          "type": "address"
        },
        {
          "internalType": "address",
          "name": "to",
          "type": "address"
        },
        {
          "internalType": "uint256[]",
          "name": "ids",
          "type": "uint256[]"
        },
        {
          "internalType": "uint256[]",
          "name": "values",
          "type": "uint256[]"
        },
        {
          "internalType": "bytes",
          "name": "data",
          "type": "bytes"
        }
      ],
      "name": "safeBatchTransferFrom",
      "outputs": [],
      "stateMutability": "nonpayable",
      "type": "function"
    },
    {
      "inputs": [
        {
          "internalType": "address",
          "name": "from",
          "type": "address"
        },
        {
          "internalType": "address",
          "name": "to",
          "type": "address"
        },
        {
          "internalType": "uint256",
          "name": "id",
          "type": "uint256"
        },
        {
          "internalType": "uint256",
          "name": "value",
          "type": "uint256"
        },
        {
          "internalType": "bytes",
          "name": "data",
          "type": "bytes"
        }
      ],
      "name": "safeTransferFrom",
      "outputs": [],
      "stateMutability": "nonpayable",
      "type": "function"
    },
    {
      "inputs": [
        {
          "internalType": "address",
          "name": "operator",
          "type": "address"
        },
        {
          "internalType": "bool",
          "name": "approved",
          "type": "bool"
        }
      ],
      "name": "setApprovalForAll",
      "outputs": [],
      "stateMutability": "nonpayable",
      "type": "function"
    },
    {
      "inputs": [
        {
          "internalType": "uint256",
          "name": "",
          "type": "uint256"
        }
      ],
      "name": "spaceDetails",
      "outputs": [
        {
          "internalType": "uint256",
          "name": "length",
          "type": "uint256"
        },
        {
          "internalType": "uint256",
          "name": "width",
          "type": "uint256"
        },
        {
          "internalType": "uint256",
          "name": "height",
          "type": "uint256"
        },
        {
          "internalType": "uint256",
          "name": "volume",
          "type": "uint256"
        },
        {
          "internalType": "bytes32",
          "name": "location",
          "type": "bytes32"
        },
        {
          "internalType": "bytes32",
          "name": "destination",
          "type": "bytes32"
        },
        {
          "internalType": "uint256",
          "name": "price",
          "type": "uint256"
        },
        {
          "internalType": "bool",
          "name": "isAvailable",
          "type": "bool"
        },
        {
          "internalType": "address",
          "name": "provider",
          "type": "address"
        },
        {
          "internalType": "bytes32",
          "name": "truckId",
          "type": "bytes32"
        },
        {
          "internalType": "uint256",
          "name": "timestamp",
          "type": "uint256"
        }
      ],
      "stateMutability": "view",
      "type": "function"
    },
    {
      "inputs": [
        {
          "internalType": "bytes4",
          "name": "interfaceId",
          "type": "bytes4"
        }
      ],
      "name": "supportsInterface",
      "outputs": [
        {
          "internalType": "bool",
          "name": "",
          "type": "bool"
        }
      ],
      "stateMutability": "view",
      "type": "function"
    },
    {
      "inputs": [
        {
          "internalType": "uint256",
          "name": "length",
          "type": "uint256"
        },
        {
          "internalType": "uint256",
          "name": "width",
          "type": "uint256"
        },
        {
          "internalType": "uint256",
          "name": "height",
          "type": "uint256"
        },
        {
          "internalType": "bytes32",
          "name": "location",
          "type": "bytes32"
        },
        {
          "internalType": "bytes32",
          "name": "destination",
          "type": "bytes32"
        },
        {
          "internalType": "uint256",
          "name": "price",
          "type": "uint256"
        },
        {
          "internalType": "bytes32",
          "name": "truckId",
          "type": "bytes32"
        }
      ],
      "name": "tokenizeSpace",
      "outputs": [
        {
          "internalType": "uint256",
          "name": "",
          "type": "uint256"
        }
      ],
      "stateMutability": "nonpayable",
      "type": "function"
    },
    {
      "inputs": [
        {
          "internalType": "address",
          "name": "newOwner",
          "type": "address"
        }
      ],
      "name": "transferOwnership",
      "outputs": [],
      "stateMutability": "nonpayable",
      "type": "function"
    },
    {
      "inputs": [
        {
          "internalType": "uint256",
          "name": "",
          "type": "uint256"
        }
      ],
      "name": "uri",
      "outputs": [
        {
          "internalType": "string",
          "name": "",
          "type": "string"
        }
      ],
      "stateMutability": "view",
      "type": "function"
    },
    {
      "inputs": [
        {
          "internalType": "address",
          "name": "",
          "type": "address"
        },
        {
          "internalType": "uint256",
          "name": "",
          "type": "uint256"
        }
      ],
      "name": "userBookings",
      "outputs": [
        {
          "internalType": "uint256",
          "name": "",
          "type": "uint256"
        }
      ],
      "stateMutability": "view",
      "type": "function"
    }
  ],
  "bytecode": "0x608060405260006004553480156200001657600080fd5b5033604051806020016040528060008152506200003981620000c760201b60201c565b50600073ffffffffffffffffffffffffffffffffffffffff168173ffffffffffffffffffffffffffffffffffffffff1603620000af5760006040517f1e4fbdf7000000000000000000000000000000000000000000000000000000008152600401620000a69190620001e7565b60405180910390fd5b620000c081620000dc60201b60201c565b5062000565565b8060029081620000d891906200047e565b5050565b6000600360009054906101000a900473ffffffffffffffffffffffffffffffffffffffff16905081600360006101000a81548173ffffffffffffffffffffffffffffffffffffffff021916908373ffffffffffffffffffffffffffffffffffffffff1602179055508173ffffffffffffffffffffffffffffffffffffffff168173ffffffffffffffffffffffffffffffffffffffff167f8be0079c531659141344cd1fd0a4f28419497f9722a3daafe3b4186f6b6457e060405160405180910390a35050565b600073ffffffffffffffffffffffffffffffffffffffff82169050919050565b6000620001cf82620001a2565b9050919050565b620001e181620001c2565b82525050565b6000602082019050620001fe6000830184620001d6565b92915050565b600081519050919050565b7f4e487b7100000000000000000000000000000000000000000000000000000000600052604160045260246000fd5b7f4e487b7100000000000000000000000000000000000000000000000000000000600052602260045260246000fd5b600060028204905060018216806200028657607f821691505b6020821081036200029c576200029b6200023e565b5b50919050565b60008190508160005260206000209050919050565b60006020601f8301049050919050565b600082821b905092915050565b600060088302620003067fffffffffffffffffffffffffffffffffffffffffffffffffffffffffffffffff82620002c7565b620003128683620002c7565b95508019841693508086168417925050509392505050565b6000819050919050565b6000819050919050565b60006200035f6200035962000353846200032a565b62000334565b6200032a565b9050919050565b6000819050919050565b6200037b836200033e565b620003936200038a8262000366565b848454620002d4565b825550505050565b600090565b620003aa6200039b565b620003b781848462000370565b505050565b5b81811015620003df57620003d3600082620003a0565b600181019050620003bd565b5050565b601f8211156200042e57620003f881620002a2565b6200040384620002b7565b8101602085101562000413578190505b6200042b6200042285620002b7565b830182620003bc565b50505b505050565b600082821c905092915050565b6000620004536000198460080262000433565b1980831691505092915050565b60006200046e838362000440565b9150826002028217905092915050565b620004898262000204565b67ffffffffffffffff811115620004a557620004a46200020f565b5b620004b182546200026d565b620004be828285620003e3565b600060209050601f831160018114620004f65760008415620004e1578287015190505b620004ed858262000460565b8655506200055d565b601f1984166200050686620002a2565b60005b82811015620005305784890151825560018201915060208501945060208101905062000509565b868310156200055057848901516200054c601f89168262000440565b8355505b6001600288020188555050505b505050505050565b6131f180620005756000396000f3fe6080604052600436106101135760003560e01c80638da5cb5b116100a0578063e3a4d3a211610064578063e3a4d3a2146103f7578063e985e9c514610434578063ef3197c814610471578063f242432a146104ae578063f2fde38b146104d757610113565b80638da5cb5b146102ec578063a22cb46514610317578063bdd6092f14610340578063d4df866f1461037d578063df56754e146103ba57610113565b80632eb2c2d6116100e75780632eb2c2d6146102165780634afd1b9f1461023f5780634e1273f41461025b578063715018a614610298578063894b0b11146102af57610113565b8062fdd58e1461011857806301ffc9a71461015557806302c83ad1146101925780630e89341c146101d9575b600080fd5b34801561012457600080fd5b5061013f600480360381019061013a91906121d6565b610500565b60405161014c9190612225565b60405180910390f35b34801561016157600080fd5b5061017c60048036038101906101779190612298565b61055a565b60405161018991906122e0565b60405180910390f35b34801561019e57600080fd5b506101b960048036038101906101b491906122fb565b61063c565b6040516101d09b9a99989796959493929190612350565b60405180910390f35b3480156101e557600080fd5b5061020060048036038101906101fb91906122fb565b6106c3565b60405161020d919061248b565b60405180910390f35b34801561022257600080fd5b5061023d600480360381019061023891906126aa565b610757565b005b610259600480360381019061025491906122fb565b6107ff565b005b34801561026757600080fd5b50610282600480360381019061027d919061283c565b610ab4565b60405161028f9190612972565b60405180910390f35b3480156102a457600080fd5b506102ad610bc3565b005b3480156102bb57600080fd5b506102d660048036038101906102d191906121d6565b610bd7565b6040516102e39190612225565b60405180910390f35b3480156102f857600080fd5b50610301610c08565b60405161030e9190612994565b60405180910390f35b34801561032357600080fd5b5061033e600480360381019061033991906129db565b610c32565b005b34801561034c57600080fd5b5061036760048036038101906103629190612a47565b610c48565b6040516103749190612225565b60405180910390f35b34801561038957600080fd5b506103a4600480360381019061039f91906122fb565b610eae565b6040516103b19190612bf7565b60405180910390f35b3480156103c657600080fd5b506103e160048036038101906103dc9190612c13565b610fa7565b6040516103ee9190612972565b60405180910390f35b34801561040357600080fd5b5061041e600480360381019061041991906121d6565b61103e565b60405161042b9190612225565b60405180910390f35b34801561044057600080fd5b5061045b60048036038101906104569190612c40565b61106f565b60405161046891906122e0565b60405180910390f35b34801561047d57600080fd5b5061049860048036038101906104939190612c13565b611103565b6040516104a59190612972565b60405180910390f35b3480156104ba57600080fd5b506104d560048036038101906104d09190612c80565b61119a565b005b3480156104e357600080fd5b506104fe60048036038101906104f99190612c13565b611242565b005b600080600083815260200190815260200160002060008473ffffffffffffffffffffffffffffffffffffffff1673ffffffffffffffffffffffffffffffffffffffff16815260200190815260200160002054905092915050565b60007fd9b67a26000000000000000000000000000000000000000000000000000000007bffffffffffffffffffffffffffffffffffffffffffffffffffffffff1916827bffffffffffffffffffffffffffffffffffffffffffffffffffffffff1916148061062557507f0e89341c000000000000000000000000000000000000000000000000000000007bffffffffffffffffffffffffffffffffffffffffffffffffffffffff1916827bffffffffffffffffffffffffffffffffffffffffffffffffffffffff1916145b806106355750610634826112c8565b5b9050919050565b60056020528060005260406000206000915090508060000154908060010154908060020154908060030154908060040154908060050154908060060154908060070160009054906101000a900460ff16908060070160019054906101000a900473ffffffffffffffffffffffffffffffffffffffff1690806008015490806009015490508b565b6060600280546106d290612d46565b80601f01602080910402602001604051908101604052809291908181526020018280546106fe90612d46565b801561074b5780601f106107205761010080835404028352916020019161074b565b820191906000526020600020905b81548152906001019060200180831161072e57829003601f168201915b50505050509050919050565b6000610761611332565b90508073ffffffffffffffffffffffffffffffffffffffff168673ffffffffffffffffffffffffffffffffffffffff16141580156107a657506107a4868261106f565b155b156107ea5780866040517fe237d9220000000000000000000000000000000000000000000000000000000081526004016107e1929190612d77565b60405180910390fd5b6107f7868686868661133a565b505050505050565b6005600082815260200190815260200160002060070160009054906101000a900460ff16610862576040517f08c379a000000000000000000000000000000000000000000000000000000000815260040161085990612dec565b60405180910390fd5b60056000828152602001908152602001600020600601543410156108bb576040517f08c379a00000000000000000000000000000000000000000000000000000000081526004016108b290612e58565b60405180910390fd5b60006005600083815260200190815260200160002060070160006101000a81548160ff021916908315150217905550600760003373ffffffffffffffffffffffffffffffffffffffff1673ffffffffffffffffffffffffffffffffffffffff1681526020019081526020016000208190806001815401808255809150506001900390600052602060002001600090919091909150556109a36005600083815260200190815260200160002060070160019054906101000a900473ffffffffffffffffffffffffffffffffffffffff16338360016040518060200160405280600081525061119a565b6005600082815260200190815260200160002060070160019054906101000a900473ffffffffffffffffffffffffffffffffffffffff1673ffffffffffffffffffffffffffffffffffffffff166108fc349081150290604051600060405180830381858888f19350505050158015610a1f573d6000803e3d6000fd5b506005600082815260200190815260200160002060070160019054906101000a900473ffffffffffffffffffffffffffffffffffffffff1673ffffffffffffffffffffffffffffffffffffffff163373ffffffffffffffffffffffffffffffffffffffff16827ff564125637f84839f1e62d85680c7b7841a054dee7456fb4dd4fa9caba3b25ee60405160405180910390a450565b60608151835114610b0057815183516040517f5b059991000000000000000000000000000000000000000000000000000000008152600401610af7929190612e78565b60405180910390fd5b6000835167ffffffffffffffff811115610b1d57610b1c6124b2565b5b604051908082528060200260200182016040528015610b4b5781602001602082028036833780820191505090505b50905060005b8451811015610bb857610b88610b70828761143290919063ffffffff16565b610b83838761144690919063ffffffff16565b610500565b828281518110610b9b57610b9a612ea1565b5b60200260200101818152505080610bb190612eff565b9050610b51565b508091505092915050565b610bcb61145a565b610bd560006114e1565b565b60066020528160005260406000208181548110610bf357600080fd5b90600052602060002001600091509150505481565b6000600360009054906101000a900473ffffffffffffffffffffffffffffffffffffffff16905090565b610c44610c3d611332565b83836115a7565b5050565b6000600160046000828254610c5d9190612f47565b9250508190555060006004549050600087898b610c7a9190612f7b565b610c849190612f7b565b905060006040518061016001604052808c81526020018b81526020018a81526020018381526020018981526020018881526020018781526020016001151581526020013373ffffffffffffffffffffffffffffffffffffffff168152602001868152602001428152509050610d0b3384600160405180602001604052806000815250611717565b8060056000858152602001908152602001600020600082015181600001556020820151816001015560408201518160020155606082015181600301556080820151816004015560a0820151816005015560c0820151816006015560e08201518160070160006101000a81548160ff0219169083151502179055506101008201518160070160016101000a81548173ffffffffffffffffffffffffffffffffffffffff021916908373ffffffffffffffffffffffffffffffffffffffff16021790555061012082015181600801556101408201518160090155905050600660003373ffffffffffffffffffffffffffffffffffffffff1673ffffffffffffffffffffffffffffffffffffffff1681526020019081526020016000208390806001815401808255809150506001900390600052602060002001600090919091909150553373ffffffffffffffffffffffffffffffffffffffff16837fc8b74311b303b0940253c74a26b4d8757fd0df405036e98ed4ee80eda3f8b14c8785604051610e95929190612fbd565b60405180910390a3829350505050979650505050505050565b610eb66120b3565b6005600083815260200190815260200160002060405180610160016040529081600082015481526020016001820154815260200160028201548152602001600382015481526020016004820154815260200160058201548152602001600682015481526020016007820160009054906101000a900460ff161515151581526020016007820160019054906101000a900473ffffffffffffffffffffffffffffffffffffffff1673ffffffffffffffffffffffffffffffffffffffff1673ffffffffffffffffffffffffffffffffffffffff168152602001600882015481526020016009820154815250509050919050565b6060600660008373ffffffffffffffffffffffffffffffffffffffff1673ffffffffffffffffffffffffffffffffffffffff16815260200190815260200160002080548060200260200160405190810160405280929190818152602001828054801561103257602002820191906000526020600020905b81548152602001906001019080831161101e575b50505050509050919050565b6007602052816000526040600020818154811061105a57600080fd5b90600052602060002001600091509150505481565b6000600160008473ffffffffffffffffffffffffffffffffffffffff1673ffffffffffffffffffffffffffffffffffffffff16815260200190815260200160002060008373ffffffffffffffffffffffffffffffffffffffff1673ffffffffffffffffffffffffffffffffffffffff16815260200190815260200160002060009054906101000a900460ff16905092915050565b6060600760008373ffffffffffffffffffffffffffffffffffffffff1673ffffffffffffffffffffffffffffffffffffffff16815260200190815260200160002080548060200260200160405190810160405280929190818152602001828054801561118e57602002820191906000526020600020905b81548152602001906001019080831161117a575b50505050509050919050565b60006111a4611332565b90508073ffffffffffffffffffffffffffffffffffffffff168673ffffffffffffffffffffffffffffffffffffffff16141580156111e957506111e7868261106f565b155b1561122d5780866040517fe237d922000000000000000000000000000000000000000000000000000000008152600401611224929190612d77565b60405180910390fd5b61123a86868686866117b0565b505050505050565b61124a61145a565b600073ffffffffffffffffffffffffffffffffffffffff168173ffffffffffffffffffffffffffffffffffffffff16036112bc5760006040517f1e4fbdf70000000000000000000000000000000000000000000000000000000081526004016112b39190612994565b60405180910390fd5b6112c5816114e1565b50565b60007f01ffc9a7000000000000000000000000000000000000000000000000000000007bffffffffffffffffffffffffffffffffffffffffffffffffffffffff1916827bffffffffffffffffffffffffffffffffffffffffffffffffffffffff1916149050919050565b600033905090565b600073ffffffffffffffffffffffffffffffffffffffff168473ffffffffffffffffffffffffffffffffffffffff16036113ac5760006040517f57f447ce0000000000000000000000000000000000000000000000000000000081526004016113a39190612994565b60405180910390fd5b600073ffffffffffffffffffffffffffffffffffffffff168573ffffffffffffffffffffffffffffffffffffffff160361141e5760006040517f01a835140000000000000000000000000000000000000000000000000000000081526004016114159190612994565b60405180910390fd5b61142b85858585856118bb565b5050505050565b600060208202602084010151905092915050565b600060208202602084010151905092915050565b611462611332565b73ffffffffffffffffffffffffffffffffffffffff16611480610c08565b73ffffffffffffffffffffffffffffffffffffffff16146114df576114a3611332565b6040517f118cdaa70000000000000000000000000000000000000000000000000000000081526004016114d69190612994565b60405180910390fd5b565b6000600360009054906101000a900473ffffffffffffffffffffffffffffffffffffffff16905081600360006101000a81548173ffffffffffffffffffffffffffffffffffffffff021916908373ffffffffffffffffffffffffffffffffffffffff1602179055508173ffffffffffffffffffffffffffffffffffffffff168173ffffffffffffffffffffffffffffffffffffffff167f8be0079c531659141344cd1fd0a4f28419497f9722a3daafe3b4186f6b6457e060405160405180910390a35050565b600073ffffffffffffffffffffffffffffffffffffffff168273ffffffffffffffffffffffffffffffffffffffff16036116195760006040517fced3e1000000000000000000000000000000000000000000000000000000000081526004016116109190612994565b60405180910390fd5b80600160008573ffffffffffffffffffffffffffffffffffffffff1673ffffffffffffffffffffffffffffffffffffffff16815260200190815260200160002060008473ffffffffffffffffffffffffffffffffffffffff1673ffffffffffffffffffffffffffffffffffffffff16815260200190815260200160002060006101000a81548160ff0219169083151502179055508173ffffffffffffffffffffffffffffffffffffffff168373ffffffffffffffffffffffffffffffffffffffff167f17307eab39ab6107e8899845ad3d59bd9653f200f220920489ca2b5937696c318360405161170a91906122e0565b60405180910390a3505050565b600073ffffffffffffffffffffffffffffffffffffffff168473ffffffffffffffffffffffffffffffffffffffff16036117895760006040517f57f447ce0000000000000000000000000000000000000000000000000000000081526004016117809190612994565b60405180910390fd5b600080611796858561196d565b915091506117a86000878484876118bb565b505050505050565b600073ffffffffffffffffffffffffffffffffffffffff168473ffffffffffffffffffffffffffffffffffffffff16036118225760006040517f57f447ce0000000000000000000000000000000000000000000000000000000081526004016118199190612994565b60405180910390fd5b600073ffffffffffffffffffffffffffffffffffffffff168573ffffffffffffffffffffffffffffffffffffffff16036118945760006040517f01a8351400000000000000000000000000000000000000000000000000000000815260040161188b9190612994565b60405180910390fd5b6000806118a1858561196d565b915091506118b287878484876118bb565b50505050505050565b6118c78585858561199d565b600073ffffffffffffffffffffffffffffffffffffffff168473ffffffffffffffffffffffffffffffffffffffff1614611966576000611905611332565b9050600184510361195557600061192660008661144690919063ffffffff16565b9050600061193e60008661144690919063ffffffff16565b905061194e838989858589611d4b565b5050611964565b611963818787878787611eff565b5b505b5050505050565b60608060405191506001825283602083015260408201905060018152826020820152604081016040529250929050565b80518251146119e757815181516040517f5b0599910000000000000000000000000000000000000000000000000000000081526004016119de929190612e78565b60405180910390fd5b60006119f1611332565b905060005b8351811015611c06576000611a14828661144690919063ffffffff16565b90506000611a2b838661144690919063ffffffff16565b9050600073ffffffffffffffffffffffffffffffffffffffff168873ffffffffffffffffffffffffffffffffffffffff1614611b5857600080600084815260200190815260200160002060008a73ffffffffffffffffffffffffffffffffffffffff1673ffffffffffffffffffffffffffffffffffffffff16815260200190815260200160002054905081811015611b0057888183856040517f03dee4c5000000000000000000000000000000000000000000000000000000008152600401611af79493929190612fe6565b60405180910390fd5b81810360008085815260200190815260200160002060008b73ffffffffffffffffffffffffffffffffffffffff1673ffffffffffffffffffffffffffffffffffffffff16815260200190815260200160002081905550505b600073ffffffffffffffffffffffffffffffffffffffff168773ffffffffffffffffffffffffffffffffffffffff1614611bf3578060008084815260200190815260200160002060008973ffffffffffffffffffffffffffffffffffffffff1673ffffffffffffffffffffffffffffffffffffffff1681526020019081526020016000206000828254611beb9190612f47565b925050819055505b505080611bff90612eff565b90506119f6565b506001835103611cc5576000611c2660008561144690919063ffffffff16565b90506000611c3e60008561144690919063ffffffff16565b90508573ffffffffffffffffffffffffffffffffffffffff168773ffffffffffffffffffffffffffffffffffffffff168473ffffffffffffffffffffffffffffffffffffffff167fc3d58168c5ae7397731d063d5bbf3d657854427343f4c083240f7aacaa2d0f628585604051611cb6929190612e78565b60405180910390a45050611d44565b8373ffffffffffffffffffffffffffffffffffffffff168573ffffffffffffffffffffffffffffffffffffffff168273ffffffffffffffffffffffffffffffffffffffff167f4a39dc06d4c0dbc64b70af90fd698a233a518aa5d07e595d983b8c0526c8f7fb8686604051611d3b92919061302b565b60405180910390a45b5050505050565b60008473ffffffffffffffffffffffffffffffffffffffff163b1115611ef7578373ffffffffffffffffffffffffffffffffffffffff1663f23a6e6187878686866040518663ffffffff1660e01b8152600401611dac9594939291906130b7565b6020604051808303816000875af1925050508015611de857506040513d601f19601f82011682018060405250810190611de59190613126565b60015b611e6c573d8060008114611e18576040519150601f19603f3d011682016040523d82523d6000602084013e611e1d565b606091505b506000815103611e6457846040517f57f447ce000000000000000000000000000000000000000000000000000000008152600401611e5b9190612994565b60405180910390fd5b805181602001fd5b63f23a6e6160e01b7bffffffffffffffffffffffffffffffffffffffffffffffffffffffff1916817bffffffffffffffffffffffffffffffffffffffffffffffffffffffff191614611ef557846040517f57f447ce000000000000000000000000000000000000000000000000000000008152600401611eec9190612994565b60405180910390fd5b505b505050505050565b60008473ffffffffffffffffffffffffffffffffffffffff163b11156120ab578373ffffffffffffffffffffffffffffffffffffffff1663bc197c8187878686866040518663ffffffff1660e01b8152600401611f60959493929190613153565b6020604051808303816000875af1925050508015611f9c57506040513d601f19601f82011682018060405250810190611f999190613126565b60015b612020573d8060008114611fcc576040519150601f19603f3d011682016040523d82523d6000602084013e611fd1565b606091505b50600081510361201857846040517f57f447ce00000000000000000000000000000000000000000000000000000000815260040161200f9190612994565b60405180910390fd5b805181602001fd5b63bc197c8160e01b7bffffffffffffffffffffffffffffffffffffffffffffffffffffffff1916817bffffffffffffffffffffffffffffffffffffffffffffffffffffffff1916146120a957846040517f57f447ce0000000000000000000000000000000000000000000000000000000081526004016120a09190612994565b60405180910390fd5b505b505050505050565b60405180610160016040528060008152602001600081526020016000815260200160008152602001600080191681526020016000801916815260200160008152602001600015158152602001600073ffffffffffffffffffffffffffffffffffffffff16815260200160008019168152602001600081525090565b6000604051905090565b600080fd5b600080fd5b600073ffffffffffffffffffffffffffffffffffffffff82169050919050565b600061216d82612142565b9050919050565b61217d81612162565b811461218857600080fd5b50565b60008135905061219a81612174565b92915050565b6000819050919050565b6121b3816121a0565b81146121be57600080fd5b50565b6000813590506121d0816121aa565b92915050565b600080604083850312156121ed576121ec612138565b5b60006121fb8582860161218b565b925050602061220c858286016121c1565b9150509250929050565b61221f816121a0565b82525050565b600060208201905061223a6000830184612216565b92915050565b60007fffffffff0000000000000000000000000000000000000000000000000000000082169050919050565b61227581612240565b811461228057600080fd5b50565b6000813590506122928161226c565b92915050565b6000602082840312156122ae576122ad612138565b5b60006122bc84828501612283565b91505092915050565b60008115159050919050565b6122da816122c5565b82525050565b60006020820190506122f560008301846122d1565b92915050565b60006020828403121561231157612310612138565b5b600061231f848285016121c1565b91505092915050565b6000819050919050565b61233b81612328565b82525050565b61234a81612162565b82525050565b600061016082019050612366600083018e612216565b612373602083018d612216565b612380604083018c612216565b61238d606083018b612216565b61239a608083018a612332565b6123a760a0830189612332565b6123b460c0830188612216565b6123c160e08301876122d1565b6123cf610100830186612341565b6123dd610120830185612332565b6123eb610140830184612216565b9c9b505050505050505050505050565b600081519050919050565b600082825260208201905092915050565b60005b8381101561243557808201518184015260208101905061241a565b60008484015250505050565b6000601f19601f8301169050919050565b600061245d826123fb565b6124678185612406565b9350612477818560208601612417565b61248081612441565b840191505092915050565b600060208201905081810360008301526124a58184612452565b905092915050565b600080fd5b7f4e487b7100000000000000000000000000000000000000000000000000000000600052604160045260246000fd5b6124ea82612441565b810181811067ffffffffffffffff82111715612509576125086124b2565b5b80604052505050565b600061251c61212e565b905061252882826124e1565b919050565b600067ffffffffffffffff821115612548576125476124b2565b5b602082029050602081019050919050565b600080fd5b600061257161256c8461252d565b612512565b9050808382526020820190506020840283018581111561259457612593612559565b5b835b818110156125bd57806125a988826121c1565b845260208401935050602081019050612596565b5050509392505050565b600082601f8301126125dc576125db6124ad565b5b81356125ec84826020860161255e565b91505092915050565b600080fd5b600067ffffffffffffffff821115612615576126146124b2565b5b61261e82612441565b9050602081019050919050565b82818337600083830152505050565b600061264d612648846125fa565b612512565b905082815260208101848484011115612669576126686125f5565b5b61267484828561262b565b509392505050565b600082601f830112612691576126906124ad565b5b81356126a184826020860161263a565b91505092915050565b600080600080600060a086880312156126c6576126c5612138565b5b60006126d48882890161218b565b95505060206126e58882890161218b565b945050604086013567ffffffffffffffff8111156127065761270561213d565b5b612712888289016125c7565b935050606086013567ffffffffffffffff8111156127335761273261213d565b5b61273f888289016125c7565b925050608086013567ffffffffffffffff8111156127605761275f61213d565b5b61276c8882890161267c565b9150509295509295909350565b600067ffffffffffffffff821115612794576127936124b2565b5b602082029050602081019050919050565b60006127b86127b384612779565b612512565b905080838252602082019050602084028301858111156127db576127da612559565b5b835b8181101561280457806127f0888261218b565b8452602084019350506020810190506127dd565b5050509392505050565b600082601f830112612823576128226124ad565b5b81356128338482602086016127a5565b91505092915050565b6000806040838503121561285357612852612138565b5b600083013567ffffffffffffffff8111156128715761287061213d565b5b61287d8582860161280e565b925050602083013567ffffffffffffffff81111561289e5761289d61213d565b5b6128aa858286016125c7565b9150509250929050565b600081519050919050565b600082825260208201905092915050565b6000819050602082019050919050565b6128e9816121a0565b82525050565b60006128fb83836128e0565b60208301905092915050565b6000602082019050919050565b600061291f826128b4565b61292981856128bf565b9350612934836128d0565b8060005b8381101561296557815161294c88826128ef565b975061295783612907565b925050600181019050612938565b5085935050505092915050565b6000602082019050818103600083015261298c8184612914565b905092915050565b60006020820190506129a96000830184612341565b92915050565b6129b8816122c5565b81146129c357600080fd5b50565b6000813590506129d5816129af565b92915050565b600080604083850312156129f2576129f1612138565b5b6000612a008582860161218b565b9250506020612a11858286016129c6565b9150509250929050565b612a2481612328565b8114612a2f57600080fd5b50565b600081359050612a4181612a1b565b92915050565b600080600080600080600060e0888a031215612a6657612a65612138565b5b6000612a748a828b016121c1565b9750506020612a858a828b016121c1565b9650506040612a968a828b016121c1565b9550506060612aa78a828b01612a32565b9450506080612ab88a828b01612a32565b93505060a0612ac98a828b016121c1565b92505060c0612ada8a828b01612a32565b91505092959891949750929550565b612af281612328565b82525050565b612b01816122c5565b82525050565b612b1081612162565b82525050565b61016082016000820151612b2d60008501826128e0565b506020820151612b4060208501826128e0565b506040820151612b5360408501826128e0565b506060820151612b6660608501826128e0565b506080820151612b796080850182612ae9565b5060a0820151612b8c60a0850182612ae9565b5060c0820151612b9f60c08501826128e0565b5060e0820151612bb260e0850182612af8565b50610100820151612bc7610100850182612b07565b50610120820151612bdc610120850182612ae9565b50610140820151612bf16101408501826128e0565b50505050565b600061016082019050612c0d6000830184612b16565b92915050565b600060208284031215612c2957612c28612138565b5b6000612c378482850161218b565b91505092915050565b60008060408385031215612c5757612c56612138565b5b6000612c658582860161218b565b9250506020612c768582860161218b565b9150509250929050565b600080600080600060a08688031215612c9c57612c9b612138565b5b6000612caa8882890161218b565b9550506020612cbb8882890161218b565b9450506040612ccc888289016121c1565b9350506060612cdd888289016121c1565b925050608086013567ffffffffffffffff811115612cfe57612cfd61213d565b5b612d0a8882890161267c565b9150509295509295909350565b7f4e487b7100000000000000000000000000000000000000000000000000000000600052602260045260246000fd5b60006002820490506001821680612d5e57607f821691505b602082108103612d7157612d70612d17565b5b50919050565b6000604082019050612d8c6000830185612341565b612d996020830184612341565b9392505050565b7f5370616365206973206e6f7420617661696c61626c6500000000000000000000600082015250565b6000612dd6601683612406565b9150612de182612da0565b602082019050919050565b60006020820190508181036000830152612e0581612dc9565b9050919050565b7f496e73756666696369656e74207061796d656e74000000000000000000000000600082015250565b6000612e42601483612406565b9150612e4d82612e0c565b602082019050919050565b60006020820190508181036000830152612e7181612e35565b9050919050565b6000604082019050612e8d6000830185612216565b612e9a6020830184612216565b9392505050565b7f4e487b7100000000000000000000000000000000000000000000000000000000600052603260045260246000fd5b7f4e487b7100000000000000000000000000000000000000000000000000000000600052601160045260246000fd5b6000612f0a826121a0565b91507fffffffffffffffffffffffffffffffffffffffffffffffffffffffffffffffff8203612f3c57612f3b612ed0565b5b600182019050919050565b6000612f52826121a0565b9150612f5d836121a0565b9250828201905080821115612f7557612f74612ed0565b5b92915050565b6000612f86826121a0565b9150612f91836121a0565b9250828202612f9f816121a0565b91508282048414831517612fb657612fb5612ed0565b5b5092915050565b6000604082019050612fd26000830185612332565b612fdf6020830184612216565b9392505050565b6000608082019050612ffb6000830187612341565b6130086020830186612216565b6130156040830185612216565b6130226060830184612216565b95945050505050565b600060408201905081810360008301526130458185612914565b905081810360208301526130598184612914565b90509392505050565b600081519050919050565b600082825260208201905092915050565b600061308982613062565b613093818561306d565b93506130a3818560208601612417565b6130ac81612441565b840191505092915050565b600060a0820190506130cc6000830188612341565b6130d96020830187612341565b6130e66040830186612216565b6130f36060830185612216565b8181036080830152613105818461307e565b90509695505050505050565b6000815190506131208161226c565b92915050565b60006020828403121561313c5761313b612138565b5b600061314a84828501613111565b91505092915050565b600060a0820190506131686000830188612341565b6131756020830187612341565b81810360408301526131878186612914565b9050818103606083015261319b8185612914565b905081810360808301526131af818461307e565b9050969550505050505056fea26469706673582212201cc2b21f1c7d9f9b5a74617c7a2e1396e735ee27517deae42099cbff53d7d92f64736f6c63430008140033",
  "linkReferences": {},
  "deployedLinkReferences": {}
}