{
  "_format": "hh-sol-artifact-1",
  "contractName": "ShipmentTracking",
  "sourceName": "contracts/ShipmentTracking.sol",
  "abi": [
    {
      "inputs": [],
      "stateMutability": "nonpayable",
      "type": "constructor"
    },
    {
      "anonymous": false,
      "inputs": [
        {
          "indexed": true,
          "internalType": "string",
          "name": "shipmentId",
          "type": "string"
        },
        {
          "indexed": false,
          "internalType": "uint256",
          "name": "latitude",
          "type": "uint256"
        },
        {
          "indexed": false,
          "internalType": "uint256",
          "name": "longitude",
          "type": "uint256"
        },
        {
          "indexed": false,
          "internalType": "uint256",
          "name": "timestamp",
          "type": "uint256"
        }
      ],
      "name": "LocationUpdated",
      "type": "event"
    },
    {
      "inputs": [
        {
          "internalType": "string",
          "name": "shipmentId",
          "type": "string"
        },
        {
          "internalType": "address",
          "name": "courier",
          "type": "address"
        }
      ],
      "name": "createShipment",
      "outputs": [],
      "stateMutability": "nonpayable",
      "type": "function"
    },
    {
      "inputs": [
        {
          "internalType": "string",
          "name": "shipmentId",
          "type": "string"
        }
      ],
      "name": "deactivateShipment",
      "outputs": [],
      "stateMutability": "nonpayable",
      "type": "function"
    },
    {
      "inputs": [
        {
          "internalType": "string",
          "name": "shipmentId",
          "type": "string"
        }
      ],
      "name": "getShipmentLocation",
      "outputs": [
        {
          "internalType": "uint256",
          "name": "latitude",
          "type": "uint256"
        },
        {
          "internalType": "uint256",
          "name": "longitude",
          "type": "uint256"
        },
        {
          "internalType": "uint256",
          "name": "timestamp",
          "type": "uint256"
        }
      ],
      "stateMutability": "view",
      "type": "function"
    },
    {
      "inputs": [],
      "name": "owner",
      "outputs": [
        {
          "internalType": "address",
          "name": "",
          "type": "address"
        }
      ],
      "stateMutability": "view",
      "type": "function"
    },
    {
      "inputs": [
        {
          "internalType": "string",
          "name": "",
          "type": "string"
        }
      ],
      "name": "shipments",
      "outputs": [
        {
          "internalType": "string",
          "name": "id",
          "type": "string"
        },
        {
          "internalType": "address",
          "name": "courier",
          "type": "address"
        },
        {
          "components": [
            {
              "internalType": "uint256",
              "name": "latitude",
              "type": "uint256"
            },
            {
              "internalType": "uint256",
              "name": "longitude",
              "type": "uint256"
            },
            {
              "internalType": "uint256",
              "name": "timestamp",
              "type": "uint256"
            }
          ],
          "internalType": "struct ShipmentTracking.Location",
          "name": "currentLocation",
          "type": "tuple"
        },
        {
          "internalType": "bool",
          "name": "isActive",
          "type": "bool"
        }
      ],
      "stateMutability": "view",
      "type": "function"
    },
    {
      "inputs": [
        {
          "internalType": "string",
          "name": "shipmentId",
          "type": "string"
        },
        {
          "internalType": "uint256",
          "name": "latitude",
          "type": "uint256"
        },
        {
          "internalType": "uint256",
          "name": "longitude",
          "type": "uint256"
        }
      ],
      "name": "updateLocation",
      "outputs": [],
      "stateMutability": "nonpayable",
      "type": "function"
    }
  ],
  "bytecode": "0x608060405234801561001057600080fd5b5033600160006101000a81548173ffffffffffffffffffffffffffffffffffffffff021916908373ffffffffffffffffffffffffffffffffffffffff1602179055506110e0806100616000396000f3fe608060405234801561001057600080fd5b50600436106100625760003560e01c80634061605d146100675780634c6be01c146100995780635ceaef5b146100b55780638da5cb5b146100e857806394b4a21914610106578063e611c3d514610122575b600080fd5b610081600480360381019061007c9190610a2a565b61013e565b60405161009093929190610e92565b60405180910390f35b6100b360048036038101906100ae9190610abf565b61021a565b005b6100cf60048036038101906100ca9190610a2a565b61044a565b6040516100df9493929190610da6565b60405180910390f35b6100f061056d565b6040516100fd9190610d8b565b60405180910390f35b610120600480360381019061011b9190610a6b565b610593565b005b61013c60048036038101906101379190610a2a565b6107bb565b005b600080600080846040516101529190610d74565b908152602001604051809103902060050160009054906101000a900460ff166101b0576040517f08c379a00000000000000000000000000000000000000000000000000000000081526004016101a790610e32565b60405180910390fd5b600080856040516101c19190610d74565b908152602001604051809103902060020160405180606001604052908160008201548152602001600182015481526020016002820154815250509050806000015181602001518260400151935093509350509193909250565b82600160009054906101000a900473ffffffffffffffffffffffffffffffffffffffff1673ffffffffffffffffffffffffffffffffffffffff163373ffffffffffffffffffffffffffffffffffffffff1614806102e357506000816040516102829190610d74565b908152602001604051809103902060010160009054906101000a900473ffffffffffffffffffffffffffffffffffffffff1673ffffffffffffffffffffffffffffffffffffffff163373ffffffffffffffffffffffffffffffffffffffff16145b610322576040517f08c379a000000000000000000000000000000000000000000000000000000000815260040161031990610e72565b60405180910390fd5b6000846040516103329190610d74565b908152602001604051809103902060050160009054906101000a900460ff16610390576040517f08c379a000000000000000000000000000000000000000000000000000000000815260040161038790610df2565b60405180910390fd5b60006040518060600160405280858152602001848152602001428152509050806000866040516103c09190610d74565b9081526020016040518091039020600201600082015181600001556020820151816001015560408201518160020155905050846040516104009190610d74565b60405180910390207fc218617dc546d5d529c480f60a0ca40d6d5fbd683628f47d08619e58f2a1507085854260405161043b93929190610e92565b60405180910390a25050505050565b60008180516020810182018051848252602083016020850120818352809550505050505060009150905080600001805461048390610fdb565b80601f01602080910402602001604051908101604052809291908181526020018280546104af90610fdb565b80156104fc5780601f106104d1576101008083540402835291602001916104fc565b820191906000526020600020905b8154815290600101906020018083116104df57829003601f168201915b5050505050908060010160009054906101000a900473ffffffffffffffffffffffffffffffffffffffff1690806002016040518060600160405290816000820154815260200160018201548152602001600282015481525050908060050160009054906101000a900460ff16905084565b600160009054906101000a900473ffffffffffffffffffffffffffffffffffffffff1681565b600160009054906101000a900473ffffffffffffffffffffffffffffffffffffffff1673ffffffffffffffffffffffffffffffffffffffff163373ffffffffffffffffffffffffffffffffffffffff1614610623576040517f08c379a000000000000000000000000000000000000000000000000000000000815260040161061a90610e52565b60405180910390fd5b6000826040516106339190610d74565b908152602001604051809103902060050160009054906101000a900460ff1615610692576040517f08c379a000000000000000000000000000000000000000000000000000000000815260040161068990610e12565b60405180910390fd5b60405180608001604052808381526020018273ffffffffffffffffffffffffffffffffffffffff1681526020016040518060600160405280600081526020016000815260200160008152508152602001600115158152506000836040516106f99190610d74565b908152602001604051809103902060008201518160000190805190602001906107239291906108f5565b5060208201518160010160006101000a81548173ffffffffffffffffffffffffffffffffffffffff021916908373ffffffffffffffffffffffffffffffffffffffff160217905550604082015181600201600082015181600001556020820151816001015560408201518160020155505060608201518160050160006101000a81548160ff0219169083151502179055509050505050565b600160009054906101000a900473ffffffffffffffffffffffffffffffffffffffff1673ffffffffffffffffffffffffffffffffffffffff163373ffffffffffffffffffffffffffffffffffffffff161461084b576040517f08c379a000000000000000000000000000000000000000000000000000000000815260040161084290610e52565b60405180910390fd5b60008160405161085b9190610d74565b908152602001604051809103902060050160009054906101000a900460ff166108b9576040517f08c379a00000000000000000000000000000000000000000000000000000000081526004016108b090610df2565b60405180910390fd5b600080826040516108ca9190610d74565b908152602001604051809103902060050160006101000a81548160ff02191690831515021790555050565b82805461090190610fdb565b90600052602060002090601f016020900481019282610923576000855561096a565b82601f1061093c57805160ff191683800117855561096a565b8280016001018555821561096a579182015b8281111561096957825182559160200191906001019061094e565b5b509050610977919061097b565b5090565b5b8082111561099457600081600090555060010161097c565b5090565b60006109ab6109a684610efa565b610ec9565b9050828152602081018484840111156109c357600080fd5b6109ce848285610f99565b509392505050565b6000813590506109e58161107c565b92915050565b600082601f8301126109fc57600080fd5b8135610a0c848260208601610998565b91505092915050565b600081359050610a2481611093565b92915050565b600060208284031215610a3c57600080fd5b600082013567ffffffffffffffff811115610a5657600080fd5b610a62848285016109eb565b91505092915050565b60008060408385031215610a7e57600080fd5b600083013567ffffffffffffffff811115610a9857600080fd5b610aa4858286016109eb565b9250506020610ab5858286016109d6565b9150509250929050565b600080600060608486031215610ad457600080fd5b600084013567ffffffffffffffff811115610aee57600080fd5b610afa868287016109eb565b9350506020610b0b86828701610a15565b9250506040610b1c86828701610a15565b9150509250925092565b610b2f81610f51565b82525050565b610b3e81610f63565b82525050565b6000610b4f82610f2a565b610b598185610f35565b9350610b69818560208601610fa8565b610b728161106b565b840191505092915050565b6000610b8882610f2a565b610b928185610f46565b9350610ba2818560208601610fa8565b80840191505092915050565b6000610bbb601383610f35565b91507f536869706d656e74206e6f7420616374697665000000000000000000000000006000830152602082019050919050565b6000610bfb601783610f35565b91507f536869706d656e7420616c7265616479206578697374730000000000000000006000830152602082019050919050565b6000610c3b601283610f35565b91507f536869706d656e74206e6f7420666f756e6400000000000000000000000000006000830152602082019050919050565b6000610c7b602283610f35565b91507f4f6e6c79206f776e65722063616e20706572666f726d2074686973206163746960008301527f6f6e0000000000000000000000000000000000000000000000000000000000006020830152604082019050919050565b6000610ce1600e83610f35565b91507f4e6f7420617574686f72697a65640000000000000000000000000000000000006000830152602082019050919050565b606082016000820151610d2a6000850182610d56565b506020820151610d3d6020850182610d56565b506040820151610d506040850182610d56565b50505050565b610d5f81610f8f565b82525050565b610d6e81610f8f565b82525050565b6000610d808284610b7d565b915081905092915050565b6000602082019050610da06000830184610b26565b92915050565b600060c0820190508181036000830152610dc08187610b44565b9050610dcf6020830186610b26565b610ddc6040830185610d14565b610de960a0830184610b35565b95945050505050565b60006020820190508181036000830152610e0b81610bae565b9050919050565b60006020820190508181036000830152610e2b81610bee565b9050919050565b60006020820190508181036000830152610e4b81610c2e565b9050919050565b60006020820190508181036000830152610e6b81610c6e565b9050919050565b60006020820190508181036000830152610e8b81610cd4565b9050919050565b6000606082019050610ea76000830186610d65565b610eb46020830185610d65565b610ec16040830184610d65565b949350505050565b6000604051905081810181811067ffffffffffffffff82111715610ef057610eef61103c565b5b8060405250919050565b600067ffffffffffffffff821115610f1557610f1461103c565b5b601f19601f8301169050602081019050919050565b600081519050919050565b600082825260208201905092915050565b600081905092915050565b6000610f5c82610f6f565b9050919050565b60008115159050919050565b600073ffffffffffffffffffffffffffffffffffffffff82169050919050565b6000819050919050565b82818337600083830152505050565b60005b83811015610fc6578082015181840152602081019050610fab565b83811115610fd5576000848401525b50505050565b60006002820490506001821680610ff357607f821691505b602082108114156110075761100661100d565b5b50919050565b7f4e487b7100000000000000000000000000000000000000000000000000000000600052602260045260246000fd5b7f4e487b7100000000000000000000000000000000000000000000000000000000600052604160045260246000fd5b6000601f19601f8301169050919050565b61108581610f51565b811461109057600080fd5b50565b61109c81610f8f565b81146110a757600080fd5b5056fea2646970667358221220964408203a576dc8cbbe36dfb2be13ef51617ce0a090d6ac04a380c41428d5a264736f6c63430008000033",
  "linkReferences": {},
  "deployedLinkReferences": {}
}