{"contracts/LogisticsRegistry.sol":{"LogisticsRegistry":{"abi":[{"inputs":[],"stateMutability":"nonpayable","type":"constructor"},{"anonymous":false,"inputs":[{"indexed":false,"internalType":"uint256","name":"companyId","type":"uint256"},{"indexed":false,"internalType":"uint8","name":"newStatus","type":"uint8"}],"name":"CompanyStatusChanged","type":"event"},{"inputs":[{"internalType":"string","name":"_name","type":"string"},{"internalType":"address","name":"_walletAddress","type":"address"}],"name":"addCompany","outputs":[],"stateMutability":"nonpayable","type":"function"},{"inputs":[{"internalType":"uint256","name":"_companyId","type":"uint256"}],"name":"approveCompany","outputs":[],"stateMutability":"nonpayable","type":"function"},{"inputs":[{"internalType":"uint256","name":"","type":"uint256"}],"name":"companies","outputs":[{"internalType":"string","name":"name","type":"string"},{"internalType":"uint8","name":"status","type":"uint8"},{"internalType":"uint256","name":"applications","type":"uint256"},{"internalType":"address","name":"walletAddress","type":"address"}],"stateMutability":"view","type":"function"},{"inputs":[],"name":"getCompaniesCount","outputs":[{"internalType":"uint256","name":"","type":"uint256"}],"stateMutability":"view","type":"function"},{"inputs":[],"name":"owner","outputs":[{"internalType":"address","name":"","type":"address"}],"stateMutability":"view","type":"function"},{"inputs":[{"internalType":"uint256","name":"_companyId","type":"uint256"}],"name":"rejectCompany","outputs":[],"stateMutability":"nonpayable","type":"function"}],"evm":{"bytecode":{"linkReferences":{},"object":"608060405234801561001057600080fd5b5033600160006101000a81548173ffffffffffffffffffffffffffffffffffffffff021916908373ffffffffffffffffffffffffffffffffffffffff160217905550610ea7806100616000396000f3fe608060405234801561001057600080fd5b50600436106100625760003560e01c80632813d19d1461006757806338f032691461009a5780635ca8135a146100b65780638da5cb5b146100d2578063ccb0a334146100f0578063fc4a74421461010e575b600080fd5b610081600480360381019061007c9190610636565b61012a565b604051610091949392919061075f565b60405180910390f35b6100b460048036038101906100af919061090c565b61021f565b005b6100d060048036038101906100cb9190610636565b610314565b005b6100da610467565b6040516100e79190610968565b60405180910390f35b6100f861048d565b6040516101059190610983565b60405180910390f35b61012860048036038101906101239190610636565b610499565b005b6000818154811061013a57600080fd5b906000526020600020906004020160009150905080600001805461015d906109cd565b80601f0160208091040260200160405190810160405280929190818152602001828054610189906109cd565b80156101d65780601f106101ab576101008083540402835291602001916101d6565b820191906000526020600020905b8154815290600101906020018083116101b957829003601f168201915b5050505050908060010160009054906101000a900460ff16908060020154908060030160009054906101000a900473ffffffffffffffffffffffffffffffffffffffff16905084565b60006040518060800160405280848152602001600060ff168152602001600081526020018373ffffffffffffffffffffffffffffffffffffffff168152509080600181540180825580915050600190039060005260206000209060040201600090919091909150600082015181600001908161029b9190610baa565b5060208201518160010160006101000a81548160ff021916908360ff1602179055506040820151816002015560608201518160030160006101000a81548173ffffffffffffffffffffffffffffffffffffffff021916908373ffffffffffffffffffffffffffffffffffffffff16021790555050505050565b600160009054906101000a900473ffffffffffffffffffffffffffffffffffffffff1673ffffffffffffffffffffffffffffffffffffffff163373ffffffffffffffffffffffffffffffffffffffff16146103a4576040517f08c379a000000000000000000000000000000000000000000000000000000000815260040161039b90610cee565b60405180910390fd5b60008054905081106103eb576040517f08c379a00000000000000000000000000000000000000000000000000000000081526004016103e290610d5a565b60405180910390fd5b60026000828154811061040157610400610d7a565b5b906000526020600020906004020160010160006101000a81548160ff021916908360ff1602179055507f52e678fe02dc9e7eb419188513983e4f05a4b4e48a6a43d26b35393eb1a80a1e81600260405161045c929190610de4565b60405180910390a150565b600160009054906101000a900473ffffffffffffffffffffffffffffffffffffffff1681565b60008080549050905090565b600160009054906101000a900473ffffffffffffffffffffffffffffffffffffffff1673ffffffffffffffffffffffffffffffffffffffff163373ffffffffffffffffffffffffffffffffffffffff1614610529576040517f08c379a000000000000000000000000000000000000000000000000000000000815260040161052090610cee565b60405180910390fd5b6000805490508110610570576040517f08c379a000000000000000000000000000000000000000000000000000000000815260040161056790610d5a565b60405180910390fd5b60016000828154811061058657610585610d7a565b5b906000526020600020906004020160010160006101000a81548160ff021916908360ff1602179055507f52e678fe02dc9e7eb419188513983e4f05a4b4e48a6a43d26b35393eb1a80a1e8160016040516105e1929190610e48565b60405180910390a150565b6000604051905090565b600080fd5b600080fd5b6000819050919050565b61061381610600565b811461061e57600080fd5b50565b6000813590506106308161060a565b92915050565b60006020828403121561064c5761064b6105f6565b5b600061065a84828501610621565b91505092915050565b600081519050919050565b600082825260208201905092915050565b60005b8381101561069d578082015181840152602081019050610682565b60008484015250505050565b6000601f19601f8301169050919050565b60006106c582610663565b6106cf818561066e565b93506106df81856020860161067f565b6106e8816106a9565b840191505092915050565b600060ff82169050919050565b610709816106f3565b82525050565b61071881610600565b82525050565b600073ffffffffffffffffffffffffffffffffffffffff82169050919050565b60006107498261071e565b9050919050565b6107598161073e565b82525050565b6000608082019050818103600083015261077981876106ba565b90506107886020830186610700565b610795604083018561070f565b6107a26060830184610750565b95945050505050565b600080fd5b600080fd5b7f4e487b7100000000000000000000000000000000000000000000000000000000600052604160045260246000fd5b6107ed826106a9565b810181811067ffffffffffffffff8211171561080c5761080b6107b5565b5b80604052505050565b600061081f6105ec565b905061082b82826107e4565b919050565b600067ffffffffffffffff82111561084b5761084a6107b5565b5b610854826106a9565b9050602081019050919050565b82818337600083830152505050565b600061088361087e84610830565b610815565b90508281526020810184848401111561089f5761089e6107b0565b5b6108aa848285610861565b509392505050565b600082601f8301126108c7576108c66107ab565b5b81356108d7848260208601610870565b91505092915050565b6108e98161073e565b81146108f457600080fd5b50565b600081359050610906816108e0565b92915050565b60008060408385031215610923576109226105f6565b5b600083013567ffffffffffffffff811115610941576109406105fb565b5b61094d858286016108b2565b925050602061095e858286016108f7565b9150509250929050565b600060208201905061097d6000830184610750565b92915050565b6000602082019050610998600083018461070f565b92915050565b7f4e487b7100000000000000000000000000000000000000000000000000000000600052602260045260246000fd5b600060028204905060018216806109e557607f821691505b6020821081036109f8576109f761099e565b5b50919050565b60008190508160005260206000209050919050565b60006020601f8301049050919050565b600082821b905092915050565b600060088302610a607fffffffffffffffffffffffffffffffffffffffffffffffffffffffffffffffff82610a23565b610a6a8683610a23565b95508019841693508086168417925050509392505050565b6000819050919050565b6000610aa7610aa2610a9d84610600565b610a82565b610600565b9050919050565b6000819050919050565b610ac183610a8c565b610ad5610acd82610aae565b848454610a30565b825550505050565b600090565b610aea610add565b610af5818484610ab8565b505050565b5b81811015610b1957610b0e600082610ae2565b600181019050610afb565b5050565b601f821115610b5e57610b2f816109fe565b610b3884610a13565b81016020851015610b47578190505b610b5b610b5385610a13565b830182610afa565b50505b505050565b600082821c905092915050565b6000610b8160001984600802610b63565b1980831691505092915050565b6000610b9a8383610b70565b9150826002028217905092915050565b610bb382610663565b67ffffffffffffffff811115610bcc57610bcb6107b5565b5b610bd682546109cd565b610be1828285610b1d565b600060209050601f831160018114610c145760008415610c02578287015190505b610c0c8582610b8e565b865550610c74565b601f198416610c22866109fe565b60005b82811015610c4a57848901518255600182019150602085019450602081019050610c25565b86831015610c675784890151610c63601f891682610b70565b8355505b6001600288020188555050505b505050505050565b7f4f6e6c79206f776e65722063616e20706572666f726d2074686973206163746960008201527f6f6e000000000000000000000000000000000000000000000000000000000000602082015250565b6000610cd860228361066e565b9150610ce382610c7c565b604082019050919050565b60006020820190508181036000830152610d0781610ccb565b9050919050565b7f436f6d70616e7920646f6573206e6f7420657869737400000000000000000000600082015250565b6000610d4460168361066e565b9150610d4f82610d0e565b602082019050919050565b60006020820190508181036000830152610d7381610d37565b9050919050565b7f4e487b7100000000000000000000000000000000000000000000000000000000600052603260045260246000fd5b6000819050919050565b6000610dce610dc9610dc484610da9565b610a82565b6106f3565b9050919050565b610dde81610db3565b82525050565b6000604082019050610df9600083018561070f565b610e066020830184610dd5565b9392505050565b6000819050919050565b6000610e32610e2d610e2884610e0d565b610a82565b6106f3565b9050919050565b610e4281610e17565b82525050565b6000604082019050610e5d600083018561070f565b610e6a6020830184610e39565b939250505056fea26469706673582212207d544ae9f5ba9f38d8c83679088661b3af70f2df22747de7eac12c0cd9e4875264736f6c63430008140033","opcodes":"PUSH1 0x80 PUSH1 0x40 MSTORE CALLVALUE DUP1 ISZERO PUSH2 0x10 JUMPI PUSH1 0x0 DUP1 REVERT JUMPDEST POP CALLER PUSH1 0x1 PUSH1 0x0 PUSH2 0x100 EXP DUP2 SLOAD DUP2 PUSH20 0xFFFFFFFFFFFFFFFFFFFFFFFFFFFFFFFFFFFFFFFF MUL NOT AND SWAP1 DUP4 PUSH20 0xFFFFFFFFFFFFFFFFFFFFFFFFFFFFFFFFFFFFFFFF AND MUL OR SWAP1 SSTORE POP PUSH2 0xEA7 DUP1 PUSH2 0x61 PUSH1 0x0 CODECOPY PUSH1 0x0 RETURN INVALID PUSH1 0x80 PUSH1 0x40 MSTORE CALLVALUE DUP1 ISZERO PUSH2 0x10 JUMPI PUSH1 0x0 DUP1 REVERT JUMPDEST POP PUSH1 0x4 CALLDATASIZE LT PUSH2 0x62 JUMPI PUSH1 0x0 CALLDATALOAD PUSH1 0xE0 SHR DUP1 PUSH4 0x2813D19D EQ PUSH2 0x67 JUMPI DUP1 PUSH4 0x38F03269 EQ PUSH2 0x9A JUMPI DUP1 PUSH4 0x5CA8135A EQ PUSH2 0xB6 JUMPI DUP1 PUSH4 0x8DA5CB5B EQ PUSH2 0xD2 JUMPI DUP1 PUSH4 0xCCB0A334 EQ PUSH2 0xF0 JUMPI DUP1 PUSH4 0xFC4A7442 EQ PUSH2 0x10E JUMPI JUMPDEST PUSH1 0x0 DUP1 REVERT JUMPDEST PUSH2 0x81 PUSH1 0x4 DUP1 CALLDATASIZE SUB DUP2 ADD SWAP1 PUSH2 0x7C SWAP2 SWAP1 PUSH2 0x636 JUMP JUMPDEST PUSH2 0x12A JUMP JUMPDEST PUSH1 0x40 MLOAD PUSH2 0x91 SWAP5 SWAP4 SWAP3 SWAP2 SWAP1 PUSH2 0x75F JUMP JUMPDEST PUSH1 0x40 MLOAD DUP1 SWAP2 SUB SWAP1 RETURN JUMPDEST PUSH2 0xB4 PUSH1 0x4 DUP1 CALLDATASIZE SUB DUP2 ADD SWAP1 PUSH2 0xAF SWAP2 SWAP1 PUSH2 0x90C JUMP JUMPDEST PUSH2 0x21F JUMP JUMPDEST STOP JUMPDEST PUSH2 0xD0 PUSH1 0x4 DUP1 CALLDATASIZE SUB DUP2 ADD SWAP1 PUSH2 0xCB SWAP2 SWAP1 PUSH2 0x636 JUMP JUMPDEST PUSH2 0x314 JUMP JUMPDEST STOP JUMPDEST PUSH2 0xDA PUSH2 0x467 JUMP JUMPDEST PUSH1 0x40 MLOAD PUSH2 0xE7 SWAP2 SWAP1 PUSH2 0x968 JUMP JUMPDEST PUSH1 0x40 MLOAD DUP1 SWAP2 SUB SWAP1 RETURN JUMPDEST PUSH2 0xF8 PUSH2 0x48D JUMP JUMPDEST PUSH1 0x40 MLOAD PUSH2 0x105 SWAP2 SWAP1 PUSH2 0x983 JUMP JUMPDEST PUSH1 0x40 MLOAD DUP1 SWAP2 SUB SWAP1 RETURN JUMPDEST PUSH2 0x128 PUSH1 0x4 DUP1 CALLDATASIZE SUB DUP2 ADD SWAP1 PUSH2 0x123 SWAP2 SWAP1 PUSH2 0x636 JUMP JUMPDEST PUSH2 0x499 JUMP JUMPDEST STOP JUMPDEST PUSH1 0x0 DUP2 DUP2 SLOAD DUP2 LT PUSH2 0x13A JUMPI PUSH1 0x0 DUP1 REVERT JUMPDEST SWAP1 PUSH1 0x0 MSTORE PUSH1 0x20 PUSH1 0x0 KECCAK256 SWAP1 PUSH1 0x4 MUL ADD PUSH1 0x0 SWAP2 POP SWAP1 POP DUP1 PUSH1 0x0 ADD DUP1 SLOAD PUSH2 0x15D SWAP1 PUSH2 0x9CD JUMP JUMPDEST DUP1 PUSH1 0x1F ADD PUSH1 0x20 DUP1 SWAP2 DIV MUL PUSH1 0x20 ADD PUSH1 0x40 MLOAD SWAP1 DUP2 ADD PUSH1 0x40 MSTORE DUP1 SWAP3 SWAP2 SWAP1 DUP2 DUP2 MSTORE PUSH1 0x20 ADD DUP3 DUP1 SLOAD PUSH2 0x189 SWAP1 PUSH2 0x9CD JUMP JUMPDEST DUP1 ISZERO PUSH2 0x1D6 JUMPI DUP1 PUSH1 0x1F LT PUSH2 0x1AB JUMPI PUSH2 0x100 DUP1 DUP4 SLOAD DIV MUL DUP4 MSTORE SWAP2 PUSH1 0x20 ADD SWAP2 PUSH2 0x1D6 JUMP JUMPDEST DUP3 ADD SWAP2 SWAP1 PUSH1 0x0 MSTORE PUSH1 0x20 PUSH1 0x0 KECCAK256 SWAP1 JUMPDEST DUP2 SLOAD DUP2 MSTORE SWAP1 PUSH1 0x1 ADD SWAP1 PUSH1 0x20 ADD DUP1 DUP4 GT PUSH2 0x1B9 JUMPI DUP3 SWAP1 SUB PUSH1 0x1F AND DUP3 ADD SWAP2 JUMPDEST POP POP POP POP POP SWAP1 DUP1 PUSH1 0x1 ADD PUSH1 0x0 SWAP1 SLOAD SWAP1 PUSH2 0x100 EXP SWAP1 DIV PUSH1 0xFF AND SWAP1 DUP1 PUSH1 0x2 ADD SLOAD SWAP1 DUP1 PUSH1 0x3 ADD PUSH1 0x0 SWAP1 SLOAD SWAP1 PUSH2 0x100 EXP SWAP1 DIV PUSH20 0xFFFFFFFFFFFFFFFFFFFFFFFFFFFFFFFFFFFFFFFF AND SWAP1 POP DUP5 JUMP JUMPDEST PUSH1 0x0 PUSH1 0x40 MLOAD DUP1 PUSH1 0x80 ADD PUSH1 0x40 MSTORE DUP1 DUP5 DUP2 MSTORE PUSH1 0x20 ADD PUSH1 0x0 PUSH1 0xFF AND DUP2 MSTORE PUSH1 0x20 ADD PUSH1 0x0 DUP2 MSTORE PUSH1 0x20 ADD DUP4 PUSH20 0xFFFFFFFFFFFFFFFFFFFFFFFFFFFFFFFFFFFFFFFF AND DUP2 MSTORE POP SWAP1 DUP1 PUSH1 0x1 DUP2 SLOAD ADD DUP1 DUP3 SSTORE DUP1 SWAP2 POP POP PUSH1 0x1 SWAP1 SUB SWAP1 PUSH1 0x0 MSTORE PUSH1 0x20 PUSH1 0x0 KECCAK256 SWAP1 PUSH1 0x4 MUL ADD PUSH1 0x0 SWAP1 SWAP2 SWAP1 SWAP2 SWAP1 SWAP2 POP PUSH1 0x0 DUP3 ADD MLOAD DUP2 PUSH1 0x0 ADD SWAP1 DUP2 PUSH2 0x29B SWAP2 SWAP1 PUSH2 0xBAA JUMP JUMPDEST POP PUSH1 0x20 DUP3 ADD MLOAD DUP2 PUSH1 0x1 ADD PUSH1 0x0 PUSH2 0x100 EXP DUP2 SLOAD DUP2 PUSH1 0xFF MUL NOT AND SWAP1 DUP4 PUSH1 0xFF AND MUL OR SWAP1 SSTORE POP PUSH1 0x40 DUP3 ADD MLOAD DUP2 PUSH1 0x2 ADD SSTORE PUSH1 0x60 DUP3 ADD MLOAD DUP2 PUSH1 0x3 ADD PUSH1 0x0 PUSH2 0x100 EXP DUP2 SLOAD DUP2 PUSH20 0xFFFFFFFFFFFFFFFFFFFFFFFFFFFFFFFFFFFFFFFF MUL NOT AND SWAP1 DUP4 PUSH20 0xFFFFFFFFFFFFFFFFFFFFFFFFFFFFFFFFFFFFFFFF AND MUL OR SWAP1 SSTORE POP POP POP POP POP JUMP JUMPDEST PUSH1 0x1 PUSH1 0x0 SWAP1 SLOAD SWAP1 PUSH2 0x100 EXP SWAP1 DIV PUSH20 0xFFFFFFFFFFFFFFFFFFFFFFFFFFFFFFFFFFFFFFFF AND PUSH20 0xFFFFFFFFFFFFFFFFFFFFFFFFFFFFFFFFFFFFFFFF AND CALLER PUSH20 0xFFFFFFFFFFFFFFFFFFFFFFFFFFFFFFFFFFFFFFFF AND EQ PUSH2 0x3A4 JUMPI PUSH1 0x40 MLOAD PUSH32 0x8C379A000000000000000000000000000000000000000000000000000000000 DUP2 MSTORE PUSH1 0x4 ADD PUSH2 0x39B SWAP1 PUSH2 0xCEE JUMP JUMPDEST PUSH1 0x40 MLOAD DUP1 SWAP2 SUB SWAP1 REVERT JUMPDEST PUSH1 0x0 DUP1 SLOAD SWAP1 POP DUP2 LT PUSH2 0x3EB JUMPI PUSH1 0x40 MLOAD PUSH32 0x8C379A000000000000000000000000000000000000000000000000000000000 DUP2 MSTORE PUSH1 0x4 ADD PUSH2 0x3E2 SWAP1 PUSH2 0xD5A JUMP JUMPDEST PUSH1 0x40 MLOAD DUP1 SWAP2 SUB SWAP1 REVERT JUMPDEST PUSH1 0x2 PUSH1 0x0 DUP3 DUP2 SLOAD DUP2 LT PUSH2 0x401 JUMPI PUSH2 0x400 PUSH2 0xD7A JUMP JUMPDEST JUMPDEST SWAP1 PUSH1 0x0 MSTORE PUSH1 0x20 PUSH1 0x0 KECCAK256 SWAP1 PUSH1 0x4 MUL ADD PUSH1 0x1 ADD PUSH1 0x0 PUSH2 0x100 EXP DUP2 SLOAD DUP2 PUSH1 0xFF MUL NOT AND SWAP1 DUP4 PUSH1 0xFF AND MUL OR SWAP1 SSTORE POP PUSH32 0x52E678FE02DC9E7EB419188513983E4F05A4B4E48A6A43D26B35393EB1A80A1E DUP2 PUSH1 0x2 PUSH1 0x40 MLOAD PUSH2 0x45C SWAP3 SWAP2 SWAP1 PUSH2 0xDE4 JUMP JUMPDEST PUSH1 0x40 MLOAD DUP1 SWAP2 SUB SWAP1 LOG1 POP JUMP JUMPDEST PUSH1 0x1 PUSH1 0x0 SWAP1 SLOAD SWAP1 PUSH2 0x100 EXP SWAP1 DIV PUSH20 0xFFFFFFFFFFFFFFFFFFFFFFFFFFFFFFFFFFFFFFFF AND DUP2 JUMP JUMPDEST PUSH1 0x0 DUP1 DUP1 SLOAD SWAP1 POP SWAP1 POP SWAP1 JUMP JUMPDEST PUSH1 0x1 PUSH1 0x0 SWAP1 SLOAD SWAP1 PUSH2 0x100 EXP SWAP1 DIV PUSH20 0xFFFFFFFFFFFFFFFFFFFFFFFFFFFFFFFFFFFFFFFF AND PUSH20 0xFFFFFFFFFFFFFFFFFFFFFFFFFFFFFFFFFFFFFFFF AND CALLER PUSH20 0xFFFFFFFFFFFFFFFFFFFFFFFFFFFFFFFFFFFFFFFF AND EQ PUSH2 0x529 JUMPI PUSH1 0x40 MLOAD PUSH32 0x8C379A000000000000000000000000000000000000000000000000000000000 DUP2 MSTORE PUSH1 0x4 ADD PUSH2 0x520 SWAP1 PUSH2 0xCEE JUMP JUMPDEST PUSH1 0x40 MLOAD DUP1 SWAP2 SUB SWAP1 REVERT JUMPDEST PUSH1 0x0 DUP1 SLOAD SWAP1 POP DUP2 LT PUSH2 0x570 JUMPI PUSH1 0x40 MLOAD PUSH32 0x8C379A000000000000000000000000000000000000000000000000000000000 DUP2 MSTORE PUSH1 0x4 ADD PUSH2 0x567 SWAP1 PUSH2 0xD5A JUMP JUMPDEST PUSH1 0x40 MLOAD DUP1 SWAP2 SUB SWAP1 REVERT JUMPDEST PUSH1 0x1 PUSH1 0x0 DUP3 DUP2 SLOAD DUP2 LT PUSH2 0x586 JUMPI PUSH2 0x585 PUSH2 0xD7A JUMP JUMPDEST JUMPDEST SWAP1 PUSH1 0x0 MSTORE PUSH1 0x20 PUSH1 0x0 KECCAK256 SWAP1 PUSH1 0x4 MUL ADD PUSH1 0x1 ADD PUSH1 0x0 PUSH2 0x100 EXP DUP2 SLOAD DUP2 PUSH1 0xFF MUL NOT AND SWAP1 DUP4 PUSH1 0xFF AND MUL OR SWAP1 SSTORE POP PUSH32 0x52E678FE02DC9E7EB419188513983E4F05A4B4E48A6A43D26B35393EB1A80A1E DUP2 PUSH1 0x1 PUSH1 0x40 MLOAD PUSH2 0x5E1 SWAP3 SWAP2 SWAP1 PUSH2 0xE48 JUMP JUMPDEST PUSH1 0x40 MLOAD DUP1 SWAP2 SUB SWAP1 LOG1 POP JUMP JUMPDEST PUSH1 0x0 PUSH1 0x40 MLOAD SWAP1 POP SWAP1 JUMP JUMPDEST PUSH1 0x0 DUP1 REVERT JUMPDEST PUSH1 0x0 DUP1 REVERT JUMPDEST PUSH1 0x0 DUP2 SWAP1 POP SWAP2 SWAP1 POP JUMP JUMPDEST PUSH2 0x613 DUP2 PUSH2 0x600 JUMP JUMPDEST DUP2 EQ PUSH2 0x61E JUMPI PUSH1 0x0 DUP1 REVERT JUMPDEST POP JUMP JUMPDEST PUSH1 0x0 DUP2 CALLDATALOAD SWAP1 POP PUSH2 0x630 DUP2 PUSH2 0x60A JUMP JUMPDEST SWAP3 SWAP2 POP POP JUMP JUMPDEST PUSH1 0x0 PUSH1 0x20 DUP3 DUP5 SUB SLT ISZERO PUSH2 0x64C JUMPI PUSH2 0x64B PUSH2 0x5F6 JUMP JUMPDEST JUMPDEST PUSH1 0x0 PUSH2 0x65A DUP5 DUP3 DUP6 ADD PUSH2 0x621 JUMP JUMPDEST SWAP2 POP POP SWAP3 SWAP2 POP POP JUMP JUMPDEST PUSH1 0x0 DUP2 MLOAD SWAP1 POP SWAP2 SWAP1 POP JUMP JUMPDEST PUSH1 0x0 DUP3 DUP3 MSTORE PUSH1 0x20 DUP3 ADD SWAP1 POP SWAP3 SWAP2 POP POP JUMP JUMPDEST PUSH1 0x0 JUMPDEST DUP4 DUP2 LT ISZERO PUSH2 0x69D JUMPI DUP1 DUP3 ADD MLOAD DUP2 DUP5 ADD MSTORE PUSH1 0x20 DUP2 ADD SWAP1 POP PUSH2 0x682 JUMP JUMPDEST PUSH1 0x0 DUP5 DUP5 ADD MSTORE POP POP POP POP JUMP JUMPDEST PUSH1 0x0 PUSH1 0x1F NOT PUSH1 0x1F DUP4 ADD AND SWAP1 POP SWAP2 SWAP1 POP JUMP JUMPDEST PUSH1 0x0 PUSH2 0x6C5 DUP3 PUSH2 0x663 JUMP JUMPDEST PUSH2 0x6CF DUP2 DUP6 PUSH2 0x66E JUMP JUMPDEST SWAP4 POP PUSH2 0x6DF DUP2 DUP6 PUSH1 0x20 DUP7 ADD PUSH2 0x67F JUMP JUMPDEST PUSH2 0x6E8 DUP2 PUSH2 0x6A9 JUMP JUMPDEST DUP5 ADD SWAP2 POP POP SWAP3 SWAP2 POP POP JUMP JUMPDEST PUSH1 0x0 PUSH1 0xFF DUP3 AND SWAP1 POP SWAP2 SWAP1 POP JUMP JUMPDEST PUSH2 0x709 DUP2 PUSH2 0x6F3 JUMP JUMPDEST DUP3 MSTORE POP POP JUMP JUMPDEST PUSH2 0x718 DUP2 PUSH2 0x600 JUMP JUMPDEST DUP3 MSTORE POP POP JUMP JUMPDEST PUSH1 0x0 PUSH20 0xFFFFFFFFFFFFFFFFFFFFFFFFFFFFFFFFFFFFFFFF DUP3 AND SWAP1 POP SWAP2 SWAP1 POP JUMP JUMPDEST PUSH1 0x0 PUSH2 0x749 DUP3 PUSH2 0x71E JUMP JUMPDEST SWAP1 POP SWAP2 SWAP1 POP JUMP JUMPDEST PUSH2 0x759 DUP2 PUSH2 0x73E JUMP JUMPDEST DUP3 MSTORE POP POP JUMP JUMPDEST PUSH1 0x0 PUSH1 0x80 DUP3 ADD SWAP1 POP DUP2 DUP2 SUB PUSH1 0x0 DUP4 ADD MSTORE PUSH2 0x779 DUP2 DUP8 PUSH2 0x6BA JUMP JUMPDEST SWAP1 POP PUSH2 0x788 PUSH1 0x20 DUP4 ADD DUP7 PUSH2 0x700 JUMP JUMPDEST PUSH2 0x795 PUSH1 0x40 DUP4 ADD DUP6 PUSH2 0x70F JUMP JUMPDEST PUSH2 0x7A2 PUSH1 0x60 DUP4 ADD DUP5 PUSH2 0x750 JUMP JUMPDEST SWAP6 SWAP5 POP POP POP POP POP JUMP JUMPDEST PUSH1 0x0 DUP1 REVERT JUMPDEST PUSH1 0x0 DUP1 REVERT JUMPDEST PUSH32 0x4E487B7100000000000000000000000000000000000000000000000000000000 PUSH1 0x0 MSTORE PUSH1 0x41 PUSH1 0x4 MSTORE PUSH1 0x24 PUSH1 0x0 REVERT JUMPDEST PUSH2 0x7ED DUP3 PUSH2 0x6A9 JUMP JUMPDEST DUP2 ADD DUP2 DUP2 LT PUSH8 0xFFFFFFFFFFFFFFFF DUP3 GT OR ISZERO PUSH2 0x80C JUMPI PUSH2 0x80B PUSH2 0x7B5 JUMP JUMPDEST JUMPDEST DUP1 PUSH1 0x40 MSTORE POP POP POP JUMP JUMPDEST PUSH1 0x0 PUSH2 0x81F PUSH2 0x5EC JUMP JUMPDEST SWAP1 POP PUSH2 0x82B DUP3 DUP3 PUSH2 0x7E4 JUMP JUMPDEST SWAP2 SWAP1 POP JUMP JUMPDEST PUSH1 0x0 PUSH8 0xFFFFFFFFFFFFFFFF DUP3 GT ISZERO PUSH2 0x84B JUMPI PUSH2 0x84A PUSH2 0x7B5 JUMP JUMPDEST JUMPDEST PUSH2 0x854 DUP3 PUSH2 0x6A9 JUMP JUMPDEST SWAP1 POP PUSH1 0x20 DUP2 ADD SWAP1 POP SWAP2 SWAP1 POP JUMP JUMPDEST DUP3 DUP2 DUP4 CALLDATACOPY PUSH1 0x0 DUP4 DUP4 ADD MSTORE POP POP POP JUMP JUMPDEST PUSH1 0x0 PUSH2 0x883 PUSH2 0x87E DUP5 PUSH2 0x830 JUMP JUMPDEST PUSH2 0x815 JUMP JUMPDEST SWAP1 POP DUP3 DUP2 MSTORE PUSH1 0x20 DUP2 ADD DUP5 DUP5 DUP5 ADD GT ISZERO PUSH2 0x89F JUMPI PUSH2 0x89E PUSH2 0x7B0 JUMP JUMPDEST JUMPDEST PUSH2 0x8AA DUP5 DUP3 DUP6 PUSH2 0x861 JUMP JUMPDEST POP SWAP4 SWAP3 POP POP POP JUMP JUMPDEST PUSH1 0x0 DUP3 PUSH1 0x1F DUP4 ADD SLT PUSH2 0x8C7 JUMPI PUSH2 0x8C6 PUSH2 0x7AB JUMP JUMPDEST JUMPDEST DUP2 CALLDATALOAD PUSH2 0x8D7 DUP5 DUP3 PUSH1 0x20 DUP7 ADD PUSH2 0x870 JUMP JUMPDEST SWAP2 POP POP SWAP3 SWAP2 POP POP JUMP JUMPDEST PUSH2 0x8E9 DUP2 PUSH2 0x73E JUMP JUMPDEST DUP2 EQ PUSH2 0x8F4 JUMPI PUSH1 0x0 DUP1 REVERT JUMPDEST POP JUMP JUMPDEST PUSH1 0x0 DUP2 CALLDATALOAD SWAP1 POP PUSH2 0x906 DUP2 PUSH2 0x8E0 JUMP JUMPDEST SWAP3 SWAP2 POP POP JUMP JUMPDEST PUSH1 0x0 DUP1 PUSH1 0x40 DUP4 DUP6 SUB SLT ISZERO PUSH2 0x923 JUMPI PUSH2 0x922 PUSH2 0x5F6 JUMP JUMPDEST JUMPDEST PUSH1 0x0 DUP4 ADD CALLDATALOAD PUSH8 0xFFFFFFFFFFFFFFFF DUP2 GT ISZERO PUSH2 0x941 JUMPI PUSH2 0x940 PUSH2 0x5FB JUMP JUMPDEST JUMPDEST PUSH2 0x94D DUP6 DUP3 DUP7 ADD PUSH2 0x8B2 JUMP JUMPDEST SWAP3 POP POP PUSH1 0x20 PUSH2 0x95E DUP6 DUP3 DUP7 ADD PUSH2 0x8F7 JUMP JUMPDEST SWAP2 POP POP SWAP3 POP SWAP3 SWAP1 POP JUMP JUMPDEST PUSH1 0x0 PUSH1 0x20 DUP3 ADD SWAP1 POP PUSH2 0x97D PUSH1 0x0 DUP4 ADD DUP5 PUSH2 0x750 JUMP JUMPDEST SWAP3 SWAP2 POP POP JUMP JUMPDEST PUSH1 0x0 PUSH1 0x20 DUP3 ADD SWAP1 POP PUSH2 0x998 PUSH1 0x0 DUP4 ADD DUP5 PUSH2 0x70F JUMP JUMPDEST SWAP3 SWAP2 POP POP JUMP JUMPDEST PUSH32 0x4E487B7100000000000000000000000000000000000000000000000000000000 PUSH1 0x0 MSTORE PUSH1 0x22 PUSH1 0x4 MSTORE PUSH1 0x24 PUSH1 0x0 REVERT JUMPDEST PUSH1 0x0 PUSH1 0x2 DUP3 DIV SWAP1 POP PUSH1 0x1 DUP3 AND DUP1 PUSH2 0x9E5 JUMPI PUSH1 0x7F DUP3 AND SWAP2 POP JUMPDEST PUSH1 0x20 DUP3 LT DUP2 SUB PUSH2 0x9F8 JUMPI PUSH2 0x9F7 PUSH2 0x99E JUMP JUMPDEST JUMPDEST POP SWAP2 SWAP1 POP JUMP JUMPDEST PUSH1 0x0 DUP2 SWAP1 POP DUP2 PUSH1 0x0 MSTORE PUSH1 0x20 PUSH1 0x0 KECCAK256 SWAP1 POP SWAP2 SWAP1 POP JUMP JUMPDEST PUSH1 0x0 PUSH1 0x20 PUSH1 0x1F DUP4 ADD DIV SWAP1 POP SWAP2 SWAP1 POP JUMP JUMPDEST PUSH1 0x0 DUP3 DUP3 SHL SWAP1 POP SWAP3 SWAP2 POP POP JUMP JUMPDEST PUSH1 0x0 PUSH1 0x8 DUP4 MUL PUSH2 0xA60 PUSH32 0xFFFFFFFFFFFFFFFFFFFFFFFFFFFFFFFFFFFFFFFFFFFFFFFFFFFFFFFFFFFFFFFF DUP3 PUSH2 0xA23 JUMP JUMPDEST PUSH2 0xA6A DUP7 DUP4 PUSH2 0xA23 JUMP JUMPDEST SWAP6 POP DUP1 NOT DUP5 AND SWAP4 POP DUP1 DUP7 AND DUP5 OR SWAP3 POP POP POP SWAP4 SWAP3 POP POP POP JUMP JUMPDEST PUSH1 0x0 DUP2 SWAP1 POP SWAP2 SWAP1 POP JUMP JUMPDEST PUSH1 0x0 PUSH2 0xAA7 PUSH2 0xAA2 PUSH2 0xA9D DUP5 PUSH2 0x600 JUMP JUMPDEST PUSH2 0xA82 JUMP JUMPDEST PUSH2 0x600 JUMP JUMPDEST SWAP1 POP SWAP2 SWAP1 POP JUMP JUMPDEST PUSH1 0x0 DUP2 SWAP1 POP SWAP2 SWAP1 POP JUMP JUMPDEST PUSH2 0xAC1 DUP4 PUSH2 0xA8C JUMP JUMPDEST PUSH2 0xAD5 PUSH2 0xACD DUP3 PUSH2 0xAAE JUMP JUMPDEST DUP5 DUP5 SLOAD PUSH2 0xA30 JUMP JUMPDEST DUP3 SSTORE POP POP POP POP JUMP JUMPDEST PUSH1 0x0 SWAP1 JUMP JUMPDEST PUSH2 0xAEA PUSH2 0xADD JUMP JUMPDEST PUSH2 0xAF5 DUP2 DUP5 DUP5 PUSH2 0xAB8 JUMP JUMPDEST POP POP POP JUMP JUMPDEST JUMPDEST DUP2 DUP2 LT ISZERO PUSH2 0xB19 JUMPI PUSH2 0xB0E PUSH1 0x0 DUP3 PUSH2 0xAE2 JUMP JUMPDEST PUSH1 0x1 DUP2 ADD SWAP1 POP PUSH2 0xAFB JUMP JUMPDEST POP POP JUMP JUMPDEST PUSH1 0x1F DUP3 GT ISZERO PUSH2 0xB5E JUMPI PUSH2 0xB2F DUP2 PUSH2 0x9FE JUMP JUMPDEST PUSH2 0xB38 DUP5 PUSH2 0xA13 JUMP JUMPDEST DUP2 ADD PUSH1 0x20 DUP6 LT ISZERO PUSH2 0xB47 JUMPI DUP2 SWAP1 POP JUMPDEST PUSH2 0xB5B PUSH2 0xB53 DUP6 PUSH2 0xA13 JUMP JUMPDEST DUP4 ADD DUP3 PUSH2 0xAFA JUMP JUMPDEST POP POP JUMPDEST POP POP POP JUMP JUMPDEST PUSH1 0x0 DUP3 DUP3 SHR SWAP1 POP SWAP3 SWAP2 POP POP JUMP JUMPDEST PUSH1 0x0 PUSH2 0xB81 PUSH1 0x0 NOT DUP5 PUSH1 0x8 MUL PUSH2 0xB63 JUMP JUMPDEST NOT DUP1 DUP4 AND SWAP2 POP POP SWAP3 SWAP2 POP POP JUMP JUMPDEST PUSH1 0x0 PUSH2 0xB9A DUP4 DUP4 PUSH2 0xB70 JUMP JUMPDEST SWAP2 POP DUP3 PUSH1 0x2 MUL DUP3 OR SWAP1 POP SWAP3 SWAP2 POP POP JUMP JUMPDEST PUSH2 0xBB3 DUP3 PUSH2 0x663 JUMP JUMPDEST PUSH8 0xFFFFFFFFFFFFFFFF DUP2 GT ISZERO PUSH2 0xBCC JUMPI PUSH2 0xBCB PUSH2 0x7B5 JUMP JUMPDEST JUMPDEST PUSH2 0xBD6 DUP3 SLOAD PUSH2 0x9CD JUMP JUMPDEST PUSH2 0xBE1 DUP3 DUP3 DUP6 PUSH2 0xB1D JUMP JUMPDEST PUSH1 0x0 PUSH1 0x20 SWAP1 POP PUSH1 0x1F DUP4 GT PUSH1 0x1 DUP2 EQ PUSH2 0xC14 JUMPI PUSH1 0x0 DUP5 ISZERO PUSH2 0xC02 JUMPI DUP3 DUP8 ADD MLOAD SWAP1 POP JUMPDEST PUSH2 0xC0C DUP6 DUP3 PUSH2 0xB8E JUMP JUMPDEST DUP7 SSTORE POP PUSH2 0xC74 JUMP JUMPDEST PUSH1 0x1F NOT DUP5 AND PUSH2 0xC22 DUP7 PUSH2 0x9FE JUMP JUMPDEST PUSH1 0x0 JUMPDEST DUP3 DUP2 LT ISZERO PUSH2 0xC4A JUMPI DUP5 DUP10 ADD MLOAD DUP3 SSTORE PUSH1 0x1 DUP3 ADD SWAP2 POP PUSH1 0x20 DUP6 ADD SWAP5 POP PUSH1 0x20 DUP2 ADD SWAP1 POP PUSH2 0xC25 JUMP JUMPDEST DUP7 DUP4 LT ISZERO PUSH2 0xC67 JUMPI DUP5 DUP10 ADD MLOAD PUSH2 0xC63 PUSH1 0x1F DUP10 AND DUP3 PUSH2 0xB70 JUMP JUMPDEST DUP4 SSTORE POP JUMPDEST PUSH1 0x1 PUSH1 0x2 DUP9 MUL ADD DUP9 SSTORE POP POP POP JUMPDEST POP POP POP POP POP POP JUMP JUMPDEST PUSH32 0x4F6E6C79206F776E65722063616E20706572666F726D20746869732061637469 PUSH1 0x0 DUP3 ADD MSTORE PUSH32 0x6F6E000000000000000000000000000000000000000000000000000000000000 PUSH1 0x20 DUP3 ADD MSTORE POP JUMP JUMPDEST PUSH1 0x0 PUSH2 0xCD8 PUSH1 0x22 DUP4 PUSH2 0x66E JUMP JUMPDEST SWAP2 POP PUSH2 0xCE3 DUP3 PUSH2 0xC7C JUMP JUMPDEST PUSH1 0x40 DUP3 ADD SWAP1 POP SWAP2 SWAP1 POP JUMP JUMPDEST PUSH1 0x0 PUSH1 0x20 DUP3 ADD SWAP1 POP DUP2 DUP2 SUB PUSH1 0x0 DUP4 ADD MSTORE PUSH2 0xD07 DUP2 PUSH2 0xCCB JUMP JUMPDEST SWAP1 POP SWAP2 SWAP1 POP JUMP JUMPDEST PUSH32 0x436F6D70616E7920646F6573206E6F7420657869737400000000000000000000 PUSH1 0x0 DUP3 ADD MSTORE POP JUMP JUMPDEST PUSH1 0x0 PUSH2 0xD44 PUSH1 0x16 DUP4 PUSH2 0x66E JUMP JUMPDEST SWAP2 POP PUSH2 0xD4F DUP3 PUSH2 0xD0E JUMP JUMPDEST PUSH1 0x20 DUP3 ADD SWAP1 POP SWAP2 SWAP1 POP JUMP JUMPDEST PUSH1 0x0 PUSH1 0x20 DUP3 ADD SWAP1 POP DUP2 DUP2 SUB PUSH1 0x0 DUP4 ADD MSTORE PUSH2 0xD73 DUP2 PUSH2 0xD37 JUMP JUMPDEST SWAP1 POP SWAP2 SWAP1 POP JUMP JUMPDEST PUSH32 0x4E487B7100000000000000000000000000000000000000000000000000000000 PUSH1 0x0 MSTORE PUSH1 0x32 PUSH1 0x4 MSTORE PUSH1 0x24 PUSH1 0x0 REVERT JUMPDEST PUSH1 0x0 DUP2 SWAP1 POP SWAP2 SWAP1 POP JUMP JUMPDEST PUSH1 0x0 PUSH2 0xDCE PUSH2 0xDC9 PUSH2 0xDC4 DUP5 PUSH2 0xDA9 JUMP JUMPDEST PUSH2 0xA82 JUMP JUMPDEST PUSH2 0x6F3 JUMP JUMPDEST SWAP1 POP SWAP2 SWAP1 POP JUMP JUMPDEST PUSH2 0xDDE DUP2 PUSH2 0xDB3 JUMP JUMPDEST DUP3 MSTORE POP POP JUMP JUMPDEST PUSH1 0x0 PUSH1 0x40 DUP3 ADD SWAP1 POP PUSH2 0xDF9 PUSH1 0x0 DUP4 ADD DUP6 PUSH2 0x70F JUMP JUMPDEST PUSH2 0xE06 PUSH1 0x20 DUP4 ADD DUP5 PUSH2 0xDD5 JUMP JUMPDEST SWAP4 SWAP3 POP POP POP JUMP JUMPDEST PUSH1 0x0 DUP2 SWAP1 POP SWAP2 SWAP1 POP JUMP JUMPDEST PUSH1 0x0 PUSH2 0xE32 PUSH2 0xE2D PUSH2 0xE28 DUP5 PUSH2 0xE0D JUMP JUMPDEST PUSH2 0xA82 JUMP JUMPDEST PUSH2 0x6F3 JUMP JUMPDEST SWAP1 POP SWAP2 SWAP1 POP JUMP JUMPDEST PUSH2 0xE42 DUP2 PUSH2 0xE17 JUMP JUMPDEST DUP3 MSTORE POP POP JUMP JUMPDEST PUSH1 0x0 PUSH1 0x40 DUP3 ADD SWAP1 POP PUSH2 0xE5D PUSH1 0x0 DUP4 ADD DUP6 PUSH2 0x70F JUMP JUMPDEST PUSH2 0xE6A PUSH1 0x20 DUP4 ADD DUP5 PUSH2 0xE39 JUMP JUMPDEST SWAP4 SWAP3 POP POP POP JUMP INVALID LOG2 PUSH5 0x6970667358 0x22 SLT KECCAK256 PUSH30 0x544AE9F5BA9F38D8C83679088661B3AF70F2DF22747DE7EAC12C0CD9E487 MSTORE PUSH5 0x736F6C6343 STOP ADDMOD EQ STOP CALLER "},"methodIdentifiers":{"addCompany(string,address)":"38f03269","approveCompany(uint256)":"fc4a7442","companies(uint256)":"2813d19d","getCompaniesCount()":"ccb0a334","owner()":"8da5cb5b","rejectCompany(uint256)":"5ca8135a"}}}}}