{"contracts/Auth.sol":{"Auth":{"abi":[{"anonymous":false,"inputs":[{"indexed":true,"internalType":"address","name":"userAddress","type":"address"},{"indexed":false,"internalType":"string","name":"userType","type":"string"}],"name":"UserLoggedIn","type":"event"},{"anonymous":false,"inputs":[{"indexed":true,"internalType":"address","name":"userAddress","type":"address"},{"indexed":false,"internalType":"string","name":"userType","type":"string"}],"name":"UserRegistered","type":"event"},{"inputs":[{"internalType":"address","name":"_address","type":"address"}],"name":"getUserType","outputs":[{"internalType":"string","name":"","type":"string"}],"stateMutability":"view","type":"function"},{"inputs":[{"internalType":"string","name":"_email","type":"string"},{"internalType":"bytes32","name":"_passwordHash","type":"bytes32"},{"internalType":"string","name":"_userType","type":"string"}],"name":"login","outputs":[{"internalType":"bool","name":"","type":"bool"}],"stateMutability":"view","type":"function"},{"inputs":[{"internalType":"string","name":"_email","type":"string"},{"internalType":"bytes32","name":"_passwordHash","type":"bytes32"},{"internalType":"string","name":"_userType","type":"string"}],"name":"signup","outputs":[],"stateMutability":"nonpayable","type":"function"},{"inputs":[{"internalType":"address","name":"","type":"address"}],"name":"users","outputs":[{"internalType":"string","name":"email","type":"string"},{"internalType":"bytes32","name":"passwordHash","type":"bytes32"},{"internalType":"string","name":"userType","type":"string"},{"internalType":"bool","name":"exists","type":"bool"}],"stateMutability":"view","type":"function"}],"evm":{"bytecode":{"linkReferences":{},"object":"608060405234801561001057600080fd5b50611361806100206000396000f3fe608060405234801561001057600080fd5b506004361061004c5760003560e01c80638b3f863f14610051578063a87430ba14610081578063dc510ecf146100b4578063f3cdd475146100e4575b600080fd5b61006b60048036038101906100669190610a67565b610100565b6040516100789190610b24565b60405180910390f35b61009b60048036038101906100969190610a67565b610261565b6040516100ab9493929190610b7a565b60405180910390f35b6100ce60048036038101906100c99190610d2e565b6103ae565b6040516100db9190610db9565b60405180910390f35b6100fe60048036038101906100f99190610d2e565b61074c565b005b60606000808373ffffffffffffffffffffffffffffffffffffffff1673ffffffffffffffffffffffffffffffffffffffff16815260200190815260200160002060030160009054906101000a900460ff16610190576040517f08c379a000000000000000000000000000000000000000000000000000000000815260040161018790610e20565b60405180910390fd5b6000808373ffffffffffffffffffffffffffffffffffffffff1673ffffffffffffffffffffffffffffffffffffffff16815260200190815260200160002060020180546101dc90610e6f565b80601f016020809104026020016040519081016040528092919081815260200182805461020890610e6f565b80156102555780601f1061022a57610100808354040283529160200191610255565b820191906000526020600020905b81548152906001019060200180831161023857829003601f168201915b50505050509050919050565b600060205280600052604060002060009150905080600001805461028490610e6f565b80601f01602080910402602001604051908101604052809291908181526020018280546102b090610e6f565b80156102fd5780601f106102d2576101008083540402835291602001916102fd565b820191906000526020600020905b8154815290600101906020018083116102e057829003601f168201915b50505050509080600101549080600201805461031890610e6f565b80601f016020809104026020016040519081016040528092919081815260200182805461034490610e6f565b80156103915780601f1061036657610100808354040283529160200191610391565b820191906000526020600020905b81548152906001019060200180831161037457829003601f168201915b5050505050908060030160009054906101000a900460ff16905084565b6000336000808273ffffffffffffffffffffffffffffffffffffffff1673ffffffffffffffffffffffffffffffffffffffff16815260200190815260200160002060030160009054906101000a900460ff1661043f576040517f08c379a000000000000000000000000000000000000000000000000000000000815260040161043690610e20565b60405180910390fd5b60008060003373ffffffffffffffffffffffffffffffffffffffff1673ffffffffffffffffffffffffffffffffffffffff16815260200190815260200160002060405180608001604052908160008201805461049a90610e6f565b80601f01602080910402602001604051908101604052809291908181526020018280546104c690610e6f565b80156105135780601f106104e857610100808354040283529160200191610513565b820191906000526020600020905b8154815290600101906020018083116104f657829003601f168201915b505050505081526020016001820154815260200160028201805461053690610e6f565b80601f016020809104026020016040519081016040528092919081815260200182805461056290610e6f565b80156105af5780601f10610584576101008083540402835291602001916105af565b820191906000526020600020905b81548152906001019060200180831161059257829003601f168201915b505050505081526020016003820160009054906101000a900460ff1615151515815250509050856040516020016105e69190610edc565b6040516020818303038152906040528051906020012081600001516040516020016106119190610edc565b6040516020818303038152906040528051906020012014610667576040517f08c379a000000000000000000000000000000000000000000000000000000000815260040161065e90610f3f565b60405180910390fd5b848160200151146106ad576040517f08c379a00000000000000000000000000000000000000000000000000000000081526004016106a490610f3f565b60405180910390fd5b836040516020016106be9190610edc565b6040516020818303038152906040528051906020012081604001516040516020016106e99190610edc565b604051602081830303815290604052805190602001201461073f576040517f08c379a000000000000000000000000000000000000000000000000000000000815260040161073690610fab565b60405180910390fd5b6001925050509392505050565b336000808273ffffffffffffffffffffffffffffffffffffffff1673ffffffffffffffffffffffffffffffffffffffff16815260200190815260200160002060030160009054906101000a900460ff16156107dc576040517f08c379a00000000000000000000000000000000000000000000000000000000081526004016107d390611017565b60405180910390fd5b600073ffffffffffffffffffffffffffffffffffffffff166001856040516108049190610edc565b908152602001604051809103902060009054906101000a900473ffffffffffffffffffffffffffffffffffffffff1673ffffffffffffffffffffffffffffffffffffffff1614610889576040517f08c379a000000000000000000000000000000000000000000000000000000000815260040161088090611083565b60405180910390fd5b6040518060800160405280858152602001848152602001838152602001600115158152506000803373ffffffffffffffffffffffffffffffffffffffff1673ffffffffffffffffffffffffffffffffffffffff16815260200190815260200160002060008201518160000190816109009190611259565b506020820151816001015560408201518160020190816109209190611259565b5060608201518160030160006101000a81548160ff021916908315150217905550905050336001856040516109559190610edc565b908152602001604051809103902060006101000a81548173ffffffffffffffffffffffffffffffffffffffff021916908373ffffffffffffffffffffffffffffffffffffffff1602179055503373ffffffffffffffffffffffffffffffffffffffff167f48cac28ad4dc618e15f4c2dd5e97751182f166de97b25618318b2112aa951a2f836040516109e79190610b24565b60405180910390a250505050565b6000604051905090565b600080fd5b600080fd5b600073ffffffffffffffffffffffffffffffffffffffff82169050919050565b6000610a3482610a09565b9050919050565b610a4481610a29565b8114610a4f57600080fd5b50565b600081359050610a6181610a3b565b92915050565b600060208284031215610a7d57610a7c6109ff565b5b6000610a8b84828501610a52565b91505092915050565b600081519050919050565b600082825260208201905092915050565b60005b83811015610ace578082015181840152602081019050610ab3565b60008484015250505050565b6000601f19601f8301169050919050565b6000610af682610a94565b610b008185610a9f565b9350610b10818560208601610ab0565b610b1981610ada565b840191505092915050565b60006020820190508181036000830152610b3e8184610aeb565b905092915050565b6000819050919050565b610b5981610b46565b82525050565b60008115159050919050565b610b7481610b5f565b82525050565b60006080820190508181036000830152610b948187610aeb565b9050610ba36020830186610b50565b8181036040830152610bb58185610aeb565b9050610bc46060830184610b6b565b95945050505050565b600080fd5b600080fd5b7f4e487b7100000000000000000000000000000000000000000000000000000000600052604160045260246000fd5b610c0f82610ada565b810181811067ffffffffffffffff82111715610c2e57610c2d610bd7565b5b80604052505050565b6000610c416109f5565b9050610c4d8282610c06565b919050565b600067ffffffffffffffff821115610c6d57610c6c610bd7565b5b610c7682610ada565b9050602081019050919050565b82818337600083830152505050565b6000610ca5610ca084610c52565b610c37565b905082815260208101848484011115610cc157610cc0610bd2565b5b610ccc848285610c83565b509392505050565b600082601f830112610ce957610ce8610bcd565b5b8135610cf9848260208601610c92565b91505092915050565b610d0b81610b46565b8114610d1657600080fd5b50565b600081359050610d2881610d02565b92915050565b600080600060608486031215610d4757610d466109ff565b5b600084013567ffffffffffffffff811115610d6557610d64610a04565b5b610d7186828701610cd4565b9350506020610d8286828701610d19565b925050604084013567ffffffffffffffff811115610da357610da2610a04565b5b610daf86828701610cd4565b9150509250925092565b6000602082019050610dce6000830184610b6b565b92915050565b7f5573657220646f6573206e6f7420657869737400000000000000000000000000600082015250565b6000610e0a601383610a9f565b9150610e1582610dd4565b602082019050919050565b60006020820190508181036000830152610e3981610dfd565b9050919050565b7f4e487b7100000000000000000000000000000000000000000000000000000000600052602260045260246000fd5b60006002820490506001821680610e8757607f821691505b602082108103610e9a57610e99610e40565b5b50919050565b600081905092915050565b6000610eb682610a94565b610ec08185610ea0565b9350610ed0818560208601610ab0565b80840191505092915050565b6000610ee88284610eab565b915081905092915050565b7f496e76616c69642063726564656e7469616c7300000000000000000000000000600082015250565b6000610f29601383610a9f565b9150610f3482610ef3565b602082019050919050565b60006020820190508181036000830152610f5881610f1c565b9050919050565b7f496e76616c696420757365722074797065000000000000000000000000000000600082015250565b6000610f95601183610a9f565b9150610fa082610f5f565b602082019050919050565b60006020820190508181036000830152610fc481610f88565b9050919050565b7f5573657220616c72656164792065786973747300000000000000000000000000600082015250565b6000611001601383610a9f565b915061100c82610fcb565b602082019050919050565b6000602082019050818103600083015261103081610ff4565b9050919050565b7f456d61696c20616c726561647920726567697374657265640000000000000000600082015250565b600061106d601883610a9f565b915061107882611037565b602082019050919050565b6000602082019050818103600083015261109c81611060565b9050919050565b60008190508160005260206000209050919050565b60006020601f8301049050919050565b600082821b905092915050565b6000600883026111057fffffffffffffffffffffffffffffffffffffffffffffffffffffffffffffffff826110c8565b61110f86836110c8565b95508019841693508086168417925050509392505050565b6000819050919050565b6000819050919050565b600061115661115161114c84611127565b611131565b611127565b9050919050565b6000819050919050565b6111708361113b565b61118461117c8261115d565b8484546110d5565b825550505050565b600090565b61119961118c565b6111a4818484611167565b505050565b5b818110156111c8576111bd600082611191565b6001810190506111aa565b5050565b601f82111561120d576111de816110a3565b6111e7846110b8565b810160208510156111f6578190505b61120a611202856110b8565b8301826111a9565b50505b505050565b600082821c905092915050565b600061123060001984600802611212565b1980831691505092915050565b6000611249838361121f565b9150826002028217905092915050565b61126282610a94565b67ffffffffffffffff81111561127b5761127a610bd7565b5b6112858254610e6f565b6112908282856111cc565b600060209050601f8311600181146112c357600084156112b1578287015190505b6112bb858261123d565b865550611323565b601f1984166112d1866110a3565b60005b828110156112f9578489015182556001820191506020850194506020810190506112d4565b868310156113165784890151611312601f89168261121f565b8355505b6001600288020188555050505b50505050505056fea2646970667358221220da649402f9695dc409a811150a110faa93957e45d019d6a79728f3ee023e800664736f6c63430008140033","opcodes":"PUSH1 0x80 PUSH1 0x40 MSTORE CALLVALUE DUP1 ISZERO PUSH2 0x10 JUMPI PUSH1 0x0 DUP1 REVERT JUMPDEST POP PUSH2 0x1361 DUP1 PUSH2 0x20 PUSH1 0x0 CODECOPY PUSH1 0x0 RETURN INVALID PUSH1 0x80 PUSH1 0x40 MSTORE CALLVALUE DUP1 ISZERO PUSH2 0x10 JUMPI PUSH1 0x0 DUP1 REVERT JUMPDEST POP PUSH1 0x4 CALLDATASIZE LT PUSH2 0x4C JUMPI PUSH1 0x0 CALLDATALOAD PUSH1 0xE0 SHR DUP1 PUSH4 0x8B3F863F EQ PUSH2 0x51 JUMPI DUP1 PUSH4 0xA87430BA EQ PUSH2 0x81 JUMPI DUP1 PUSH4 0xDC510ECF EQ PUSH2 0xB4 JUMPI DUP1 PUSH4 0xF3CDD475 EQ PUSH2 0xE4 JUMPI JUMPDEST PUSH1 0x0 DUP1 REVERT JUMPDEST PUSH2 0x6B PUSH1 0x4 DUP1 CALLDATASIZE SUB DUP2 ADD SWAP1 PUSH2 0x66 SWAP2 SWAP1 PUSH2 0xA67 JUMP JUMPDEST PUSH2 0x100 JUMP JUMPDEST PUSH1 0x40 MLOAD PUSH2 0x78 SWAP2 SWAP1 PUSH2 0xB24 JUMP JUMPDEST PUSH1 0x40 MLOAD DUP1 SWAP2 SUB SWAP1 RETURN JUMPDEST PUSH2 0x9B PUSH1 0x4 DUP1 CALLDATASIZE SUB DUP2 ADD SWAP1 PUSH2 0x96 SWAP2 SWAP1 PUSH2 0xA67 JUMP JUMPDEST PUSH2 0x261 JUMP JUMPDEST PUSH1 0x40 MLOAD PUSH2 0xAB SWAP5 SWAP4 SWAP3 SWAP2 SWAP1 PUSH2 0xB7A JUMP JUMPDEST PUSH1 0x40 MLOAD DUP1 SWAP2 SUB SWAP1 RETURN JUMPDEST PUSH2 0xCE PUSH1 0x4 DUP1 CALLDATASIZE SUB DUP2 ADD SWAP1 PUSH2 0xC9 SWAP2 SWAP1 PUSH2 0xD2E JUMP JUMPDEST PUSH2 0x3AE JUMP JUMPDEST PUSH1 0x40 MLOAD PUSH2 0xDB SWAP2 SWAP1 PUSH2 0xDB9 JUMP JUMPDEST PUSH1 0x40 MLOAD DUP1 SWAP2 SUB SWAP1 RETURN JUMPDEST PUSH2 0xFE PUSH1 0x4 DUP1 CALLDATASIZE SUB DUP2 ADD SWAP1 PUSH2 0xF9 SWAP2 SWAP1 PUSH2 0xD2E JUMP JUMPDEST PUSH2 0x74C JUMP JUMPDEST STOP JUMPDEST PUSH1 0x60 PUSH1 0x0 DUP1 DUP4 PUSH20 0xFFFFFFFFFFFFFFFFFFFFFFFFFFFFFFFFFFFFFFFF AND PUSH20 0xFFFFFFFFFFFFFFFFFFFFFFFFFFFFFFFFFFFFFFFF AND DUP2 MSTORE PUSH1 0x20 ADD SWAP1 DUP2 MSTORE PUSH1 0x20 ADD PUSH1 0x0 KECCAK256 PUSH1 0x3 ADD PUSH1 0x0 SWAP1 SLOAD SWAP1 PUSH2 0x100 EXP SWAP1 DIV PUSH1 0xFF AND PUSH2 0x190 JUMPI PUSH1 0x40 MLOAD PUSH32 0x8C379A000000000000000000000000000000000000000000000000000000000 DUP2 MSTORE PUSH1 0x4 ADD PUSH2 0x187 SWAP1 PUSH2 0xE20 JUMP JUMPDEST PUSH1 0x40 MLOAD DUP1 SWAP2 SUB SWAP1 REVERT JUMPDEST PUSH1 0x0 DUP1 DUP4 PUSH20 0xFFFFFFFFFFFFFFFFFFFFFFFFFFFFFFFFFFFFFFFF AND PUSH20 0xFFFFFFFFFFFFFFFFFFFFFFFFFFFFFFFFFFFFFFFF AND DUP2 MSTORE PUSH1 0x20 ADD SWAP1 DUP2 MSTORE PUSH1 0x20 ADD PUSH1 0x0 KECCAK256 PUSH1 0x2 ADD DUP1 SLOAD PUSH2 0x1DC SWAP1 PUSH2 0xE6F JUMP JUMPDEST DUP1 PUSH1 0x1F ADD PUSH1 0x20 DUP1 SWAP2 DIV MUL PUSH1 0x20 ADD PUSH1 0x40 MLOAD SWAP1 DUP2 ADD PUSH1 0x40 MSTORE DUP1 SWAP3 SWAP2 SWAP1 DUP2 DUP2 MSTORE PUSH1 0x20 ADD DUP3 DUP1 SLOAD PUSH2 0x208 SWAP1 PUSH2 0xE6F JUMP JUMPDEST DUP1 ISZERO PUSH2 0x255 JUMPI DUP1 PUSH1 0x1F LT PUSH2 0x22A JUMPI PUSH2 0x100 DUP1 DUP4 SLOAD DIV MUL DUP4 MSTORE SWAP2 PUSH1 0x20 ADD SWAP2 PUSH2 0x255 JUMP JUMPDEST DUP3 ADD SWAP2 SWAP1 PUSH1 0x0 MSTORE PUSH1 0x20 PUSH1 0x0 KECCAK256 SWAP1 JUMPDEST DUP2 SLOAD DUP2 MSTORE SWAP1 PUSH1 0x1 ADD SWAP1 PUSH1 0x20 ADD DUP1 DUP4 GT PUSH2 0x238 JUMPI DUP3 SWAP1 SUB PUSH1 0x1F AND DUP3 ADD SWAP2 JUMPDEST POP POP POP POP POP SWAP1 POP SWAP2 SWAP1 POP JUMP JUMPDEST PUSH1 0x0 PUSH1 0x20 MSTORE DUP1 PUSH1 0x0 MSTORE PUSH1 0x40 PUSH1 0x0 KECCAK256 PUSH1 0x0 SWAP2 POP SWAP1 POP DUP1 PUSH1 0x0 ADD DUP1 SLOAD PUSH2 0x284 SWAP1 PUSH2 0xE6F JUMP JUMPDEST DUP1 PUSH1 0x1F ADD PUSH1 0x20 DUP1 SWAP2 DIV MUL PUSH1 0x20 ADD PUSH1 0x40 MLOAD SWAP1 DUP2 ADD PUSH1 0x40 MSTORE DUP1 SWAP3 SWAP2 SWAP1 DUP2 DUP2 MSTORE PUSH1 0x20 ADD DUP3 DUP1 SLOAD PUSH2 0x2B0 SWAP1 PUSH2 0xE6F JUMP JUMPDEST DUP1 ISZERO PUSH2 0x2FD JUMPI DUP1 PUSH1 0x1F LT PUSH2 0x2D2 JUMPI PUSH2 0x100 DUP1 DUP4 SLOAD DIV MUL DUP4 MSTORE SWAP2 PUSH1 0x20 ADD SWAP2 PUSH2 0x2FD JUMP JUMPDEST DUP3 ADD SWAP2 SWAP1 PUSH1 0x0 MSTORE PUSH1 0x20 PUSH1 0x0 KECCAK256 SWAP1 JUMPDEST DUP2 SLOAD DUP2 MSTORE SWAP1 PUSH1 0x1 ADD SWAP1 PUSH1 0x20 ADD DUP1 DUP4 GT PUSH2 0x2E0 JUMPI DUP3 SWAP1 SUB PUSH1 0x1F AND DUP3 ADD SWAP2 JUMPDEST POP POP POP POP POP SWAP1 DUP1 PUSH1 0x1 ADD SLOAD SWAP1 DUP1 PUSH1 0x2 ADD DUP1 SLOAD PUSH2 0x318 SWAP1 PUSH2 0xE6F JUMP JUMPDEST DUP1 PUSH1 0x1F ADD PUSH1 0x20 DUP1 SWAP2 DIV MUL PUSH1 0x20 ADD PUSH1 0x40 MLOAD SWAP1 DUP2 ADD PUSH1 0x40 MSTORE DUP1 SWAP3 SWAP2 SWAP1 DUP2 DUP2 MSTORE PUSH1 0x20 ADD DUP3 DUP1 SLOAD PUSH2 0x344 SWAP1 PUSH2 0xE6F JUMP JUMPDEST DUP1 ISZERO PUSH2 0x391 JUMPI DUP1 PUSH1 0x1F LT PUSH2 0x366 JUMPI PUSH2 0x100 DUP1 DUP4 SLOAD DIV MUL DUP4 MSTORE SWAP2 PUSH1 0x20 ADD SWAP2 PUSH2 0x391 JUMP JUMPDEST DUP3 ADD SWAP2 SWAP1 PUSH1 0x0 MSTORE PUSH1 0x20 PUSH1 0x0 KECCAK256 SWAP1 JUMPDEST DUP2 SLOAD DUP2 MSTORE SWAP1 PUSH1 0x1 ADD SWAP1 PUSH1 0x20 ADD DUP1 DUP4 GT PUSH2 0x374 JUMPI DUP3 SWAP1 SUB PUSH1 0x1F AND DUP3 ADD SWAP2 JUMPDEST POP POP POP POP POP SWAP1 DUP1 PUSH1 0x3 ADD PUSH1 0x0 SWAP1 SLOAD SWAP1 PUSH2 0x100 EXP SWAP1 DIV PUSH1 0xFF AND SWAP1 POP DUP5 JUMP JUMPDEST PUSH1 0x0 CALLER PUSH1 0x0 DUP1 DUP3 PUSH20 0xFFFFFFFFFFFFFFFFFFFFFFFFFFFFFFFFFFFFFFFF AND PUSH20 0xFFFFFFFFFFFFFFFFFFFFFFFFFFFFFFFFFFFFFFFF AND DUP2 MSTORE PUSH1 0x20 ADD SWAP1 DUP2 MSTORE PUSH1 0x20 ADD PUSH1 0x0 KECCAK256 PUSH1 0x3 ADD PUSH1 0x0 SWAP1 SLOAD SWAP1 PUSH2 0x100 EXP SWAP1 DIV PUSH1 0xFF AND PUSH2 0x43F JUMPI PUSH1 0x40 MLOAD PUSH32 0x8C379A000000000000000000000000000000000000000000000000000000000 DUP2 MSTORE PUSH1 0x4 ADD PUSH2 0x436 SWAP1 PUSH2 0xE20 JUMP JUMPDEST PUSH1 0x40 MLOAD DUP1 SWAP2 SUB SWAP1 REVERT JUMPDEST PUSH1 0x0 DUP1 PUSH1 0x0 CALLER PUSH20 0xFFFFFFFFFFFFFFFFFFFFFFFFFFFFFFFFFFFFFFFF AND PUSH20 0xFFFFFFFFFFFFFFFFFFFFFFFFFFFFFFFFFFFFFFFF AND DUP2 MSTORE PUSH1 0x20 ADD SWAP1 DUP2 MSTORE PUSH1 0x20 ADD PUSH1 0x0 KECCAK256 PUSH1 0x40 MLOAD DUP1 PUSH1 0x80 ADD PUSH1 0x40 MSTORE SWAP1 DUP2 PUSH1 0x0 DUP3 ADD DUP1 SLOAD PUSH2 0x49A SWAP1 PUSH2 0xE6F JUMP JUMPDEST DUP1 PUSH1 0x1F ADD PUSH1 0x20 DUP1 SWAP2 DIV MUL PUSH1 0x20 ADD PUSH1 0x40 MLOAD SWAP1 DUP2 ADD PUSH1 0x40 MSTORE DUP1 SWAP3 SWAP2 SWAP1 DUP2 DUP2 MSTORE PUSH1 0x20 ADD DUP3 DUP1 SLOAD PUSH2 0x4C6 SWAP1 PUSH2 0xE6F JUMP JUMPDEST DUP1 ISZERO PUSH2 0x513 JUMPI DUP1 PUSH1 0x1F LT PUSH2 0x4E8 JUMPI PUSH2 0x100 DUP1 DUP4 SLOAD DIV MUL DUP4 MSTORE SWAP2 PUSH1 0x20 ADD SWAP2 PUSH2 0x513 JUMP JUMPDEST DUP3 ADD SWAP2 SWAP1 PUSH1 0x0 MSTORE PUSH1 0x20 PUSH1 0x0 KECCAK256 SWAP1 JUMPDEST DUP2 SLOAD DUP2 MSTORE SWAP1 PUSH1 0x1 ADD SWAP1 PUSH1 0x20 ADD DUP1 DUP4 GT PUSH2 0x4F6 JUMPI DUP3 SWAP1 SUB PUSH1 0x1F AND DUP3 ADD SWAP2 JUMPDEST POP POP POP POP POP DUP2 MSTORE PUSH1 0x20 ADD PUSH1 0x1 DUP3 ADD SLOAD DUP2 MSTORE PUSH1 0x20 ADD PUSH1 0x2 DUP3 ADD DUP1 SLOAD PUSH2 0x536 SWAP1 PUSH2 0xE6F JUMP JUMPDEST DUP1 PUSH1 0x1F ADD PUSH1 0x20 DUP1 SWAP2 DIV MUL PUSH1 0x20 ADD PUSH1 0x40 MLOAD SWAP1 DUP2 ADD PUSH1 0x40 MSTORE DUP1 SWAP3 SWAP2 SWAP1 DUP2 DUP2 MSTORE PUSH1 0x20 ADD DUP3 DUP1 SLOAD PUSH2 0x562 SWAP1 PUSH2 0xE6F JUMP JUMPDEST DUP1 ISZERO PUSH2 0x5AF JUMPI DUP1 PUSH1 0x1F LT PUSH2 0x584 JUMPI PUSH2 0x100 DUP1 DUP4 SLOAD DIV MUL DUP4 MSTORE SWAP2 PUSH1 0x20 ADD SWAP2 PUSH2 0x5AF JUMP JUMPDEST DUP3 ADD SWAP2 SWAP1 PUSH1 0x0 MSTORE PUSH1 0x20 PUSH1 0x0 KECCAK256 SWAP1 JUMPDEST DUP2 SLOAD DUP2 MSTORE SWAP1 PUSH1 0x1 ADD SWAP1 PUSH1 0x20 ADD DUP1 DUP4 GT PUSH2 0x592 JUMPI DUP3 SWAP1 SUB PUSH1 0x1F AND DUP3 ADD SWAP2 JUMPDEST POP POP POP POP POP DUP2 MSTORE PUSH1 0x20 ADD PUSH1 0x3 DUP3 ADD PUSH1 0x0 SWAP1 SLOAD SWAP1 PUSH2 0x100 EXP SWAP1 DIV PUSH1 0xFF AND ISZERO ISZERO ISZERO ISZERO DUP2 MSTORE POP POP SWAP1 POP DUP6 PUSH1 0x40 MLOAD PUSH1 0x20 ADD PUSH2 0x5E6 SWAP2 SWAP1 PUSH2 0xEDC JUMP JUMPDEST PUSH1 0x40 MLOAD PUSH1 0x20 DUP2 DUP4 SUB SUB DUP2 MSTORE SWAP1 PUSH1 0x40 MSTORE DUP1 MLOAD SWAP1 PUSH1 0x20 ADD KECCAK256 DUP2 PUSH1 0x0 ADD MLOAD PUSH1 0x40 MLOAD PUSH1 0x20 ADD PUSH2 0x611 SWAP2 SWAP1 PUSH2 0xEDC JUMP JUMPDEST PUSH1 0x40 MLOAD PUSH1 0x20 DUP2 DUP4 SUB SUB DUP2 MSTORE SWAP1 PUSH1 0x40 MSTORE DUP1 MLOAD SWAP1 PUSH1 0x20 ADD KECCAK256 EQ PUSH2 0x667 JUMPI PUSH1 0x40 MLOAD PUSH32 0x8C379A000000000000000000000000000000000000000000000000000000000 DUP2 MSTORE PUSH1 0x4 ADD PUSH2 0x65E SWAP1 PUSH2 0xF3F JUMP JUMPDEST PUSH1 0x40 MLOAD DUP1 SWAP2 SUB SWAP1 REVERT JUMPDEST DUP5 DUP2 PUSH1 0x20 ADD MLOAD EQ PUSH2 0x6AD JUMPI PUSH1 0x40 MLOAD PUSH32 0x8C379A000000000000000000000000000000000000000000000000000000000 DUP2 MSTORE PUSH1 0x4 ADD PUSH2 0x6A4 SWAP1 PUSH2 0xF3F JUMP JUMPDEST PUSH1 0x40 MLOAD DUP1 SWAP2 SUB SWAP1 REVERT JUMPDEST DUP4 PUSH1 0x40 MLOAD PUSH1 0x20 ADD PUSH2 0x6BE SWAP2 SWAP1 PUSH2 0xEDC JUMP JUMPDEST PUSH1 0x40 MLOAD PUSH1 0x20 DUP2 DUP4 SUB SUB DUP2 MSTORE SWAP1 PUSH1 0x40 MSTORE DUP1 MLOAD SWAP1 PUSH1 0x20 ADD KECCAK256 DUP2 PUSH1 0x40 ADD MLOAD PUSH1 0x40 MLOAD PUSH1 0x20 ADD PUSH2 0x6E9 SWAP2 SWAP1 PUSH2 0xEDC JUMP JUMPDEST PUSH1 0x40 MLOAD PUSH1 0x20 DUP2 DUP4 SUB SUB DUP2 MSTORE SWAP1 PUSH1 0x40 MSTORE DUP1 MLOAD SWAP1 PUSH1 0x20 ADD KECCAK256 EQ PUSH2 0x73F JUMPI PUSH1 0x40 MLOAD PUSH32 0x8C379A000000000000000000000000000000000000000000000000000000000 DUP2 MSTORE PUSH1 0x4 ADD PUSH2 0x736 SWAP1 PUSH2 0xFAB JUMP JUMPDEST PUSH1 0x40 MLOAD DUP1 SWAP2 SUB SWAP1 REVERT JUMPDEST PUSH1 0x1 SWAP3 POP POP POP SWAP4 SWAP3 POP POP POP JUMP JUMPDEST CALLER PUSH1 0x0 DUP1 DUP3 PUSH20 0xFFFFFFFFFFFFFFFFFFFFFFFFFFFFFFFFFFFFFFFF AND PUSH20 0xFFFFFFFFFFFFFFFFFFFFFFFFFFFFFFFFFFFFFFFF AND DUP2 MSTORE PUSH1 0x20 ADD SWAP1 DUP2 MSTORE PUSH1 0x20 ADD PUSH1 0x0 KECCAK256 PUSH1 0x3 ADD PUSH1 0x0 SWAP1 SLOAD SWAP1 PUSH2 0x100 EXP SWAP1 DIV PUSH1 0xFF AND ISZERO PUSH2 0x7DC JUMPI PUSH1 0x40 MLOAD PUSH32 0x8C379A000000000000000000000000000000000000000000000000000000000 DUP2 MSTORE PUSH1 0x4 ADD PUSH2 0x7D3 SWAP1 PUSH2 0x1017 JUMP JUMPDEST PUSH1 0x40 MLOAD DUP1 SWAP2 SUB SWAP1 REVERT JUMPDEST PUSH1 0x0 PUSH20 0xFFFFFFFFFFFFFFFFFFFFFFFFFFFFFFFFFFFFFFFF AND PUSH1 0x1 DUP6 PUSH1 0x40 MLOAD PUSH2 0x804 SWAP2 SWAP1 PUSH2 0xEDC JUMP JUMPDEST SWAP1 DUP2 MSTORE PUSH1 0x20 ADD PUSH1 0x40 MLOAD DUP1 SWAP2 SUB SWAP1 KECCAK256 PUSH1 0x0 SWAP1 SLOAD SWAP1 PUSH2 0x100 EXP SWAP1 DIV PUSH20 0xFFFFFFFFFFFFFFFFFFFFFFFFFFFFFFFFFFFFFFFF AND PUSH20 0xFFFFFFFFFFFFFFFFFFFFFFFFFFFFFFFFFFFFFFFF AND EQ PUSH2 0x889 JUMPI PUSH1 0x40 MLOAD PUSH32 0x8C379A000000000000000000000000000000000000000000000000000000000 DUP2 MSTORE PUSH1 0x4 ADD PUSH2 0x880 SWAP1 PUSH2 0x1083 JUMP JUMPDEST PUSH1 0x40 MLOAD DUP1 SWAP2 SUB SWAP1 REVERT JUMPDEST PUSH1 0x40 MLOAD DUP1 PUSH1 0x80 ADD PUSH1 0x40 MSTORE DUP1 DUP6 DUP2 MSTORE PUSH1 0x20 ADD DUP5 DUP2 MSTORE PUSH1 0x20 ADD DUP4 DUP2 MSTORE PUSH1 0x20 ADD PUSH1 0x1 ISZERO ISZERO DUP2 MSTORE POP PUSH1 0x0 DUP1 CALLER PUSH20 0xFFFFFFFFFFFFFFFFFFFFFFFFFFFFFFFFFFFFFFFF AND PUSH20 0xFFFFFFFFFFFFFFFFFFFFFFFFFFFFFFFFFFFFFFFF AND DUP2 MSTORE PUSH1 0x20 ADD SWAP1 DUP2 MSTORE PUSH1 0x20 ADD PUSH1 0x0 KECCAK256 PUSH1 0x0 DUP3 ADD MLOAD DUP2 PUSH1 0x0 ADD SWAP1 DUP2 PUSH2 0x900 SWAP2 SWAP1 PUSH2 0x1259 JUMP JUMPDEST POP PUSH1 0x20 DUP3 ADD MLOAD DUP2 PUSH1 0x1 ADD SSTORE PUSH1 0x40 DUP3 ADD MLOAD DUP2 PUSH1 0x2 ADD SWAP1 DUP2 PUSH2 0x920 SWAP2 SWAP1 PUSH2 0x1259 JUMP JUMPDEST POP PUSH1 0x60 DUP3 ADD MLOAD DUP2 PUSH1 0x3 ADD PUSH1 0x0 PUSH2 0x100 EXP DUP2 SLOAD DUP2 PUSH1 0xFF MUL NOT AND SWAP1 DUP4 ISZERO ISZERO MUL OR SWAP1 SSTORE POP SWAP1 POP POP CALLER PUSH1 0x1 DUP6 PUSH1 0x40 MLOAD PUSH2 0x955 SWAP2 SWAP1 PUSH2 0xEDC JUMP JUMPDEST SWAP1 DUP2 MSTORE PUSH1 0x20 ADD PUSH1 0x40 MLOAD DUP1 SWAP2 SUB SWAP1 KECCAK256 PUSH1 0x0 PUSH2 0x100 EXP DUP2 SLOAD DUP2 PUSH20 0xFFFFFFFFFFFFFFFFFFFFFFFFFFFFFFFFFFFFFFFF MUL NOT AND SWAP1 DUP4 PUSH20 0xFFFFFFFFFFFFFFFFFFFFFFFFFFFFFFFFFFFFFFFF AND MUL OR SWAP1 SSTORE POP CALLER PUSH20 0xFFFFFFFFFFFFFFFFFFFFFFFFFFFFFFFFFFFFFFFF AND PUSH32 0x48CAC28AD4DC618E15F4C2DD5E97751182F166DE97B25618318B2112AA951A2F DUP4 PUSH1 0x40 MLOAD PUSH2 0x9E7 SWAP2 SWAP1 PUSH2 0xB24 JUMP JUMPDEST PUSH1 0x40 MLOAD DUP1 SWAP2 SUB SWAP1 LOG2 POP POP POP POP JUMP JUMPDEST PUSH1 0x0 PUSH1 0x40 MLOAD SWAP1 POP SWAP1 JUMP JUMPDEST PUSH1 0x0 DUP1 REVERT JUMPDEST PUSH1 0x0 DUP1 REVERT JUMPDEST PUSH1 0x0 PUSH20 0xFFFFFFFFFFFFFFFFFFFFFFFFFFFFFFFFFFFFFFFF DUP3 AND SWAP1 POP SWAP2 SWAP1 POP JUMP JUMPDEST PUSH1 0x0 PUSH2 0xA34 DUP3 PUSH2 0xA09 JUMP JUMPDEST SWAP1 POP SWAP2 SWAP1 POP JUMP JUMPDEST PUSH2 0xA44 DUP2 PUSH2 0xA29 JUMP JUMPDEST DUP2 EQ PUSH2 0xA4F JUMPI PUSH1 0x0 DUP1 REVERT JUMPDEST POP JUMP JUMPDEST PUSH1 0x0 DUP2 CALLDATALOAD SWAP1 POP PUSH2 0xA61 DUP2 PUSH2 0xA3B JUMP JUMPDEST SWAP3 SWAP2 POP POP JUMP JUMPDEST PUSH1 0x0 PUSH1 0x20 DUP3 DUP5 SUB SLT ISZERO PUSH2 0xA7D JUMPI PUSH2 0xA7C PUSH2 0x9FF JUMP JUMPDEST JUMPDEST PUSH1 0x0 PUSH2 0xA8B DUP5 DUP3 DUP6 ADD PUSH2 0xA52 JUMP JUMPDEST SWAP2 POP POP SWAP3 SWAP2 POP POP JUMP JUMPDEST PUSH1 0x0 DUP2 MLOAD SWAP1 POP SWAP2 SWAP1 POP JUMP JUMPDEST PUSH1 0x0 DUP3 DUP3 MSTORE PUSH1 0x20 DUP3 ADD SWAP1 POP SWAP3 SWAP2 POP POP JUMP JUMPDEST PUSH1 0x0 JUMPDEST DUP4 DUP2 LT ISZERO PUSH2 0xACE JUMPI DUP1 DUP3 ADD MLOAD DUP2 DUP5 ADD MSTORE PUSH1 0x20 DUP2 ADD SWAP1 POP PUSH2 0xAB3 JUMP JUMPDEST PUSH1 0x0 DUP5 DUP5 ADD MSTORE POP POP POP POP JUMP JUMPDEST PUSH1 0x0 PUSH1 0x1F NOT PUSH1 0x1F DUP4 ADD AND SWAP1 POP SWAP2 SWAP1 POP JUMP JUMPDEST PUSH1 0x0 PUSH2 0xAF6 DUP3 PUSH2 0xA94 JUMP JUMPDEST PUSH2 0xB00 DUP2 DUP6 PUSH2 0xA9F JUMP JUMPDEST SWAP4 POP PUSH2 0xB10 DUP2 DUP6 PUSH1 0x20 DUP7 ADD PUSH2 0xAB0 JUMP JUMPDEST PUSH2 0xB19 DUP2 PUSH2 0xADA JUMP JUMPDEST DUP5 ADD SWAP2 POP POP SWAP3 SWAP2 POP POP JUMP JUMPDEST PUSH1 0x0 PUSH1 0x20 DUP3 ADD SWAP1 POP DUP2 DUP2 SUB PUSH1 0x0 DUP4 ADD MSTORE PUSH2 0xB3E DUP2 DUP5 PUSH2 0xAEB JUMP JUMPDEST SWAP1 POP SWAP3 SWAP2 POP POP JUMP JUMPDEST PUSH1 0x0 DUP2 SWAP1 POP SWAP2 SWAP1 POP JUMP JUMPDEST PUSH2 0xB59 DUP2 PUSH2 0xB46 JUMP JUMPDEST DUP3 MSTORE POP POP JUMP JUMPDEST PUSH1 0x0 DUP2 ISZERO ISZERO SWAP1 POP SWAP2 SWAP1 POP JUMP JUMPDEST PUSH2 0xB74 DUP2 PUSH2 0xB5F JUMP JUMPDEST DUP3 MSTORE POP POP JUMP JUMPDEST PUSH1 0x0 PUSH1 0x80 DUP3 ADD SWAP1 POP DUP2 DUP2 SUB PUSH1 0x0 DUP4 ADD MSTORE PUSH2 0xB94 DUP2 DUP8 PUSH2 0xAEB JUMP JUMPDEST SWAP1 POP PUSH2 0xBA3 PUSH1 0x20 DUP4 ADD DUP7 PUSH2 0xB50 JUMP JUMPDEST DUP2 DUP2 SUB PUSH1 0x40 DUP4 ADD MSTORE PUSH2 0xBB5 DUP2 DUP6 PUSH2 0xAEB JUMP JUMPDEST SWAP1 POP PUSH2 0xBC4 PUSH1 0x60 DUP4 ADD DUP5 PUSH2 0xB6B JUMP JUMPDEST SWAP6 SWAP5 POP POP POP POP POP JUMP JUMPDEST PUSH1 0x0 DUP1 REVERT JUMPDEST PUSH1 0x0 DUP1 REVERT JUMPDEST PUSH32 0x4E487B7100000000000000000000000000000000000000000000000000000000 PUSH1 0x0 MSTORE PUSH1 0x41 PUSH1 0x4 MSTORE PUSH1 0x24 PUSH1 0x0 REVERT JUMPDEST PUSH2 0xC0F DUP3 PUSH2 0xADA JUMP JUMPDEST DUP2 ADD DUP2 DUP2 LT PUSH8 0xFFFFFFFFFFFFFFFF DUP3 GT OR ISZERO PUSH2 0xC2E JUMPI PUSH2 0xC2D PUSH2 0xBD7 JUMP JUMPDEST JUMPDEST DUP1 PUSH1 0x40 MSTORE POP POP POP JUMP JUMPDEST PUSH1 0x0 PUSH2 0xC41 PUSH2 0x9F5 JUMP JUMPDEST SWAP1 POP PUSH2 0xC4D DUP3 DUP3 PUSH2 0xC06 JUMP JUMPDEST SWAP2 SWAP1 POP JUMP JUMPDEST PUSH1 0x0 PUSH8 0xFFFFFFFFFFFFFFFF DUP3 GT ISZERO PUSH2 0xC6D JUMPI PUSH2 0xC6C PUSH2 0xBD7 JUMP JUMPDEST JUMPDEST PUSH2 0xC76 DUP3 PUSH2 0xADA JUMP JUMPDEST SWAP1 POP PUSH1 0x20 DUP2 ADD SWAP1 POP SWAP2 SWAP1 POP JUMP JUMPDEST DUP3 DUP2 DUP4 CALLDATACOPY PUSH1 0x0 DUP4 DUP4 ADD MSTORE POP POP POP JUMP JUMPDEST PUSH1 0x0 PUSH2 0xCA5 PUSH2 0xCA0 DUP5 PUSH2 0xC52 JUMP JUMPDEST PUSH2 0xC37 JUMP JUMPDEST SWAP1 POP DUP3 DUP2 MSTORE PUSH1 0x20 DUP2 ADD DUP5 DUP5 DUP5 ADD GT ISZERO PUSH2 0xCC1 JUMPI PUSH2 0xCC0 PUSH2 0xBD2 JUMP JUMPDEST JUMPDEST PUSH2 0xCCC DUP5 DUP3 DUP6 PUSH2 0xC83 JUMP JUMPDEST POP SWAP4 SWAP3 POP POP POP JUMP JUMPDEST PUSH1 0x0 DUP3 PUSH1 0x1F DUP4 ADD SLT PUSH2 0xCE9 JUMPI PUSH2 0xCE8 PUSH2 0xBCD JUMP JUMPDEST JUMPDEST DUP2 CALLDATALOAD PUSH2 0xCF9 DUP5 DUP3 PUSH1 0x20 DUP7 ADD PUSH2 0xC92 JUMP JUMPDEST SWAP2 POP POP SWAP3 SWAP2 POP POP JUMP JUMPDEST PUSH2 0xD0B DUP2 PUSH2 0xB46 JUMP JUMPDEST DUP2 EQ PUSH2 0xD16 JUMPI PUSH1 0x0 DUP1 REVERT JUMPDEST POP JUMP JUMPDEST PUSH1 0x0 DUP2 CALLDATALOAD SWAP1 POP PUSH2 0xD28 DUP2 PUSH2 0xD02 JUMP JUMPDEST SWAP3 SWAP2 POP POP JUMP JUMPDEST PUSH1 0x0 DUP1 PUSH1 0x0 PUSH1 0x60 DUP5 DUP7 SUB SLT ISZERO PUSH2 0xD47 JUMPI PUSH2 0xD46 PUSH2 0x9FF JUMP JUMPDEST JUMPDEST PUSH1 0x0 DUP5 ADD CALLDATALOAD PUSH8 0xFFFFFFFFFFFFFFFF DUP2 GT ISZERO PUSH2 0xD65 JUMPI PUSH2 0xD64 PUSH2 0xA04 JUMP JUMPDEST JUMPDEST PUSH2 0xD71 DUP7 DUP3 DUP8 ADD PUSH2 0xCD4 JUMP JUMPDEST SWAP4 POP POP PUSH1 0x20 PUSH2 0xD82 DUP7 DUP3 DUP8 ADD PUSH2 0xD19 JUMP JUMPDEST SWAP3 POP POP PUSH1 0x40 DUP5 ADD CALLDATALOAD PUSH8 0xFFFFFFFFFFFFFFFF DUP2 GT ISZERO PUSH2 0xDA3 JUMPI PUSH2 0xDA2 PUSH2 0xA04 JUMP JUMPDEST JUMPDEST PUSH2 0xDAF DUP7 DUP3 DUP8 ADD PUSH2 0xCD4 JUMP JUMPDEST SWAP2 POP POP SWAP3 POP SWAP3 POP SWAP3 JUMP JUMPDEST PUSH1 0x0 PUSH1 0x20 DUP3 ADD SWAP1 POP PUSH2 0xDCE PUSH1 0x0 DUP4 ADD DUP5 PUSH2 0xB6B JUMP JUMPDEST SWAP3 SWAP2 POP POP JUMP JUMPDEST PUSH32 0x5573657220646F6573206E6F7420657869737400000000000000000000000000 PUSH1 0x0 DUP3 ADD MSTORE POP JUMP JUMPDEST PUSH1 0x0 PUSH2 0xE0A PUSH1 0x13 DUP4 PUSH2 0xA9F JUMP JUMPDEST SWAP2 POP PUSH2 0xE15 DUP3 PUSH2 0xDD4 JUMP JUMPDEST PUSH1 0x20 DUP3 ADD SWAP1 POP SWAP2 SWAP1 POP JUMP JUMPDEST PUSH1 0x0 PUSH1 0x20 DUP3 ADD SWAP1 POP DUP2 DUP2 SUB PUSH1 0x0 DUP4 ADD MSTORE PUSH2 0xE39 DUP2 PUSH2 0xDFD JUMP JUMPDEST SWAP1 POP SWAP2 SWAP1 POP JUMP JUMPDEST PUSH32 0x4E487B7100000000000000000000000000000000000000000000000000000000 PUSH1 0x0 MSTORE PUSH1 0x22 PUSH1 0x4 MSTORE PUSH1 0x24 PUSH1 0x0 REVERT JUMPDEST PUSH1 0x0 PUSH1 0x2 DUP3 DIV SWAP1 POP PUSH1 0x1 DUP3 AND DUP1 PUSH2 0xE87 JUMPI PUSH1 0x7F DUP3 AND SWAP2 POP JUMPDEST PUSH1 0x20 DUP3 LT DUP2 SUB PUSH2 0xE9A JUMPI PUSH2 0xE99 PUSH2 0xE40 JUMP JUMPDEST JUMPDEST POP SWAP2 SWAP1 POP JUMP JUMPDEST PUSH1 0x0 DUP2 SWAP1 POP SWAP3 SWAP2 POP POP JUMP JUMPDEST PUSH1 0x0 PUSH2 0xEB6 DUP3 PUSH2 0xA94 JUMP JUMPDEST PUSH2 0xEC0 DUP2 DUP6 PUSH2 0xEA0 JUMP JUMPDEST SWAP4 POP PUSH2 0xED0 DUP2 DUP6 PUSH1 0x20 DUP7 ADD PUSH2 0xAB0 JUMP JUMPDEST DUP1 DUP5 ADD SWAP2 POP POP SWAP3 SWAP2 POP POP JUMP JUMPDEST PUSH1 0x0 PUSH2 0xEE8 DUP3 DUP5 PUSH2 0xEAB JUMP JUMPDEST SWAP2 POP DUP2 SWAP1 POP SWAP3 SWAP2 POP POP JUMP JUMPDEST PUSH32 0x496E76616C69642063726564656E7469616C7300000000000000000000000000 PUSH1 0x0 DUP3 ADD MSTORE POP JUMP JUMPDEST PUSH1 0x0 PUSH2 0xF29 PUSH1 0x13 DUP4 PUSH2 0xA9F JUMP JUMPDEST SWAP2 POP PUSH2 0xF34 DUP3 PUSH2 0xEF3 JUMP JUMPDEST PUSH1 0x20 DUP3 ADD SWAP1 POP SWAP2 SWAP1 POP JUMP JUMPDEST PUSH1 0x0 PUSH1 0x20 DUP3 ADD SWAP1 POP DUP2 DUP2 SUB PUSH1 0x0 DUP4 ADD MSTORE PUSH2 0xF58 DUP2 PUSH2 0xF1C JUMP JUMPDEST SWAP1 POP SWAP2 SWAP1 POP JUMP JUMPDEST PUSH32 0x496E76616C696420757365722074797065000000000000000000000000000000 PUSH1 0x0 DUP3 ADD MSTORE POP JUMP JUMPDEST PUSH1 0x0 PUSH2 0xF95 PUSH1 0x11 DUP4 PUSH2 0xA9F JUMP JUMPDEST SWAP2 POP PUSH2 0xFA0 DUP3 PUSH2 0xF5F JUMP JUMPDEST PUSH1 0x20 DUP3 ADD SWAP1 POP SWAP2 SWAP1 POP JUMP JUMPDEST PUSH1 0x0 PUSH1 0x20 DUP3 ADD SWAP1 POP DUP2 DUP2 SUB PUSH1 0x0 DUP4 ADD MSTORE PUSH2 0xFC4 DUP2 PUSH2 0xF88 JUMP JUMPDEST SWAP1 POP SWAP2 SWAP1 POP JUMP JUMPDEST PUSH32 0x5573657220616C72656164792065786973747300000000000000000000000000 PUSH1 0x0 DUP3 ADD MSTORE POP JUMP JUMPDEST PUSH1 0x0 PUSH2 0x1001 PUSH1 0x13 DUP4 PUSH2 0xA9F JUMP JUMPDEST SWAP2 POP PUSH2 0x100C DUP3 PUSH2 0xFCB JUMP JUMPDEST PUSH1 0x20 DUP3 ADD SWAP1 POP SWAP2 SWAP1 POP JUMP JUMPDEST PUSH1 0x0 PUSH1 0x20 DUP3 ADD SWAP1 POP DUP2 DUP2 SUB PUSH1 0x0 DUP4 ADD MSTORE PUSH2 0x1030 DUP2 PUSH2 0xFF4 JUMP JUMPDEST SWAP1 POP SWAP2 SWAP1 POP JUMP JUMPDEST PUSH32 0x456D61696C20616C726561647920726567697374657265640000000000000000 PUSH1 0x0 DUP3 ADD MSTORE POP JUMP JUMPDEST PUSH1 0x0 PUSH2 0x106D PUSH1 0x18 DUP4 PUSH2 0xA9F JUMP JUMPDEST SWAP2 POP PUSH2 0x1078 DUP3 PUSH2 0x1037 JUMP JUMPDEST PUSH1 0x20 DUP3 ADD SWAP1 POP SWAP2 SWAP1 POP JUMP JUMPDEST PUSH1 0x0 PUSH1 0x20 DUP3 ADD SWAP1 POP DUP2 DUP2 SUB PUSH1 0x0 DUP4 ADD MSTORE PUSH2 0x109C DUP2 PUSH2 0x1060 JUMP JUMPDEST SWAP1 POP SWAP2 SWAP1 POP JUMP JUMPDEST PUSH1 0x0 DUP2 SWAP1 POP DUP2 PUSH1 0x0 MSTORE PUSH1 0x20 PUSH1 0x0 KECCAK256 SWAP1 POP SWAP2 SWAP1 POP JUMP JUMPDEST PUSH1 0x0 PUSH1 0x20 PUSH1 0x1F DUP4 ADD DIV SWAP1 POP SWAP2 SWAP1 POP JUMP JUMPDEST PUSH1 0x0 DUP3 DUP3 SHL SWAP1 POP SWAP3 SWAP2 POP POP JUMP JUMPDEST PUSH1 0x0 PUSH1 0x8 DUP4 MUL PUSH2 0x1105 PUSH32 0xFFFFFFFFFFFFFFFFFFFFFFFFFFFFFFFFFFFFFFFFFFFFFFFFFFFFFFFFFFFFFFFF DUP3 PUSH2 0x10C8 JUMP JUMPDEST PUSH2 0x110F DUP7 DUP4 PUSH2 0x10C8 JUMP JUMPDEST SWAP6 POP DUP1 NOT DUP5 AND SWAP4 POP DUP1 DUP7 AND DUP5 OR SWAP3 POP POP POP SWAP4 SWAP3 POP POP POP JUMP JUMPDEST PUSH1 0x0 DUP2 SWAP1 POP SWAP2 SWAP1 POP JUMP JUMPDEST PUSH1 0x0 DUP2 SWAP1 POP SWAP2 SWAP1 POP JUMP JUMPDEST PUSH1 0x0 PUSH2 0x1156 PUSH2 0x1151 PUSH2 0x114C DUP5 PUSH2 0x1127 JUMP JUMPDEST PUSH2 0x1131 JUMP JUMPDEST PUSH2 0x1127 JUMP JUMPDEST SWAP1 POP SWAP2 SWAP1 POP JUMP JUMPDEST PUSH1 0x0 DUP2 SWAP1 POP SWAP2 SWAP1 POP JUMP JUMPDEST PUSH2 0x1170 DUP4 PUSH2 0x113B JUMP JUMPDEST PUSH2 0x1184 PUSH2 0x117C DUP3 PUSH2 0x115D JUMP JUMPDEST DUP5 DUP5 SLOAD PUSH2 0x10D5 JUMP JUMPDEST DUP3 SSTORE POP POP POP POP JUMP JUMPDEST PUSH1 0x0 SWAP1 JUMP JUMPDEST PUSH2 0x1199 PUSH2 0x118C JUMP JUMPDEST PUSH2 0x11A4 DUP2 DUP5 DUP5 PUSH2 0x1167 JUMP JUMPDEST POP POP POP JUMP JUMPDEST JUMPDEST DUP2 DUP2 LT ISZERO PUSH2 0x11C8 JUMPI PUSH2 0x11BD PUSH1 0x0 DUP3 PUSH2 0x1191 JUMP JUMPDEST PUSH1 0x1 DUP2 ADD SWAP1 POP PUSH2 0x11AA JUMP JUMPDEST POP POP JUMP JUMPDEST PUSH1 0x1F DUP3 GT ISZERO PUSH2 0x120D JUMPI PUSH2 0x11DE DUP2 PUSH2 0x10A3 JUMP JUMPDEST PUSH2 0x11E7 DUP5 PUSH2 0x10B8 JUMP JUMPDEST DUP2 ADD PUSH1 0x20 DUP6 LT ISZERO PUSH2 0x11F6 JUMPI DUP2 SWAP1 POP JUMPDEST PUSH2 0x120A PUSH2 0x1202 DUP6 PUSH2 0x10B8 JUMP JUMPDEST DUP4 ADD DUP3 PUSH2 0x11A9 JUMP JUMPDEST POP POP JUMPDEST POP POP POP JUMP JUMPDEST PUSH1 0x0 DUP3 DUP3 SHR SWAP1 POP SWAP3 SWAP2 POP POP JUMP JUMPDEST PUSH1 0x0 PUSH2 0x1230 PUSH1 0x0 NOT DUP5 PUSH1 0x8 MUL PUSH2 0x1212 JUMP JUMPDEST NOT DUP1 DUP4 AND SWAP2 POP POP SWAP3 SWAP2 POP POP JUMP JUMPDEST PUSH1 0x0 PUSH2 0x1249 DUP4 DUP4 PUSH2 0x121F JUMP JUMPDEST SWAP2 POP DUP3 PUSH1 0x2 MUL DUP3 OR SWAP1 POP SWAP3 SWAP2 POP POP JUMP JUMPDEST PUSH2 0x1262 DUP3 PUSH2 0xA94 JUMP JUMPDEST PUSH8 0xFFFFFFFFFFFFFFFF DUP2 GT ISZERO PUSH2 0x127B JUMPI PUSH2 0x127A PUSH2 0xBD7 JUMP JUMPDEST JUMPDEST PUSH2 0x1285 DUP3 SLOAD PUSH2 0xE6F JUMP JUMPDEST PUSH2 0x1290 DUP3 DUP3 DUP6 PUSH2 0x11CC JUMP JUMPDEST PUSH1 0x0 PUSH1 0x20 SWAP1 POP PUSH1 0x1F DUP4 GT PUSH1 0x1 DUP2 EQ PUSH2 0x12C3 JUMPI PUSH1 0x0 DUP5 ISZERO PUSH2 0x12B1 JUMPI DUP3 DUP8 ADD MLOAD SWAP1 POP JUMPDEST PUSH2 0x12BB DUP6 DUP3 PUSH2 0x123D JUMP JUMPDEST DUP7 SSTORE POP PUSH2 0x1323 JUMP JUMPDEST PUSH1 0x1F NOT DUP5 AND PUSH2 0x12D1 DUP7 PUSH2 0x10A3 JUMP JUMPDEST PUSH1 0x0 JUMPDEST DUP3 DUP2 LT ISZERO PUSH2 0x12F9 JUMPI DUP5 DUP10 ADD MLOAD DUP3 SSTORE PUSH1 0x1 DUP3 ADD SWAP2 POP PUSH1 0x20 DUP6 ADD SWAP5 POP PUSH1 0x20 DUP2 ADD SWAP1 POP PUSH2 0x12D4 JUMP JUMPDEST DUP7 DUP4 LT ISZERO PUSH2 0x1316 JUMPI DUP5 DUP10 ADD MLOAD PUSH2 0x1312 PUSH1 0x1F DUP10 AND DUP3 PUSH2 0x121F JUMP JUMPDEST DUP4 SSTORE POP JUMPDEST PUSH1 0x1 PUSH1 0x2 DUP9 MUL ADD DUP9 SSTORE POP POP POP JUMPDEST POP POP POP POP POP POP JUMP INVALID LOG2 PUSH5 0x6970667358 0x22 SLT KECCAK256 0xDA PUSH5 0x9402F9695D 0xC4 MULMOD 0xA8 GT ISZERO EXP GT 0xF 0xAA SWAP4 SWAP6 PUSH31 0x45D019D6A79728F3EE023E800664736F6C6343000814003300000000000000 "},"methodIdentifiers":{"getUserType(address)":"8b3f863f","login(string,bytes32,string)":"dc510ecf","signup(string,bytes32,string)":"f3cdd475","users(address)":"a87430ba"}}}}}