{"contracts/ShipmentTracking.sol":{"ShipmentTracking":{"abi":[{"inputs":[],"stateMutability":"nonpayable","type":"constructor"},{"anonymous":false,"inputs":[{"indexed":true,"internalType":"string","name":"shipmentId","type":"string"},{"indexed":false,"internalType":"uint256","name":"latitude","type":"uint256"},{"indexed":false,"internalType":"uint256","name":"longitude","type":"uint256"},{"indexed":false,"internalType":"uint256","name":"timestamp","type":"uint256"}],"name":"LocationUpdated","type":"event"},{"inputs":[{"internalType":"string","name":"shipmentId","type":"string"},{"internalType":"address","name":"courier","type":"address"}],"name":"createShipment","outputs":[],"stateMutability":"nonpayable","type":"function"},{"inputs":[{"internalType":"string","name":"shipmentId","type":"string"}],"name":"deactivateShipment","outputs":[],"stateMutability":"nonpayable","type":"function"},{"inputs":[{"internalType":"string","name":"shipmentId","type":"string"}],"name":"getShipmentLocation","outputs":[{"internalType":"uint256","name":"latitude","type":"uint256"},{"internalType":"uint256","name":"longitude","type":"uint256"},{"internalType":"uint256","name":"timestamp","type":"uint256"}],"stateMutability":"view","type":"function"},{"inputs":[],"name":"owner","outputs":[{"internalType":"address","name":"","type":"address"}],"stateMutability":"view","type":"function"},{"inputs":[{"internalType":"string","name":"","type":"string"}],"name":"shipments","outputs":[{"internalType":"string","name":"id","type":"string"},{"internalType":"address","name":"courier","type":"address"},{"components":[{"internalType":"uint256","name":"latitude","type":"uint256"},{"internalType":"uint256","name":"longitude","type":"uint256"},{"internalType":"uint256","name":"timestamp","type":"uint256"}],"internalType":"struct ShipmentTracking.Location","name":"currentLocation","type":"tuple"},{"internalType":"bool","name":"isActive","type":"bool"}],"stateMutability":"view","type":"function"},{"inputs":[{"internalType":"string","name":"shipmentId","type":"string"},{"internalType":"uint256","name":"latitude","type":"uint256"},{"internalType":"uint256","name":"longitude","type":"uint256"}],"name":"updateLocation","outputs":[],"stateMutability":"nonpayable","type":"function"}],"evm":{"bytecode":{"linkReferences":{},"object":"608060405234801561001057600080fd5b5033600160006101000a81548173ffffffffffffffffffffffffffffffffffffffff021916908373ffffffffffffffffffffffffffffffffffffffff160217905550611340806100616000396000f3fe608060405234801561001057600080fd5b50600436106100625760003560e01c80634061605d146100675780634c6be01c146100995780635ceaef5b146100b55780638da5cb5b146100e857806394b4a21914610106578063e611c3d514610122575b600080fd5b610081600480360381019061007c9190610a48565b61013e565b60405161009093929190610aaa565b60405180910390f35b6100b360048036038101906100ae9190610b0d565b61021a565b005b6100cf60048036038101906100ca9190610a48565b61044a565b6040516100df9493929190610ca8565b60405180910390f35b6100f061056d565b6040516100fd9190610cf4565b60405180910390f35b610120600480360381019061011b9190610d3b565b610593565b005b61013c60048036038101906101379190610a48565b6107b4565b005b600080600080846040516101529190610dd3565b908152602001604051809103902060050160009054906101000a900460ff166101b0576040517f08c379a00000000000000000000000000000000000000000000000000000000081526004016101a790610e36565b60405180910390fd5b600080856040516101c19190610dd3565b908152602001604051809103902060020160405180606001604052908160008201548152602001600182015481526020016002820154815250509050806000015181602001518260400151935093509350509193909250565b82600160009054906101000a900473ffffffffffffffffffffffffffffffffffffffff1673ffffffffffffffffffffffffffffffffffffffff163373ffffffffffffffffffffffffffffffffffffffff1614806102e357506000816040516102829190610dd3565b908152602001604051809103902060010160009054906101000a900473ffffffffffffffffffffffffffffffffffffffff1673ffffffffffffffffffffffffffffffffffffffff163373ffffffffffffffffffffffffffffffffffffffff16145b610322576040517f08c379a000000000000000000000000000000000000000000000000000000000815260040161031990610ea2565b60405180910390fd5b6000846040516103329190610dd3565b908152602001604051809103902060050160009054906101000a900460ff16610390576040517f08c379a000000000000000000000000000000000000000000000000000000000815260040161038790610f0e565b60405180910390fd5b60006040518060600160405280858152602001848152602001428152509050806000866040516103c09190610dd3565b9081526020016040518091039020600201600082015181600001556020820151816001015560408201518160020155905050846040516104009190610dd3565b60405180910390207fc218617dc546d5d529c480f60a0ca40d6d5fbd683628f47d08619e58f2a1507085854260405161043b93929190610aaa565b60405180910390a25050505050565b60008180516020810182018051848252602083016020850120818352809550505050505060009150905080600001805461048390610f5d565b80601f01602080910402602001604051908101604052809291908181526020018280546104af90610f5d565b80156104fc5780601f106104d1576101008083540402835291602001916104fc565b820191906000526020600020905b8154815290600101906020018083116104df57829003601f168201915b5050505050908060010160009054906101000a900473ffffffffffffffffffffffffffffffffffffffff1690806002016040518060600160405290816000820154815260200160018201548152602001600282015481525050908060050160009054906101000a900460ff16905084565b600160009054906101000a900473ffffffffffffffffffffffffffffffffffffffff1681565b600160009054906101000a900473ffffffffffffffffffffffffffffffffffffffff1673ffffffffffffffffffffffffffffffffffffffff163373ffffffffffffffffffffffffffffffffffffffff1614610623576040517f08c379a000000000000000000000000000000000000000000000000000000000815260040161061a90611000565b60405180910390fd5b6000826040516106339190610dd3565b908152602001604051809103902060050160009054906101000a900460ff1615610692576040517f08c379a00000000000000000000000000000000000000000000000000000000081526004016106899061106c565b60405180910390fd5b60405180608001604052808381526020018273ffffffffffffffffffffffffffffffffffffffff1681526020016040518060600160405280600081526020016000815260200160008152508152602001600115158152506000836040516106f99190610dd3565b9081526020016040518091039020600082015181600001908161071c9190611238565b5060208201518160010160006101000a81548173ffffffffffffffffffffffffffffffffffffffff021916908373ffffffffffffffffffffffffffffffffffffffff160217905550604082015181600201600082015181600001556020820151816001015560408201518160020155505060608201518160050160006101000a81548160ff0219169083151502179055509050505050565b600160009054906101000a900473ffffffffffffffffffffffffffffffffffffffff1673ffffffffffffffffffffffffffffffffffffffff163373ffffffffffffffffffffffffffffffffffffffff1614610844576040517f08c379a000000000000000000000000000000000000000000000000000000000815260040161083b90611000565b60405180910390fd5b6000816040516108549190610dd3565b908152602001604051809103902060050160009054906101000a900460ff166108b2576040517f08c379a00000000000000000000000000000000000000000000000000000000081526004016108a990610f0e565b60405180910390fd5b600080826040516108c39190610dd3565b908152602001604051809103902060050160006101000a81548160ff02191690831515021790555050565b6000604051905090565b600080fd5b600080fd5b600080fd5b600080fd5b6000601f19601f8301169050919050565b7f4e487b7100000000000000000000000000000000000000000000000000000000600052604160045260246000fd5b6109558261090c565b810181811067ffffffffffffffff821117156109745761097361091d565b5b80604052505050565b60006109876108ee565b9050610993828261094c565b919050565b600067ffffffffffffffff8211156109b3576109b261091d565b5b6109bc8261090c565b9050602081019050919050565b82818337600083830152505050565b60006109eb6109e684610998565b61097d565b905082815260208101848484011115610a0757610a06610907565b5b610a128482856109c9565b509392505050565b600082601f830112610a2f57610a2e610902565b5b8135610a3f8482602086016109d8565b91505092915050565b600060208284031215610a5e57610a5d6108f8565b5b600082013567ffffffffffffffff811115610a7c57610a7b6108fd565b5b610a8884828501610a1a565b91505092915050565b6000819050919050565b610aa481610a91565b82525050565b6000606082019050610abf6000830186610a9b565b610acc6020830185610a9b565b610ad96040830184610a9b565b949350505050565b610aea81610a91565b8114610af557600080fd5b50565b600081359050610b0781610ae1565b92915050565b600080600060608486031215610b2657610b256108f8565b5b600084013567ffffffffffffffff811115610b4457610b436108fd565b5b610b5086828701610a1a565b9350506020610b6186828701610af8565b9250506040610b7286828701610af8565b9150509250925092565b600081519050919050565b600082825260208201905092915050565b60005b83811015610bb6578082015181840152602081019050610b9b565b60008484015250505050565b6000610bcd82610b7c565b610bd78185610b87565b9350610be7818560208601610b98565b610bf08161090c565b840191505092915050565b600073ffffffffffffffffffffffffffffffffffffffff82169050919050565b6000610c2682610bfb565b9050919050565b610c3681610c1b565b82525050565b610c4581610a91565b82525050565b606082016000820151610c616000850182610c3c565b506020820151610c746020850182610c3c565b506040820151610c876040850182610c3c565b50505050565b60008115159050919050565b610ca281610c8d565b82525050565b600060c0820190508181036000830152610cc28187610bc2565b9050610cd16020830186610c2d565b610cde6040830185610c4b565b610ceb60a0830184610c99565b95945050505050565b6000602082019050610d096000830184610c2d565b92915050565b610d1881610c1b565b8114610d2357600080fd5b50565b600081359050610d3581610d0f565b92915050565b60008060408385031215610d5257610d516108f8565b5b600083013567ffffffffffffffff811115610d7057610d6f6108fd565b5b610d7c85828601610a1a565b9250506020610d8d85828601610d26565b9150509250929050565b600081905092915050565b6000610dad82610b7c565b610db78185610d97565b9350610dc7818560208601610b98565b80840191505092915050565b6000610ddf8284610da2565b915081905092915050565b7f536869706d656e74206e6f7420666f756e640000000000000000000000000000600082015250565b6000610e20601283610b87565b9150610e2b82610dea565b602082019050919050565b60006020820190508181036000830152610e4f81610e13565b9050919050565b7f4e6f7420617574686f72697a6564000000000000000000000000000000000000600082015250565b6000610e8c600e83610b87565b9150610e9782610e56565b602082019050919050565b60006020820190508181036000830152610ebb81610e7f565b9050919050565b7f536869706d656e74206e6f742061637469766500000000000000000000000000600082015250565b6000610ef8601383610b87565b9150610f0382610ec2565b602082019050919050565b60006020820190508181036000830152610f2781610eeb565b9050919050565b7f4e487b7100000000000000000000000000000000000000000000000000000000600052602260045260246000fd5b60006002820490506001821680610f7557607f821691505b602082108103610f8857610f87610f2e565b5b50919050565b7f4f6e6c79206f776e65722063616e20706572666f726d2074686973206163746960008201527f6f6e000000000000000000000000000000000000000000000000000000000000602082015250565b6000610fea602283610b87565b9150610ff582610f8e565b604082019050919050565b6000602082019050818103600083015261101981610fdd565b9050919050565b7f536869706d656e7420616c726561647920657869737473000000000000000000600082015250565b6000611056601783610b87565b915061106182611020565b602082019050919050565b6000602082019050818103600083015261108581611049565b9050919050565b60008190508160005260206000209050919050565b60006020601f8301049050919050565b600082821b905092915050565b6000600883026110ee7fffffffffffffffffffffffffffffffffffffffffffffffffffffffffffffffff826110b1565b6110f886836110b1565b95508019841693508086168417925050509392505050565b6000819050919050565b600061113561113061112b84610a91565b611110565b610a91565b9050919050565b6000819050919050565b61114f8361111a565b61116361115b8261113c565b8484546110be565b825550505050565b600090565b61117861116b565b611183818484611146565b505050565b5b818110156111a75761119c600082611170565b600181019050611189565b5050565b601f8211156111ec576111bd8161108c565b6111c6846110a1565b810160208510156111d5578190505b6111e96111e1856110a1565b830182611188565b50505b505050565b600082821c905092915050565b600061120f600019846008026111f1565b1980831691505092915050565b600061122883836111fe565b9150826002028217905092915050565b61124182610b7c565b67ffffffffffffffff81111561125a5761125961091d565b5b6112648254610f5d565b61126f8282856111ab565b600060209050601f8311600181146112a25760008415611290578287015190505b61129a858261121c565b865550611302565b601f1984166112b08661108c565b60005b828110156112d8578489015182556001820191506020850194506020810190506112b3565b868310156112f557848901516112f1601f8916826111fe565b8355505b6001600288020188555050505b50505050505056fea2646970667358221220dc5a429c4d5c6902f26dbdfe804ec740bc8066556086a11ecdeaaaddcda603f764736f6c63430008140033","opcodes":"PUSH1 0x80 PUSH1 0x40 MSTORE CALLVALUE DUP1 ISZERO PUSH2 0x10 JUMPI PUSH1 0x0 DUP1 REVERT JUMPDEST POP CALLER PUSH1 0x1 PUSH1 0x0 PUSH2 0x100 EXP DUP2 SLOAD DUP2 PUSH20 0xFFFFFFFFFFFFFFFFFFFFFFFFFFFFFFFFFFFFFFFF MUL NOT AND SWAP1 DUP4 PUSH20 0xFFFFFFFFFFFFFFFFFFFFFFFFFFFFFFFFFFFFFFFF AND MUL OR SWAP1 SSTORE POP PUSH2 0x1340 DUP1 PUSH2 0x61 PUSH1 0x0 CODECOPY PUSH1 0x0 RETURN INVALID PUSH1 0x80 PUSH1 0x40 MSTORE CALLVALUE DUP1 ISZERO PUSH2 0x10 JUMPI PUSH1 0x0 DUP1 REVERT JUMPDEST POP PUSH1 0x4 CALLDATASIZE LT PUSH2 0x62 JUMPI PUSH1 0x0 CALLDATALOAD PUSH1 0xE0 SHR DUP1 PUSH4 0x4061605D EQ PUSH2 0x67 JUMPI DUP1 PUSH4 0x4C6BE01C EQ PUSH2 0x99 JUMPI DUP1 PUSH4 0x5CEAEF5B EQ PUSH2 0xB5 JUMPI DUP1 PUSH4 0x8DA5CB5B EQ PUSH2 0xE8 JUMPI DUP1 PUSH4 0x94B4A219 EQ PUSH2 0x106 JUMPI DUP1 PUSH4 0xE611C3D5 EQ PUSH2 0x122 JUMPI JUMPDEST PUSH1 0x0 DUP1 REVERT JUMPDEST PUSH2 0x81 PUSH1 0x4 DUP1 CALLDATASIZE SUB DUP2 ADD SWAP1 PUSH2 0x7C SWAP2 SWAP1 PUSH2 0xA48 JUMP JUMPDEST PUSH2 0x13E JUMP JUMPDEST PUSH1 0x40 MLOAD PUSH2 0x90 SWAP4 SWAP3 SWAP2 SWAP1 PUSH2 0xAAA JUMP JUMPDEST PUSH1 0x40 MLOAD DUP1 SWAP2 SUB SWAP1 RETURN JUMPDEST PUSH2 0xB3 PUSH1 0x4 DUP1 CALLDATASIZE SUB DUP2 ADD SWAP1 PUSH2 0xAE SWAP2 SWAP1 PUSH2 0xB0D JUMP JUMPDEST PUSH2 0x21A JUMP JUMPDEST STOP JUMPDEST PUSH2 0xCF PUSH1 0x4 DUP1 CALLDATASIZE SUB DUP2 ADD SWAP1 PUSH2 0xCA SWAP2 SWAP1 PUSH2 0xA48 JUMP JUMPDEST PUSH2 0x44A JUMP JUMPDEST PUSH1 0x40 MLOAD PUSH2 0xDF SWAP5 SWAP4 SWAP3 SWAP2 SWAP1 PUSH2 0xCA8 JUMP JUMPDEST PUSH1 0x40 MLOAD DUP1 SWAP2 SUB SWAP1 RETURN JUMPDEST PUSH2 0xF0 PUSH2 0x56D JUMP JUMPDEST PUSH1 0x40 MLOAD PUSH2 0xFD SWAP2 SWAP1 PUSH2 0xCF4 JUMP JUMPDEST PUSH1 0x40 MLOAD DUP1 SWAP2 SUB SWAP1 RETURN JUMPDEST PUSH2 0x120 PUSH1 0x4 DUP1 CALLDATASIZE SUB DUP2 ADD SWAP1 PUSH2 0x11B SWAP2 SWAP1 PUSH2 0xD3B JUMP JUMPDEST PUSH2 0x593 JUMP JUMPDEST STOP JUMPDEST PUSH2 0x13C PUSH1 0x4 DUP1 CALLDATASIZE SUB DUP2 ADD SWAP1 PUSH2 0x137 SWAP2 SWAP1 PUSH2 0xA48 JUMP JUMPDEST PUSH2 0x7B4 JUMP JUMPDEST STOP JUMPDEST PUSH1 0x0 DUP1 PUSH1 0x0 DUP1 DUP5 PUSH1 0x40 MLOAD PUSH2 0x152 SWAP2 SWAP1 PUSH2 0xDD3 JUMP JUMPDEST SWAP1 DUP2 MSTORE PUSH1 0x20 ADD PUSH1 0x40 MLOAD DUP1 SWAP2 SUB SWAP1 KECCAK256 PUSH1 0x5 ADD PUSH1 0x0 SWAP1 SLOAD SWAP1 PUSH2 0x100 EXP SWAP1 DIV PUSH1 0xFF AND PUSH2 0x1B0 JUMPI PUSH1 0x40 MLOAD PUSH32 0x8C379A000000000000000000000000000000000000000000000000000000000 DUP2 MSTORE PUSH1 0x4 ADD PUSH2 0x1A7 SWAP1 PUSH2 0xE36 JUMP JUMPDEST PUSH1 0x40 MLOAD DUP1 SWAP2 SUB SWAP1 REVERT JUMPDEST PUSH1 0x0 DUP1 DUP6 PUSH1 0x40 MLOAD PUSH2 0x1C1 SWAP2 SWAP1 PUSH2 0xDD3 JUMP JUMPDEST SWAP1 DUP2 MSTORE PUSH1 0x20 ADD PUSH1 0x40 MLOAD DUP1 SWAP2 SUB SWAP1 KECCAK256 PUSH1 0x2 ADD PUSH1 0x40 MLOAD DUP1 PUSH1 0x60 ADD PUSH1 0x40 MSTORE SWAP1 DUP2 PUSH1 0x0 DUP3 ADD SLOAD DUP2 MSTORE PUSH1 0x20 ADD PUSH1 0x1 DUP3 ADD SLOAD DUP2 MSTORE PUSH1 0x20 ADD PUSH1 0x2 DUP3 ADD SLOAD DUP2 MSTORE POP POP SWAP1 POP DUP1 PUSH1 0x0 ADD MLOAD DUP2 PUSH1 0x20 ADD MLOAD DUP3 PUSH1 0x40 ADD MLOAD SWAP4 POP SWAP4 POP SWAP4 POP POP SWAP2 SWAP4 SWAP1 SWAP3 POP JUMP JUMPDEST DUP3 PUSH1 0x1 PUSH1 0x0 SWAP1 SLOAD SWAP1 PUSH2 0x100 EXP SWAP1 DIV PUSH20 0xFFFFFFFFFFFFFFFFFFFFFFFFFFFFFFFFFFFFFFFF AND PUSH20 0xFFFFFFFFFFFFFFFFFFFFFFFFFFFFFFFFFFFFFFFF AND CALLER PUSH20 0xFFFFFFFFFFFFFFFFFFFFFFFFFFFFFFFFFFFFFFFF AND EQ DUP1 PUSH2 0x2E3 JUMPI POP PUSH1 0x0 DUP2 PUSH1 0x40 MLOAD PUSH2 0x282 SWAP2 SWAP1 PUSH2 0xDD3 JUMP JUMPDEST SWAP1 DUP2 MSTORE PUSH1 0x20 ADD PUSH1 0x40 MLOAD DUP1 SWAP2 SUB SWAP1 KECCAK256 PUSH1 0x1 ADD PUSH1 0x0 SWAP1 SLOAD SWAP1 PUSH2 0x100 EXP SWAP1 DIV PUSH20 0xFFFFFFFFFFFFFFFFFFFFFFFFFFFFFFFFFFFFFFFF AND PUSH20 0xFFFFFFFFFFFFFFFFFFFFFFFFFFFFFFFFFFFFFFFF AND CALLER PUSH20 0xFFFFFFFFFFFFFFFFFFFFFFFFFFFFFFFFFFFFFFFF AND EQ JUMPDEST PUSH2 0x322 JUMPI PUSH1 0x40 MLOAD PUSH32 0x8C379A000000000000000000000000000000000000000000000000000000000 DUP2 MSTORE PUSH1 0x4 ADD PUSH2 0x319 SWAP1 PUSH2 0xEA2 JUMP JUMPDEST PUSH1 0x40 MLOAD DUP1 SWAP2 SUB SWAP1 REVERT JUMPDEST PUSH1 0x0 DUP5 PUSH1 0x40 MLOAD PUSH2 0x332 SWAP2 SWAP1 PUSH2 0xDD3 JUMP JUMPDEST SWAP1 DUP2 MSTORE PUSH1 0x20 ADD PUSH1 0x40 MLOAD DUP1 SWAP2 SUB SWAP1 KECCAK256 PUSH1 0x5 ADD PUSH1 0x0 SWAP1 SLOAD SWAP1 PUSH2 0x100 EXP SWAP1 DIV PUSH1 0xFF AND PUSH2 0x390 JUMPI PUSH1 0x40 MLOAD PUSH32 0x8C379A000000000000000000000000000000000000000000000000000000000 DUP2 MSTORE PUSH1 0x4 ADD PUSH2 0x387 SWAP1 PUSH2 0xF0E JUMP JUMPDEST PUSH1 0x40 MLOAD DUP1 SWAP2 SUB SWAP1 REVERT JUMPDEST PUSH1 0x0 PUSH1 0x40 MLOAD DUP1 PUSH1 0x60 ADD PUSH1 0x40 MSTORE DUP1 DUP6 DUP2 MSTORE PUSH1 0x20 ADD DUP5 DUP2 MSTORE PUSH1 0x20 ADD TIMESTAMP DUP2 MSTORE POP SWAP1 POP DUP1 PUSH1 0x0 DUP7 PUSH1 0x40 MLOAD PUSH2 0x3C0 SWAP2 SWAP1 PUSH2 0xDD3 JUMP JUMPDEST SWAP1 DUP2 MSTORE PUSH1 0x20 ADD PUSH1 0x40 MLOAD DUP1 SWAP2 SUB SWAP1 KECCAK256 PUSH1 0x2 ADD PUSH1 0x0 DUP3 ADD MLOAD DUP2 PUSH1 0x0 ADD SSTORE PUSH1 0x20 DUP3 ADD MLOAD DUP2 PUSH1 0x1 ADD SSTORE PUSH1 0x40 DUP3 ADD MLOAD DUP2 PUSH1 0x2 ADD SSTORE SWAP1 POP POP DUP5 PUSH1 0x40 MLOAD PUSH2 0x400 SWAP2 SWAP1 PUSH2 0xDD3 JUMP JUMPDEST PUSH1 0x40 MLOAD DUP1 SWAP2 SUB SWAP1 KECCAK256 PUSH32 0xC218617DC546D5D529C480F60A0CA40D6D5FBD683628F47D08619E58F2A15070 DUP6 DUP6 TIMESTAMP PUSH1 0x40 MLOAD PUSH2 0x43B SWAP4 SWAP3 SWAP2 SWAP1 PUSH2 0xAAA JUMP JUMPDEST PUSH1 0x40 MLOAD DUP1 SWAP2 SUB SWAP1 LOG2 POP POP POP POP POP JUMP JUMPDEST PUSH1 0x0 DUP2 DUP1 MLOAD PUSH1 0x20 DUP2 ADD DUP3 ADD DUP1 MLOAD DUP5 DUP3 MSTORE PUSH1 0x20 DUP4 ADD PUSH1 0x20 DUP6 ADD KECCAK256 DUP2 DUP4 MSTORE DUP1 SWAP6 POP POP POP POP POP POP PUSH1 0x0 SWAP2 POP SWAP1 POP DUP1 PUSH1 0x0 ADD DUP1 SLOAD PUSH2 0x483 SWAP1 PUSH2 0xF5D JUMP JUMPDEST DUP1 PUSH1 0x1F ADD PUSH1 0x20 DUP1 SWAP2 DIV MUL PUSH1 0x20 ADD PUSH1 0x40 MLOAD SWAP1 DUP2 ADD PUSH1 0x40 MSTORE DUP1 SWAP3 SWAP2 SWAP1 DUP2 DUP2 MSTORE PUSH1 0x20 ADD DUP3 DUP1 SLOAD PUSH2 0x4AF SWAP1 PUSH2 0xF5D JUMP JUMPDEST DUP1 ISZERO PUSH2 0x4FC JUMPI DUP1 PUSH1 0x1F LT PUSH2 0x4D1 JUMPI PUSH2 0x100 DUP1 DUP4 SLOAD DIV MUL DUP4 MSTORE SWAP2 PUSH1 0x20 ADD SWAP2 PUSH2 0x4FC JUMP JUMPDEST DUP3 ADD SWAP2 SWAP1 PUSH1 0x0 MSTORE PUSH1 0x20 PUSH1 0x0 KECCAK256 SWAP1 JUMPDEST DUP2 SLOAD DUP2 MSTORE SWAP1 PUSH1 0x1 ADD SWAP1 PUSH1 0x20 ADD DUP1 DUP4 GT PUSH2 0x4DF JUMPI DUP3 SWAP1 SUB PUSH1 0x1F AND DUP3 ADD SWAP2 JUMPDEST POP POP POP POP POP SWAP1 DUP1 PUSH1 0x1 ADD PUSH1 0x0 SWAP1 SLOAD SWAP1 PUSH2 0x100 EXP SWAP1 DIV PUSH20 0xFFFFFFFFFFFFFFFFFFFFFFFFFFFFFFFFFFFFFFFF AND SWAP1 DUP1 PUSH1 0x2 ADD PUSH1 0x40 MLOAD DUP1 PUSH1 0x60 ADD PUSH1 0x40 MSTORE SWAP1 DUP2 PUSH1 0x0 DUP3 ADD SLOAD DUP2 MSTORE PUSH1 0x20 ADD PUSH1 0x1 DUP3 ADD SLOAD DUP2 MSTORE PUSH1 0x20 ADD PUSH1 0x2 DUP3 ADD SLOAD DUP2 MSTORE POP POP SWAP1 DUP1 PUSH1 0x5 ADD PUSH1 0x0 SWAP1 SLOAD SWAP1 PUSH2 0x100 EXP SWAP1 DIV PUSH1 0xFF AND SWAP1 POP DUP5 JUMP JUMPDEST PUSH1 0x1 PUSH1 0x0 SWAP1 SLOAD SWAP1 PUSH2 0x100 EXP SWAP1 DIV PUSH20 0xFFFFFFFFFFFFFFFFFFFFFFFFFFFFFFFFFFFFFFFF AND DUP2 JUMP JUMPDEST PUSH1 0x1 PUSH1 0x0 SWAP1 SLOAD SWAP1 PUSH2 0x100 EXP SWAP1 DIV PUSH20 0xFFFFFFFFFFFFFFFFFFFFFFFFFFFFFFFFFFFFFFFF AND PUSH20 0xFFFFFFFFFFFFFFFFFFFFFFFFFFFFFFFFFFFFFFFF AND CALLER PUSH20 0xFFFFFFFFFFFFFFFFFFFFFFFFFFFFFFFFFFFFFFFF AND EQ PUSH2 0x623 JUMPI PUSH1 0x40 MLOAD PUSH32 0x8C379A000000000000000000000000000000000000000000000000000000000 DUP2 MSTORE PUSH1 0x4 ADD PUSH2 0x61A SWAP1 PUSH2 0x1000 JUMP JUMPDEST PUSH1 0x40 MLOAD DUP1 SWAP2 SUB SWAP1 REVERT JUMPDEST PUSH1 0x0 DUP3 PUSH1 0x40 MLOAD PUSH2 0x633 SWAP2 SWAP1 PUSH2 0xDD3 JUMP JUMPDEST SWAP1 DUP2 MSTORE PUSH1 0x20 ADD PUSH1 0x40 MLOAD DUP1 SWAP2 SUB SWAP1 KECCAK256 PUSH1 0x5 ADD PUSH1 0x0 SWAP1 SLOAD SWAP1 PUSH2 0x100 EXP SWAP1 DIV PUSH1 0xFF AND ISZERO PUSH2 0x692 JUMPI PUSH1 0x40 MLOAD PUSH32 0x8C379A000000000000000000000000000000000000000000000000000000000 DUP2 MSTORE PUSH1 0x4 ADD PUSH2 0x689 SWAP1 PUSH2 0x106C JUMP JUMPDEST PUSH1 0x40 MLOAD DUP1 SWAP2 SUB SWAP1 REVERT JUMPDEST PUSH1 0x40 MLOAD DUP1 PUSH1 0x80 ADD PUSH1 0x40 MSTORE DUP1 DUP4 DUP2 MSTORE PUSH1 0x20 ADD DUP3 PUSH20 0xFFFFFFFFFFFFFFFFFFFFFFFFFFFFFFFFFFFFFFFF AND DUP2 MSTORE PUSH1 0x20 ADD PUSH1 0x40 MLOAD DUP1 PUSH1 0x60 ADD PUSH1 0x40 MSTORE DUP1 PUSH1 0x0 DUP2 MSTORE PUSH1 0x20 ADD PUSH1 0x0 DUP2 MSTORE PUSH1 0x20 ADD PUSH1 0x0 DUP2 MSTORE POP DUP2 MSTORE PUSH1 0x20 ADD PUSH1 0x1 ISZERO ISZERO DUP2 MSTORE POP PUSH1 0x0 DUP4 PUSH1 0x40 MLOAD PUSH2 0x6F9 SWAP2 SWAP1 PUSH2 0xDD3 JUMP JUMPDEST SWAP1 DUP2 MSTORE PUSH1 0x20 ADD PUSH1 0x40 MLOAD DUP1 SWAP2 SUB SWAP1 KECCAK256 PUSH1 0x0 DUP3 ADD MLOAD DUP2 PUSH1 0x0 ADD SWAP1 DUP2 PUSH2 0x71C SWAP2 SWAP1 PUSH2 0x1238 JUMP JUMPDEST POP PUSH1 0x20 DUP3 ADD MLOAD DUP2 PUSH1 0x1 ADD PUSH1 0x0 PUSH2 0x100 EXP DUP2 SLOAD DUP2 PUSH20 0xFFFFFFFFFFFFFFFFFFFFFFFFFFFFFFFFFFFFFFFF MUL NOT AND SWAP1 DUP4 PUSH20 0xFFFFFFFFFFFFFFFFFFFFFFFFFFFFFFFFFFFFFFFF AND MUL OR SWAP1 SSTORE POP PUSH1 0x40 DUP3 ADD MLOAD DUP2 PUSH1 0x2 ADD PUSH1 0x0 DUP3 ADD MLOAD DUP2 PUSH1 0x0 ADD SSTORE PUSH1 0x20 DUP3 ADD MLOAD DUP2 PUSH1 0x1 ADD SSTORE PUSH1 0x40 DUP3 ADD MLOAD DUP2 PUSH1 0x2 ADD SSTORE POP POP PUSH1 0x60 DUP3 ADD MLOAD DUP2 PUSH1 0x5 ADD PUSH1 0x0 PUSH2 0x100 EXP DUP2 SLOAD DUP2 PUSH1 0xFF MUL NOT AND SWAP1 DUP4 ISZERO ISZERO MUL OR SWAP1 SSTORE POP SWAP1 POP POP POP POP JUMP JUMPDEST PUSH1 0x1 PUSH1 0x0 SWAP1 SLOAD SWAP1 PUSH2 0x100 EXP SWAP1 DIV PUSH20 0xFFFFFFFFFFFFFFFFFFFFFFFFFFFFFFFFFFFFFFFF AND PUSH20 0xFFFFFFFFFFFFFFFFFFFFFFFFFFFFFFFFFFFFFFFF AND CALLER PUSH20 0xFFFFFFFFFFFFFFFFFFFFFFFFFFFFFFFFFFFFFFFF AND EQ PUSH2 0x844 JUMPI PUSH1 0x40 MLOAD PUSH32 0x8C379A000000000000000000000000000000000000000000000000000000000 DUP2 MSTORE PUSH1 0x4 ADD PUSH2 0x83B SWAP1 PUSH2 0x1000 JUMP JUMPDEST PUSH1 0x40 MLOAD DUP1 SWAP2 SUB SWAP1 REVERT JUMPDEST PUSH1 0x0 DUP2 PUSH1 0x40 MLOAD PUSH2 0x854 SWAP2 SWAP1 PUSH2 0xDD3 JUMP JUMPDEST SWAP1 DUP2 MSTORE PUSH1 0x20 ADD PUSH1 0x40 MLOAD DUP1 SWAP2 SUB SWAP1 KECCAK256 PUSH1 0x5 ADD PUSH1 0x0 SWAP1 SLOAD SWAP1 PUSH2 0x100 EXP SWAP1 DIV PUSH1 0xFF AND PUSH2 0x8B2 JUMPI PUSH1 0x40 MLOAD PUSH32 0x8C379A000000000000000000000000000000000000000000000000000000000 DUP2 MSTORE PUSH1 0x4 ADD PUSH2 0x8A9 SWAP1 PUSH2 0xF0E JUMP JUMPDEST PUSH1 0x40 MLOAD DUP1 SWAP2 SUB SWAP1 REVERT JUMPDEST PUSH1 0x0 DUP1 DUP3 PUSH1 0x40 MLOAD PUSH2 0x8C3 SWAP2 SWAP1 PUSH2 0xDD3 JUMP JUMPDEST SWAP1 DUP2 MSTORE PUSH1 0x20 ADD PUSH1 0x40 MLOAD DUP1 SWAP2 SUB SWAP1 KECCAK256 PUSH1 0x5 ADD PUSH1 0x0 PUSH2 0x100 EXP DUP2 SLOAD DUP2 PUSH1 0xFF MUL NOT AND SWAP1 DUP4 ISZERO ISZERO MUL OR SWAP1 SSTORE POP POP JUMP JUMPDEST PUSH1 0x0 PUSH1 0x40 MLOAD SWAP1 POP SWAP1 JUMP JUMPDEST PUSH1 0x0 DUP1 REVERT JUMPDEST PUSH1 0x0 DUP1 REVERT JUMPDEST PUSH1 0x0 DUP1 REVERT JUMPDEST PUSH1 0x0 DUP1 REVERT JUMPDEST PUSH1 0x0 PUSH1 0x1F NOT PUSH1 0x1F DUP4 ADD AND SWAP1 POP SWAP2 SWAP1 POP JUMP JUMPDEST PUSH32 0x4E487B7100000000000000000000000000000000000000000000000000000000 PUSH1 0x0 MSTORE PUSH1 0x41 PUSH1 0x4 MSTORE PUSH1 0x24 PUSH1 0x0 REVERT JUMPDEST PUSH2 0x955 DUP3 PUSH2 0x90C JUMP JUMPDEST DUP2 ADD DUP2 DUP2 LT PUSH8 0xFFFFFFFFFFFFFFFF DUP3 GT OR ISZERO PUSH2 0x974 JUMPI PUSH2 0x973 PUSH2 0x91D JUMP JUMPDEST JUMPDEST DUP1 PUSH1 0x40 MSTORE POP POP POP JUMP JUMPDEST PUSH1 0x0 PUSH2 0x987 PUSH2 0x8EE JUMP JUMPDEST SWAP1 POP PUSH2 0x993 DUP3 DUP3 PUSH2 0x94C JUMP JUMPDEST SWAP2 SWAP1 POP JUMP JUMPDEST PUSH1 0x0 PUSH8 0xFFFFFFFFFFFFFFFF DUP3 GT ISZERO PUSH2 0x9B3 JUMPI PUSH2 0x9B2 PUSH2 0x91D JUMP JUMPDEST JUMPDEST PUSH2 0x9BC DUP3 PUSH2 0x90C JUMP JUMPDEST SWAP1 POP PUSH1 0x20 DUP2 ADD SWAP1 POP SWAP2 SWAP1 POP JUMP JUMPDEST DUP3 DUP2 DUP4 CALLDATACOPY PUSH1 0x0 DUP4 DUP4 ADD MSTORE POP POP POP JUMP JUMPDEST PUSH1 0x0 PUSH2 0x9EB PUSH2 0x9E6 DUP5 PUSH2 0x998 JUMP JUMPDEST PUSH2 0x97D JUMP JUMPDEST SWAP1 POP DUP3 DUP2 MSTORE PUSH1 0x20 DUP2 ADD DUP5 DUP5 DUP5 ADD GT ISZERO PUSH2 0xA07 JUMPI PUSH2 0xA06 PUSH2 0x907 JUMP JUMPDEST JUMPDEST PUSH2 0xA12 DUP5 DUP3 DUP6 PUSH2 0x9C9 JUMP JUMPDEST POP SWAP4 SWAP3 POP POP POP JUMP JUMPDEST PUSH1 0x0 DUP3 PUSH1 0x1F DUP4 ADD SLT PUSH2 0xA2F JUMPI PUSH2 0xA2E PUSH2 0x902 JUMP JUMPDEST JUMPDEST DUP2 CALLDATALOAD PUSH2 0xA3F DUP5 DUP3 PUSH1 0x20 DUP7 ADD PUSH2 0x9D8 JUMP JUMPDEST SWAP2 POP POP SWAP3 SWAP2 POP POP JUMP JUMPDEST PUSH1 0x0 PUSH1 0x20 DUP3 DUP5 SUB SLT ISZERO PUSH2 0xA5E JUMPI PUSH2 0xA5D PUSH2 0x8F8 JUMP JUMPDEST JUMPDEST PUSH1 0x0 DUP3 ADD CALLDATALOAD PUSH8 0xFFFFFFFFFFFFFFFF DUP2 GT ISZERO PUSH2 0xA7C JUMPI PUSH2 0xA7B PUSH2 0x8FD JUMP JUMPDEST JUMPDEST PUSH2 0xA88 DUP5 DUP3 DUP6 ADD PUSH2 0xA1A JUMP JUMPDEST SWAP2 POP POP SWAP3 SWAP2 POP POP JUMP JUMPDEST PUSH1 0x0 DUP2 SWAP1 POP SWAP2 SWAP1 POP JUMP JUMPDEST PUSH2 0xAA4 DUP2 PUSH2 0xA91 JUMP JUMPDEST DUP3 MSTORE POP POP JUMP JUMPDEST PUSH1 0x0 PUSH1 0x60 DUP3 ADD SWAP1 POP PUSH2 0xABF PUSH1 0x0 DUP4 ADD DUP7 PUSH2 0xA9B JUMP JUMPDEST PUSH2 0xACC PUSH1 0x20 DUP4 ADD DUP6 PUSH2 0xA9B JUMP JUMPDEST PUSH2 0xAD9 PUSH1 0x40 DUP4 ADD DUP5 PUSH2 0xA9B JUMP JUMPDEST SWAP5 SWAP4 POP POP POP POP JUMP JUMPDEST PUSH2 0xAEA DUP2 PUSH2 0xA91 JUMP JUMPDEST DUP2 EQ PUSH2 0xAF5 JUMPI PUSH1 0x0 DUP1 REVERT JUMPDEST POP JUMP JUMPDEST PUSH1 0x0 DUP2 CALLDATALOAD SWAP1 POP PUSH2 0xB07 DUP2 PUSH2 0xAE1 JUMP JUMPDEST SWAP3 SWAP2 POP POP JUMP JUMPDEST PUSH1 0x0 DUP1 PUSH1 0x0 PUSH1 0x60 DUP5 DUP7 SUB SLT ISZERO PUSH2 0xB26 JUMPI PUSH2 0xB25 PUSH2 0x8F8 JUMP JUMPDEST JUMPDEST PUSH1 0x0 DUP5 ADD CALLDATALOAD PUSH8 0xFFFFFFFFFFFFFFFF DUP2 GT ISZERO PUSH2 0xB44 JUMPI PUSH2 0xB43 PUSH2 0x8FD JUMP JUMPDEST JUMPDEST PUSH2 0xB50 DUP7 DUP3 DUP8 ADD PUSH2 0xA1A JUMP JUMPDEST SWAP4 POP POP PUSH1 0x20 PUSH2 0xB61 DUP7 DUP3 DUP8 ADD PUSH2 0xAF8 JUMP JUMPDEST SWAP3 POP POP PUSH1 0x40 PUSH2 0xB72 DUP7 DUP3 DUP8 ADD PUSH2 0xAF8 JUMP JUMPDEST SWAP2 POP POP SWAP3 POP SWAP3 POP SWAP3 JUMP JUMPDEST PUSH1 0x0 DUP2 MLOAD SWAP1 POP SWAP2 SWAP1 POP JUMP JUMPDEST PUSH1 0x0 DUP3 DUP3 MSTORE PUSH1 0x20 DUP3 ADD SWAP1 POP SWAP3 SWAP2 POP POP JUMP JUMPDEST PUSH1 0x0 JUMPDEST DUP4 DUP2 LT ISZERO PUSH2 0xBB6 JUMPI DUP1 DUP3 ADD MLOAD DUP2 DUP5 ADD MSTORE PUSH1 0x20 DUP2 ADD SWAP1 POP PUSH2 0xB9B JUMP JUMPDEST PUSH1 0x0 DUP5 DUP5 ADD MSTORE POP POP POP POP JUMP JUMPDEST PUSH1 0x0 PUSH2 0xBCD DUP3 PUSH2 0xB7C JUMP JUMPDEST PUSH2 0xBD7 DUP2 DUP6 PUSH2 0xB87 JUMP JUMPDEST SWAP4 POP PUSH2 0xBE7 DUP2 DUP6 PUSH1 0x20 DUP7 ADD PUSH2 0xB98 JUMP JUMPDEST PUSH2 0xBF0 DUP2 PUSH2 0x90C JUMP JUMPDEST DUP5 ADD SWAP2 POP POP SWAP3 SWAP2 POP POP JUMP JUMPDEST PUSH1 0x0 PUSH20 0xFFFFFFFFFFFFFFFFFFFFFFFFFFFFFFFFFFFFFFFF DUP3 AND SWAP1 POP SWAP2 SWAP1 POP JUMP JUMPDEST PUSH1 0x0 PUSH2 0xC26 DUP3 PUSH2 0xBFB JUMP JUMPDEST SWAP1 POP SWAP2 SWAP1 POP JUMP JUMPDEST PUSH2 0xC36 DUP2 PUSH2 0xC1B JUMP JUMPDEST DUP3 MSTORE POP POP JUMP JUMPDEST PUSH2 0xC45 DUP2 PUSH2 0xA91 JUMP JUMPDEST DUP3 MSTORE POP POP JUMP JUMPDEST PUSH1 0x60 DUP3 ADD PUSH1 0x0 DUP3 ADD MLOAD PUSH2 0xC61 PUSH1 0x0 DUP6 ADD DUP3 PUSH2 0xC3C JUMP JUMPDEST POP PUSH1 0x20 DUP3 ADD MLOAD PUSH2 0xC74 PUSH1 0x20 DUP6 ADD DUP3 PUSH2 0xC3C JUMP JUMPDEST POP PUSH1 0x40 DUP3 ADD MLOAD PUSH2 0xC87 PUSH1 0x40 DUP6 ADD DUP3 PUSH2 0xC3C JUMP JUMPDEST POP POP POP POP JUMP JUMPDEST PUSH1 0x0 DUP2 ISZERO ISZERO SWAP1 POP SWAP2 SWAP1 POP JUMP JUMPDEST PUSH2 0xCA2 DUP2 PUSH2 0xC8D JUMP JUMPDEST DUP3 MSTORE POP POP JUMP JUMPDEST PUSH1 0x0 PUSH1 0xC0 DUP3 ADD SWAP1 POP DUP2 DUP2 SUB PUSH1 0x0 DUP4 ADD MSTORE PUSH2 0xCC2 DUP2 DUP8 PUSH2 0xBC2 JUMP JUMPDEST SWAP1 POP PUSH2 0xCD1 PUSH1 0x20 DUP4 ADD DUP7 PUSH2 0xC2D JUMP JUMPDEST PUSH2 0xCDE PUSH1 0x40 DUP4 ADD DUP6 PUSH2 0xC4B JUMP JUMPDEST PUSH2 0xCEB PUSH1 0xA0 DUP4 ADD DUP5 PUSH2 0xC99 JUMP JUMPDEST SWAP6 SWAP5 POP POP POP POP POP JUMP JUMPDEST PUSH1 0x0 PUSH1 0x20 DUP3 ADD SWAP1 POP PUSH2 0xD09 PUSH1 0x0 DUP4 ADD DUP5 PUSH2 0xC2D JUMP JUMPDEST SWAP3 SWAP2 POP POP JUMP JUMPDEST PUSH2 0xD18 DUP2 PUSH2 0xC1B JUMP JUMPDEST DUP2 EQ PUSH2 0xD23 JUMPI PUSH1 0x0 DUP1 REVERT JUMPDEST POP JUMP JUMPDEST PUSH1 0x0 DUP2 CALLDATALOAD SWAP1 POP PUSH2 0xD35 DUP2 PUSH2 0xD0F JUMP JUMPDEST SWAP3 SWAP2 POP POP JUMP JUMPDEST PUSH1 0x0 DUP1 PUSH1 0x40 DUP4 DUP6 SUB SLT ISZERO PUSH2 0xD52 JUMPI PUSH2 0xD51 PUSH2 0x8F8 JUMP JUMPDEST JUMPDEST PUSH1 0x0 DUP4 ADD CALLDATALOAD PUSH8 0xFFFFFFFFFFFFFFFF DUP2 GT ISZERO PUSH2 0xD70 JUMPI PUSH2 0xD6F PUSH2 0x8FD JUMP JUMPDEST JUMPDEST PUSH2 0xD7C DUP6 DUP3 DUP7 ADD PUSH2 0xA1A JUMP JUMPDEST SWAP3 POP POP PUSH1 0x20 PUSH2 0xD8D DUP6 DUP3 DUP7 ADD PUSH2 0xD26 JUMP JUMPDEST SWAP2 POP POP SWAP3 POP SWAP3 SWAP1 POP JUMP JUMPDEST PUSH1 0x0 DUP2 SWAP1 POP SWAP3 SWAP2 POP POP JUMP JUMPDEST PUSH1 0x0 PUSH2 0xDAD DUP3 PUSH2 0xB7C JUMP JUMPDEST PUSH2 0xDB7 DUP2 DUP6 PUSH2 0xD97 JUMP JUMPDEST SWAP4 POP PUSH2 0xDC7 DUP2 DUP6 PUSH1 0x20 DUP7 ADD PUSH2 0xB98 JUMP JUMPDEST DUP1 DUP5 ADD SWAP2 POP POP SWAP3 SWAP2 POP POP JUMP JUMPDEST PUSH1 0x0 PUSH2 0xDDF DUP3 DUP5 PUSH2 0xDA2 JUMP JUMPDEST SWAP2 POP DUP2 SWAP1 POP SWAP3 SWAP2 POP POP JUMP JUMPDEST PUSH32 0x536869706D656E74206E6F7420666F756E640000000000000000000000000000 PUSH1 0x0 DUP3 ADD MSTORE POP JUMP JUMPDEST PUSH1 0x0 PUSH2 0xE20 PUSH1 0x12 DUP4 PUSH2 0xB87 JUMP JUMPDEST SWAP2 POP PUSH2 0xE2B DUP3 PUSH2 0xDEA JUMP JUMPDEST PUSH1 0x20 DUP3 ADD SWAP1 POP SWAP2 SWAP1 POP JUMP JUMPDEST PUSH1 0x0 PUSH1 0x20 DUP3 ADD SWAP1 POP DUP2 DUP2 SUB PUSH1 0x0 DUP4 ADD MSTORE PUSH2 0xE4F DUP2 PUSH2 0xE13 JUMP JUMPDEST SWAP1 POP SWAP2 SWAP1 POP JUMP JUMPDEST PUSH32 0x4E6F7420617574686F72697A6564000000000000000000000000000000000000 PUSH1 0x0 DUP3 ADD MSTORE POP JUMP JUMPDEST PUSH1 0x0 PUSH2 0xE8C PUSH1 0xE DUP4 PUSH2 0xB87 JUMP JUMPDEST SWAP2 POP PUSH2 0xE97 DUP3 PUSH2 0xE56 JUMP JUMPDEST PUSH1 0x20 DUP3 ADD SWAP1 POP SWAP2 SWAP1 POP JUMP JUMPDEST PUSH1 0x0 PUSH1 0x20 DUP3 ADD SWAP1 POP DUP2 DUP2 SUB PUSH1 0x0 DUP4 ADD MSTORE PUSH2 0xEBB DUP2 PUSH2 0xE7F JUMP JUMPDEST SWAP1 POP SWAP2 SWAP1 POP JUMP JUMPDEST PUSH32 0x536869706D656E74206E6F742061637469766500000000000000000000000000 PUSH1 0x0 DUP3 ADD MSTORE POP JUMP JUMPDEST PUSH1 0x0 PUSH2 0xEF8 PUSH1 0x13 DUP4 PUSH2 0xB87 JUMP JUMPDEST SWAP2 POP PUSH2 0xF03 DUP3 PUSH2 0xEC2 JUMP JUMPDEST PUSH1 0x20 DUP3 ADD SWAP1 POP SWAP2 SWAP1 POP JUMP JUMPDEST PUSH1 0x0 PUSH1 0x20 DUP3 ADD SWAP1 POP DUP2 DUP2 SUB PUSH1 0x0 DUP4 ADD MSTORE PUSH2 0xF27 DUP2 PUSH2 0xEEB JUMP JUMPDEST SWAP1 POP SWAP2 SWAP1 POP JUMP JUMPDEST PUSH32 0x4E487B7100000000000000000000000000000000000000000000000000000000 PUSH1 0x0 MSTORE PUSH1 0x22 PUSH1 0x4 MSTORE PUSH1 0x24 PUSH1 0x0 REVERT JUMPDEST PUSH1 0x0 PUSH1 0x2 DUP3 DIV SWAP1 POP PUSH1 0x1 DUP3 AND DUP1 PUSH2 0xF75 JUMPI PUSH1 0x7F DUP3 AND SWAP2 POP JUMPDEST PUSH1 0x20 DUP3 LT DUP2 SUB PUSH2 0xF88 JUMPI PUSH2 0xF87 PUSH2 0xF2E JUMP JUMPDEST JUMPDEST POP SWAP2 SWAP1 POP JUMP JUMPDEST PUSH32 0x4F6E6C79206F776E65722063616E20706572666F726D20746869732061637469 PUSH1 0x0 DUP3 ADD MSTORE PUSH32 0x6F6E000000000000000000000000000000000000000000000000000000000000 PUSH1 0x20 DUP3 ADD MSTORE POP JUMP JUMPDEST PUSH1 0x0 PUSH2 0xFEA PUSH1 0x22 DUP4 PUSH2 0xB87 JUMP JUMPDEST SWAP2 POP PUSH2 0xFF5 DUP3 PUSH2 0xF8E JUMP JUMPDEST PUSH1 0x40 DUP3 ADD SWAP1 POP SWAP2 SWAP1 POP JUMP JUMPDEST PUSH1 0x0 PUSH1 0x20 DUP3 ADD SWAP1 POP DUP2 DUP2 SUB PUSH1 0x0 DUP4 ADD MSTORE PUSH2 0x1019 DUP2 PUSH2 0xFDD JUMP JUMPDEST SWAP1 POP SWAP2 SWAP1 POP JUMP JUMPDEST PUSH32 0x536869706D656E7420616C726561647920657869737473000000000000000000 PUSH1 0x0 DUP3 ADD MSTORE POP JUMP JUMPDEST PUSH1 0x0 PUSH2 0x1056 PUSH1 0x17 DUP4 PUSH2 0xB87 JUMP JUMPDEST SWAP2 POP PUSH2 0x1061 DUP3 PUSH2 0x1020 JUMP JUMPDEST PUSH1 0x20 DUP3 ADD SWAP1 POP SWAP2 SWAP1 POP JUMP JUMPDEST PUSH1 0x0 PUSH1 0x20 DUP3 ADD SWAP1 POP DUP2 DUP2 SUB PUSH1 0x0 DUP4 ADD MSTORE PUSH2 0x1085 DUP2 PUSH2 0x1049 JUMP JUMPDEST SWAP1 POP SWAP2 SWAP1 POP JUMP JUMPDEST PUSH1 0x0 DUP2 SWAP1 POP DUP2 PUSH1 0x0 MSTORE PUSH1 0x20 PUSH1 0x0 KECCAK256 SWAP1 POP SWAP2 SWAP1 POP JUMP JUMPDEST PUSH1 0x0 PUSH1 0x20 PUSH1 0x1F DUP4 ADD DIV SWAP1 POP SWAP2 SWAP1 POP JUMP JUMPDEST PUSH1 0x0 DUP3 DUP3 SHL SWAP1 POP SWAP3 SWAP2 POP POP JUMP JUMPDEST PUSH1 0x0 PUSH1 0x8 DUP4 MUL PUSH2 0x10EE PUSH32 0xFFFFFFFFFFFFFFFFFFFFFFFFFFFFFFFFFFFFFFFFFFFFFFFFFFFFFFFFFFFFFFFF DUP3 PUSH2 0x10B1 JUMP JUMPDEST PUSH2 0x10F8 DUP7 DUP4 PUSH2 0x10B1 JUMP JUMPDEST SWAP6 POP DUP1 NOT DUP5 AND SWAP4 POP DUP1 DUP7 AND DUP5 OR SWAP3 POP POP POP SWAP4 SWAP3 POP POP POP JUMP JUMPDEST PUSH1 0x0 DUP2 SWAP1 POP SWAP2 SWAP1 POP JUMP JUMPDEST PUSH1 0x0 PUSH2 0x1135 PUSH2 0x1130 PUSH2 0x112B DUP5 PUSH2 0xA91 JUMP JUMPDEST PUSH2 0x1110 JUMP JUMPDEST PUSH2 0xA91 JUMP JUMPDEST SWAP1 POP SWAP2 SWAP1 POP JUMP JUMPDEST PUSH1 0x0 DUP2 SWAP1 POP SWAP2 SWAP1 POP JUMP JUMPDEST PUSH2 0x114F DUP4 PUSH2 0x111A JUMP JUMPDEST PUSH2 0x1163 PUSH2 0x115B DUP3 PUSH2 0x113C JUMP JUMPDEST DUP5 DUP5 SLOAD PUSH2 0x10BE JUMP JUMPDEST DUP3 SSTORE POP POP POP POP JUMP JUMPDEST PUSH1 0x0 SWAP1 JUMP JUMPDEST PUSH2 0x1178 PUSH2 0x116B JUMP JUMPDEST PUSH2 0x1183 DUP2 DUP5 DUP5 PUSH2 0x1146 JUMP JUMPDEST POP POP POP JUMP JUMPDEST JUMPDEST DUP2 DUP2 LT ISZERO PUSH2 0x11A7 JUMPI PUSH2 0x119C PUSH1 0x0 DUP3 PUSH2 0x1170 JUMP JUMPDEST PUSH1 0x1 DUP2 ADD SWAP1 POP PUSH2 0x1189 JUMP JUMPDEST POP POP JUMP JUMPDEST PUSH1 0x1F DUP3 GT ISZERO PUSH2 0x11EC JUMPI PUSH2 0x11BD DUP2 PUSH2 0x108C JUMP JUMPDEST PUSH2 0x11C6 DUP5 PUSH2 0x10A1 JUMP JUMPDEST DUP2 ADD PUSH1 0x20 DUP6 LT ISZERO PUSH2 0x11D5 JUMPI DUP2 SWAP1 POP JUMPDEST PUSH2 0x11E9 PUSH2 0x11E1 DUP6 PUSH2 0x10A1 JUMP JUMPDEST DUP4 ADD DUP3 PUSH2 0x1188 JUMP JUMPDEST POP POP JUMPDEST POP POP POP JUMP JUMPDEST PUSH1 0x0 DUP3 DUP3 SHR SWAP1 POP SWAP3 SWAP2 POP POP JUMP JUMPDEST PUSH1 0x0 PUSH2 0x120F PUSH1 0x0 NOT DUP5 PUSH1 0x8 MUL PUSH2 0x11F1 JUMP JUMPDEST NOT DUP1 DUP4 AND SWAP2 POP POP SWAP3 SWAP2 POP POP JUMP JUMPDEST PUSH1 0x0 PUSH2 0x1228 DUP4 DUP4 PUSH2 0x11FE JUMP JUMPDEST SWAP2 POP DUP3 PUSH1 0x2 MUL DUP3 OR SWAP1 POP SWAP3 SWAP2 POP POP JUMP JUMPDEST PUSH2 0x1241 DUP3 PUSH2 0xB7C JUMP JUMPDEST PUSH8 0xFFFFFFFFFFFFFFFF DUP2 GT ISZERO PUSH2 0x125A JUMPI PUSH2 0x1259 PUSH2 0x91D JUMP JUMPDEST JUMPDEST PUSH2 0x1264 DUP3 SLOAD PUSH2 0xF5D JUMP JUMPDEST PUSH2 0x126F DUP3 DUP3 DUP6 PUSH2 0x11AB JUMP JUMPDEST PUSH1 0x0 PUSH1 0x20 SWAP1 POP PUSH1 0x1F DUP4 GT PUSH1 0x1 DUP2 EQ PUSH2 0x12A2 JUMPI PUSH1 0x0 DUP5 ISZERO PUSH2 0x1290 JUMPI DUP3 DUP8 ADD MLOAD SWAP1 POP JUMPDEST PUSH2 0x129A DUP6 DUP3 PUSH2 0x121C JUMP JUMPDEST DUP7 SSTORE POP PUSH2 0x1302 JUMP JUMPDEST PUSH1 0x1F NOT DUP5 AND PUSH2 0x12B0 DUP7 PUSH2 0x108C JUMP JUMPDEST PUSH1 0x0 JUMPDEST DUP3 DUP2 LT ISZERO PUSH2 0x12D8 JUMPI DUP5 DUP10 ADD MLOAD DUP3 SSTORE PUSH1 0x1 DUP3 ADD SWAP2 POP PUSH1 0x20 DUP6 ADD SWAP5 POP PUSH1 0x20 DUP2 ADD SWAP1 POP PUSH2 0x12B3 JUMP JUMPDEST DUP7 DUP4 LT ISZERO PUSH2 0x12F5 JUMPI DUP5 DUP10 ADD MLOAD PUSH2 0x12F1 PUSH1 0x1F DUP10 AND DUP3 PUSH2 0x11FE JUMP JUMPDEST DUP4 SSTORE POP JUMPDEST PUSH1 0x1 PUSH1 0x2 DUP9 MUL ADD DUP9 SSTORE POP POP POP JUMPDEST POP POP POP POP POP POP JUMP INVALID LOG2 PUSH5 0x6970667358 0x22 SLT KECCAK256 0xDC GAS TIMESTAMP SWAP13 0x4D 0x5C PUSH10 0x2F26DBDFE804EC740BC DUP1 PUSH7 0x556086A11ECDEA 0xAA 0xDD 0xCD 0xA6 SUB 0xF7 PUSH5 0x736F6C6343 STOP ADDMOD EQ STOP CALLER "},"methodIdentifiers":{"createShipment(string,address)":"94b4a219","deactivateShipment(string)":"e611c3d5","getShipmentLocation(string)":"4061605d","owner()":"8da5cb5b","shipments(string)":"5ceaef5b","updateLocation(string,uint256,uint256)":"4c6be01c"}}}}}