{
  "_format": "hh-sol-artifact-1",
  "contractName": "Shipment",
  "sourceName": "contracts/Shipment.sol",
  "abi": [
    {
      "inputs": [],
      "stateMutability": "nonpayable",
      "type": "constructor"
    },
    {
      "anonymous": false,
      "inputs": [
        {
          "indexed": true,
          "internalType": "uint256",
          "name": "shipmentId",
          "type": "uint256"
        },
        {
          "indexed": true,
          "internalType": "address",
          "name": "customer",
          "type": "address"
        },
        {
          "indexed": false,
          "internalType": "uint256",
          "name": "amount",
          "type": "uint256"
        }
      ],
      "name": "ShipmentCreated",
      "type": "event"
    },
    {
      "inputs": [
        {
          "internalType": "string",
          "name": "vehicleType",
          "type": "string"
        },
        {
          "internalType": "string",
          "name": "capacity",
          "type": "string"
        },
        {
          "internalType": "uint256",
          "name": "price",
          "type": "uint256"
        }
      ],
      "name": "addVehicle",
      "outputs": [],
      "stateMutability": "nonpayable",
      "type": "function"
    },
    {
      "inputs": [
        {
          "internalType": "uint256",
          "name": "shipmentId",
          "type": "uint256"
        }
      ],
      "name": "completeShipment",
      "outputs": [],
      "stateMutability": "nonpayable",
      "type": "function"
    },
    {
      "inputs": [
        {
          "internalType": "string",
          "name": "source",
          "type": "string"
        },
        {
          "internalType": "string",
          "name": "destination",
          "type": "string"
        },
        {
          "internalType": "uint256",
          "name": "vehicleId",
          "type": "uint256"
        },
        {
          "internalType": "string",
          "name": "shipmentType",
          "type": "string"
        }
      ],
      "name": "createShipment",
      "outputs": [],
      "stateMutability": "payable",
      "type": "function"
    },
    {
      "inputs": [
        {
          "internalType": "string",
          "name": "source",
          "type": "string"
        },
        {
          "internalType": "string",
          "name": "destination",
          "type": "string"
        }
      ],
      "name": "getAvailableVehicles",
      "outputs": [
        {
          "components": [
            {
              "internalType": "uint256",
              "name": "id",
              "type": "uint256"
            },
            {
              "internalType": "string",
              "name": "vehicleType",
              "type": "string"
            },
            {
              "internalType": "string",
              "name": "capacity",
              "type": "string"
            },
            {
              "internalType": "uint256",
              "name": "price",
              "type": "uint256"
            },
            {
              "internalType": "bool",
              "name": "isAvailable",
              "type": "bool"
            }
          ],
          "internalType": "struct Shipment.Vehicle[]",
          "name": "",
          "type": "tuple[]"
        }
      ],
      "stateMutability": "view",
      "type": "function"
    },
    {
      "inputs": [
        {
          "internalType": "uint256",
          "name": "shipmentId",
          "type": "uint256"
        }
      ],
      "name": "getShipmentDetails",
      "outputs": [
        {
          "components": [
            {
              "internalType": "string",
              "name": "source",
              "type": "string"
            },
            {
              "internalType": "string",
              "name": "destination",
              "type": "string"
            },
            {
              "internalType": "uint256",
              "name": "vehicleId",
              "type": "uint256"
            },
            {
              "internalType": "string",
              "name": "shipmentType",
              "type": "string"
            },
            {
              "internalType": "address",
              "name": "customer",
              "type": "address"
            },
            {
              "internalType": "uint256",
              "name": "amount",
              "type": "uint256"
            },
            {
              "internalType": "uint256",
              "name": "timestamp",
              "type": "uint256"
            },
            {
              "internalType": "bool",
              "name": "isActive",
              "type": "bool"
            }
          ],
          "internalType": "struct Shipment.ShipmentDetails",
          "name": "",
          "type": "tuple"
        }
      ],
      "stateMutability": "view",
      "type": "function"
    },
    {
      "inputs": [],
      "name": "owner",
      "outputs": [
        {
          "internalType": "address",
          "name": "",
          "type": "address"
        }
      ],
      "stateMutability": "view",
      "type": "function"
    },
    {
      "inputs": [],
      "name": "shipmentCount",
      "outputs": [
        {
          "internalType": "uint256",
          "name": "",
          "type": "uint256"
        }
      ],
      "stateMutability": "view",
      "type": "function"
    },
    {
      "inputs": [
        {
          "internalType": "uint256",
          "name": "",
          "type": "uint256"
        }
      ],
      "name": "shipments",
      "outputs": [
        {
          "internalType": "string",
          "name": "source",
          "type": "string"
        },
        {
          "internalType": "string",
          "name": "destination",
          "type": "string"
        },
        {
          "internalType": "uint256",
          "name": "vehicleId",
          "type": "uint256"
        },
        {
          "internalType": "string",
          "name": "shipmentType",
          "type": "string"
        },
        {
          "internalType": "address",
          "name": "customer",
          "type": "address"
        },
        {
          "internalType": "uint256",
          "name": "amount",
          "type": "uint256"
        },
        {
          "internalType": "uint256",
          "name": "timestamp",
          "type": "uint256"
        },
        {
          "internalType": "bool",
          "name": "isActive",
          "type": "bool"
        }
      ],
      "stateMutability": "view",
      "type": "function"
    },
    {
      "inputs": [],
      "name": "vehicleCount",
      "outputs": [
        {
          "internalType": "uint256",
          "name": "",
          "type": "uint256"
        }
      ],
      "stateMutability": "view",
      "type": "function"
    },
    {
      "inputs": [
        {
          "internalType": "uint256",
          "name": "",
          "type": "uint256"
        }
      ],
      "name": "vehicles",
      "outputs": [
        {
          "internalType": "uint256",
          "name": "id",
          "type": "uint256"
        },
        {
          "internalType": "string",
          "name": "vehicleType",
          "type": "string"
        },
        {
          "internalType": "string",
          "name": "capacity",
          "type": "string"
        },
        {
          "internalType": "uint256",
          "name": "price",
          "type": "uint256"
        },
        {
          "internalType": "bool",
          "name": "isAvailable",
          "type": "bool"
        }
      ],
      "stateMutability": "view",
      "type": "function"
    }
  ],
  "bytecode": "0x60806040523480156200001157600080fd5b5033600460006101000a81548173ffffffffffffffffffffffffffffffffffffffff021916908373ffffffffffffffffffffffffffffffffffffffff160217905550620000d86040518060400160405280600581526020017f547275636b0000000000000000000000000000000000000000000000000000008152506040518060400160405280600681526020017f313030306b670000000000000000000000000000000000000000000000000000815250674563918244f40000620001e860201b60201c565b6200015d6040518060400160405280600381526020017f56616e00000000000000000000000000000000000000000000000000000000008152506040518060400160405280600581526020017f3530306b670000000000000000000000000000000000000000000000000000008152506729a2241af62c0000620001e860201b60201c565b620001e26040518060400160405280600a81526020017f4d696e6920547275636b000000000000000000000000000000000000000000008152506040518060400160405280600581526020017f3735306b67000000000000000000000000000000000000000000000000000000815250673782dace9d900000620001e860201b60201c565b620007c7565b600460009054906101000a900473ffffffffffffffffffffffffffffffffffffffff1673ffffffffffffffffffffffffffffffffffffffff163373ffffffffffffffffffffffffffffffffffffffff16146200027b576040517f08c379a00000000000000000000000000000000000000000000000000000000081526004016200027290620003c8565b60405180910390fd5b60026000815480929190620002909062000423565b91905055506040518060a001604052806002548152602001848152602001838152602001828152602001600115158152506000806002548152602001908152602001600020600082015181600001556020820151816001019081620002f69190620006e0565b5060408201518160020190816200030e9190620006e0565b506060820151816003015560808201518160040160006101000a81548160ff021916908315150217905550905050505050565b600082825260208201905092915050565b7f4f6e6c79206f776e65722063616e20706572666f726d2074686973206163746960008201527f6f6e000000000000000000000000000000000000000000000000000000000000602082015250565b6000620003b060228362000341565b9150620003bd8262000352565b604082019050919050565b60006020820190508181036000830152620003e381620003a1565b9050919050565b7f4e487b7100000000000000000000000000000000000000000000000000000000600052601160045260246000fd5b6000819050919050565b6000620004308262000419565b91507fffffffffffffffffffffffffffffffffffffffffffffffffffffffffffffffff8203620004655762000464620003ea565b5b600182019050919050565b600081519050919050565b7f4e487b7100000000000000000000000000000000000000000000000000000000600052604160045260246000fd5b7f4e487b7100000000000000000000000000000000000000000000000000000000600052602260045260246000fd5b60006002820490506001821680620004f257607f821691505b602082108103620005085762000507620004aa565b5b50919050565b60008190508160005260206000209050919050565b60006020601f8301049050919050565b600082821b905092915050565b600060088302620005727fffffffffffffffffffffffffffffffffffffffffffffffffffffffffffffffff8262000533565b6200057e868362000533565b95508019841693508086168417925050509392505050565b6000819050919050565b6000620005c1620005bb620005b58462000419565b62000596565b62000419565b9050919050565b6000819050919050565b620005dd83620005a0565b620005f5620005ec82620005c8565b84845462000540565b825550505050565b600090565b6200060c620005fd565b62000619818484620005d2565b505050565b5b8181101562000641576200063560008262000602565b6001810190506200061f565b5050565b601f82111562000690576200065a816200050e565b620006658462000523565b8101602085101562000675578190505b6200068d620006848562000523565b8301826200061e565b50505b505050565b600082821c905092915050565b6000620006b56000198460080262000695565b1980831691505092915050565b6000620006d08383620006a2565b9150826002028217905092915050565b620006eb8262000470565b67ffffffffffffffff8111156200070757620007066200047b565b5b620007138254620004d9565b6200072082828562000645565b600060209050601f83116001811462000758576000841562000743578287015190505b6200074f8582620006c2565b865550620007bf565b601f19841662000768866200050e565b60005b8281101562000792578489015182556001820191506020850194506020810190506200076b565b86831015620007b25784890151620007ae601f891682620006a2565b8355505b6001600288020188555050505b505050505050565b611f8c80620007d76000396000f3fe6080604052600436106100915760003560e01c8063997049371161005957806399704937146101a8578063aace20b7146101d3578063b8ba95fa146101fe578063bcfaed461461023f578063f15456b51461025b57610091565b80630651ada7146100965780632ac08a93146100bf578063356f1a4114610103578063693d70aa146101405780638da5cb5b1461017d575b600080fd5b3480156100a257600080fd5b506100bd60048036038101906100b891906112d9565b610284565b005b3480156100cb57600080fd5b506100e660048036038101906100e19190611364565b6103d4565b6040516100fa98979695949392919061147b565b60405180910390f35b34801561010f57600080fd5b5061012a6004803603810190610125919061150e565b6105e1565b604051610137919061172d565b60405180910390f35b34801561014c57600080fd5b5061016760048036038101906101629190611364565b61088d565b604051610174919061181c565b60405180910390f35b34801561018957600080fd5b50610192610b45565b60405161019f919061183e565b60405180910390f35b3480156101b457600080fd5b506101bd610b6b565b6040516101ca9190611859565b60405180910390f35b3480156101df57600080fd5b506101e8610b71565b6040516101f59190611859565b60405180910390f35b34801561020a57600080fd5b5061022560048036038101906102209190611364565b610b77565b604051610236959493929190611874565b60405180910390f35b610259600480360381019061025491906118d5565b610cca565b005b34801561026757600080fd5b50610282600480360381019061027d9190611364565b610f52565b005b600460009054906101000a900473ffffffffffffffffffffffffffffffffffffffff1673ffffffffffffffffffffffffffffffffffffffff163373ffffffffffffffffffffffffffffffffffffffff1614610314576040517f08c379a000000000000000000000000000000000000000000000000000000000815260040161030b90611a02565b60405180910390fd5b6002600081548092919061032790611a51565b91905055506040518060a00160405280600254815260200184815260200183815260200182815260200160011515815250600080600254815260200190815260200160002060008201518160000155602082015181600101908161038b9190611ca5565b5060408201518160020190816103a19190611ca5565b506060820151816003015560808201518160040160006101000a81548160ff021916908315150217905550905050505050565b60016020528060005260406000206000915090508060000180546103f790611ac8565b80601f016020809104026020016040519081016040528092919081815260200182805461042390611ac8565b80156104705780601f1061044557610100808354040283529160200191610470565b820191906000526020600020905b81548152906001019060200180831161045357829003601f168201915b50505050509080600101805461048590611ac8565b80601f01602080910402602001604051908101604052809291908181526020018280546104b190611ac8565b80156104fe5780601f106104d3576101008083540402835291602001916104fe565b820191906000526020600020905b8154815290600101906020018083116104e157829003601f168201915b50505050509080600201549080600301805461051990611ac8565b80601f016020809104026020016040519081016040528092919081815260200182805461054590611ac8565b80156105925780601f1061056757610100808354040283529160200191610592565b820191906000526020600020905b81548152906001019060200180831161057557829003601f168201915b5050505050908060040160009054906101000a900473ffffffffffffffffffffffffffffffffffffffff16908060050154908060060154908060070160009054906101000a900460ff16905088565b6060600080600190505b600254811161063e5760008082815260200190815260200160002060040160009054906101000a900460ff161561062b57818061062790611a51565b9250505b808061063690611a51565b9150506105eb565b5060008167ffffffffffffffff81111561065b5761065a611178565b5b60405190808252806020026020018201604052801561069457816020015b6106816110bb565b8152602001906001900390816106795790505b509050600080600190505b60025481116108805760008082815260200190815260200160002060040160009054906101000a900460ff161561086d576000808281526020019081526020016000206040518060a00160405290816000820154815260200160018201805461070790611ac8565b80601f016020809104026020016040519081016040528092919081815260200182805461073390611ac8565b80156107805780601f1061075557610100808354040283529160200191610780565b820191906000526020600020905b81548152906001019060200180831161076357829003601f168201915b5050505050815260200160028201805461079990611ac8565b80601f01602080910402602001604051908101604052809291908181526020018280546107c590611ac8565b80156108125780601f106107e757610100808354040283529160200191610812565b820191906000526020600020905b8154815290600101906020018083116107f557829003601f168201915b50505050508152602001600382015481526020016004820160009054906101000a900460ff16151515158152505083838151811061085357610852611d77565b5b6020026020010181905250818061086990611a51565b9250505b808061087890611a51565b91505061069f565b5081935050505092915050565b6108956110ec565b6003548211156108da576040517f08c379a00000000000000000000000000000000000000000000000000000000081526004016108d190611df2565b60405180910390fd5b600160008381526020019081526020016000206040518061010001604052908160008201805461090990611ac8565b80601f016020809104026020016040519081016040528092919081815260200182805461093590611ac8565b80156109825780601f1061095757610100808354040283529160200191610982565b820191906000526020600020905b81548152906001019060200180831161096557829003601f168201915b5050505050815260200160018201805461099b90611ac8565b80601f01602080910402602001604051908101604052809291908181526020018280546109c790611ac8565b8015610a145780601f106109e957610100808354040283529160200191610a14565b820191906000526020600020905b8154815290600101906020018083116109f757829003601f168201915b5050505050815260200160028201548152602001600382018054610a3790611ac8565b80601f0160208091040260200160405190810160405280929190818152602001828054610a6390611ac8565b8015610ab05780601f10610a8557610100808354040283529160200191610ab0565b820191906000526020600020905b815481529060010190602001808311610a9357829003601f168201915b505050505081526020016004820160009054906101000a900473ffffffffffffffffffffffffffffffffffffffff1673ffffffffffffffffffffffffffffffffffffffff1673ffffffffffffffffffffffffffffffffffffffff16815260200160058201548152602001600682015481526020016007820160009054906101000a900460ff1615151515815250509050919050565b600460009054906101000a900473ffffffffffffffffffffffffffffffffffffffff1681565b60025481565b60035481565b6000602052806000526040600020600091509050806000015490806001018054610ba090611ac8565b80601f0160208091040260200160405190810160405280929190818152602001828054610bcc90611ac8565b8015610c195780601f10610bee57610100808354040283529160200191610c19565b820191906000526020600020905b815481529060010190602001808311610bfc57829003601f168201915b505050505090806002018054610c2e90611ac8565b80601f0160208091040260200160405190810160405280929190818152602001828054610c5a90611ac8565b8015610ca75780601f10610c7c57610100808354040283529160200191610ca7565b820191906000526020600020905b815481529060010190602001808311610c8a57829003601f168201915b5050505050908060030154908060040160009054906101000a900460ff16905085565b60008083815260200190815260200160002060040160009054906101000a900460ff16610d2c576040517f08c379a0000000000000000000000000000000000000000000000000000000008152600401610d2390611e5e565b60405180910390fd5b600080838152602001908152602001600020600301543414610d83576040517f08c379a0000000000000000000000000000000000000000000000000000000008152600401610d7a90611eca565b60405180910390fd5b60036000815480929190610d9690611a51565b91905055506040518061010001604052808581526020018481526020018381526020018281526020013373ffffffffffffffffffffffffffffffffffffffff168152602001348152602001428152602001600115158152506001600060035481526020019081526020016000206000820151816000019081610e189190611ca5565b506020820151816001019081610e2e9190611ca5565b50604082015181600201556060820151816003019081610e4e9190611ca5565b5060808201518160040160006101000a81548173ffffffffffffffffffffffffffffffffffffffff021916908373ffffffffffffffffffffffffffffffffffffffff16021790555060a0820151816005015560c0820151816006015560e08201518160070160006101000a81548160ff021916908315150217905550905050600080600084815260200190815260200160002060040160006101000a81548160ff0219169083151502179055503373ffffffffffffffffffffffffffffffffffffffff166003547fedf892d41ca950980cd2f16b337b699f8ef55ad673f3c2810af49b6a1c20004d34604051610f449190611859565b60405180910390a350505050565b600460009054906101000a900473ffffffffffffffffffffffffffffffffffffffff1673ffffffffffffffffffffffffffffffffffffffff163373ffffffffffffffffffffffffffffffffffffffff1614610fe2576040517f08c379a0000000000000000000000000000000000000000000000000000000008152600401610fd990611a02565b60405180910390fd5b6001600082815260200190815260200160002060070160009054906101000a900460ff16611045576040517f08c379a000000000000000000000000000000000000000000000000000000000815260040161103c90611f36565b60405180910390fd5b60006001600083815260200190815260200160002060070160006101000a81548160ff02191690831515021790555060016000806001600085815260200190815260200160002060020154815260200190815260200160002060040160006101000a81548160ff02191690831515021790555050565b6040518060a00160405280600081526020016060815260200160608152602001600081526020016000151581525090565b60405180610100016040528060608152602001606081526020016000815260200160608152602001600073ffffffffffffffffffffffffffffffffffffffff16815260200160008152602001600081526020016000151581525090565b6000604051905090565b600080fd5b600080fd5b600080fd5b600080fd5b6000601f19601f8301169050919050565b7f4e487b7100000000000000000000000000000000000000000000000000000000600052604160045260246000fd5b6111b082611167565b810181811067ffffffffffffffff821117156111cf576111ce611178565b5b80604052505050565b60006111e2611149565b90506111ee82826111a7565b919050565b600067ffffffffffffffff82111561120e5761120d611178565b5b61121782611167565b9050602081019050919050565b82818337600083830152505050565b6000611246611241846111f3565b6111d8565b90508281526020810184848401111561126257611261611162565b5b61126d848285611224565b509392505050565b600082601f83011261128a5761128961115d565b5b813561129a848260208601611233565b91505092915050565b6000819050919050565b6112b6816112a3565b81146112c157600080fd5b50565b6000813590506112d3816112ad565b92915050565b6000806000606084860312156112f2576112f1611153565b5b600084013567ffffffffffffffff8111156113105761130f611158565b5b61131c86828701611275565b935050602084013567ffffffffffffffff81111561133d5761133c611158565b5b61134986828701611275565b925050604061135a868287016112c4565b9150509250925092565b60006020828403121561137a57611379611153565b5b6000611388848285016112c4565b91505092915050565b600081519050919050565b600082825260208201905092915050565b60005b838110156113cb5780820151818401526020810190506113b0565b60008484015250505050565b60006113e282611391565b6113ec818561139c565b93506113fc8185602086016113ad565b61140581611167565b840191505092915050565b611419816112a3565b82525050565b600073ffffffffffffffffffffffffffffffffffffffff82169050919050565b600061144a8261141f565b9050919050565b61145a8161143f565b82525050565b60008115159050919050565b61147581611460565b82525050565b6000610100820190508181036000830152611496818b6113d7565b905081810360208301526114aa818a6113d7565b90506114b96040830189611410565b81810360608301526114cb81886113d7565b90506114da6080830187611451565b6114e760a0830186611410565b6114f460c0830185611410565b61150160e083018461146c565b9998505050505050505050565b6000806040838503121561152557611524611153565b5b600083013567ffffffffffffffff81111561154357611542611158565b5b61154f85828601611275565b925050602083013567ffffffffffffffff8111156115705761156f611158565b5b61157c85828601611275565b9150509250929050565b600081519050919050565b600082825260208201905092915050565b6000819050602082019050919050565b6115bb816112a3565b82525050565b600082825260208201905092915050565b60006115dd82611391565b6115e781856115c1565b93506115f78185602086016113ad565b61160081611167565b840191505092915050565b61161481611460565b82525050565b600060a08301600083015161163260008601826115b2565b506020830151848203602086015261164a82826115d2565b9150506040830151848203604086015261166482826115d2565b915050606083015161167960608601826115b2565b50608083015161168c608086018261160b565b508091505092915050565b60006116a3838361161a565b905092915050565b6000602082019050919050565b60006116c382611586565b6116cd8185611591565b9350836020820285016116df856115a2565b8060005b8581101561171b57848403895281516116fc8582611697565b9450611707836116ab565b925060208a019950506001810190506116e3565b50829750879550505050505092915050565b6000602082019050818103600083015261174781846116b8565b905092915050565b6117588161143f565b82525050565b600061010083016000830151848203600086015261177c82826115d2565b9150506020830151848203602086015261179682826115d2565b91505060408301516117ab60408601826115b2565b50606083015184820360608601526117c382826115d2565b91505060808301516117d8608086018261174f565b5060a08301516117eb60a08601826115b2565b5060c08301516117fe60c08601826115b2565b5060e083015161181160e086018261160b565b508091505092915050565b60006020820190508181036000830152611836818461175e565b905092915050565b60006020820190506118536000830184611451565b92915050565b600060208201905061186e6000830184611410565b92915050565b600060a0820190506118896000830188611410565b818103602083015261189b81876113d7565b905081810360408301526118af81866113d7565b90506118be6060830185611410565b6118cb608083018461146c565b9695505050505050565b600080600080608085870312156118ef576118ee611153565b5b600085013567ffffffffffffffff81111561190d5761190c611158565b5b61191987828801611275565b945050602085013567ffffffffffffffff81111561193a57611939611158565b5b61194687828801611275565b9350506040611957878288016112c4565b925050606085013567ffffffffffffffff81111561197857611977611158565b5b61198487828801611275565b91505092959194509250565b7f4f6e6c79206f776e65722063616e20706572666f726d2074686973206163746960008201527f6f6e000000000000000000000000000000000000000000000000000000000000602082015250565b60006119ec60228361139c565b91506119f782611990565b604082019050919050565b60006020820190508181036000830152611a1b816119df565b9050919050565b7f4e487b7100000000000000000000000000000000000000000000000000000000600052601160045260246000fd5b6000611a5c826112a3565b91507fffffffffffffffffffffffffffffffffffffffffffffffffffffffffffffffff8203611a8e57611a8d611a22565b5b600182019050919050565b7f4e487b7100000000000000000000000000000000000000000000000000000000600052602260045260246000fd5b60006002820490506001821680611ae057607f821691505b602082108103611af357611af2611a99565b5b50919050565b60008190508160005260206000209050919050565b60006020601f8301049050919050565b600082821b905092915050565b600060088302611b5b7fffffffffffffffffffffffffffffffffffffffffffffffffffffffffffffffff82611b1e565b611b658683611b1e565b95508019841693508086168417925050509392505050565b6000819050919050565b6000611ba2611b9d611b98846112a3565b611b7d565b6112a3565b9050919050565b6000819050919050565b611bbc83611b87565b611bd0611bc882611ba9565b848454611b2b565b825550505050565b600090565b611be5611bd8565b611bf0818484611bb3565b505050565b5b81811015611c1457611c09600082611bdd565b600181019050611bf6565b5050565b601f821115611c5957611c2a81611af9565b611c3384611b0e565b81016020851015611c42578190505b611c56611c4e85611b0e565b830182611bf5565b50505b505050565b600082821c905092915050565b6000611c7c60001984600802611c5e565b1980831691505092915050565b6000611c958383611c6b565b9150826002028217905092915050565b611cae82611391565b67ffffffffffffffff811115611cc757611cc6611178565b5b611cd18254611ac8565b611cdc828285611c18565b600060209050601f831160018114611d0f5760008415611cfd578287015190505b611d078582611c89565b865550611d6f565b601f198416611d1d86611af9565b60005b82811015611d4557848901518255600182019150602085019450602081019050611d20565b86831015611d625784890151611d5e601f891682611c6b565b8355505b6001600288020188555050505b505050505050565b7f4e487b7100000000000000000000000000000000000000000000000000000000600052603260045260246000fd5b7f496e76616c696420736869706d656e7420494400000000000000000000000000600082015250565b6000611ddc60138361139c565b9150611de782611da6565b602082019050919050565b60006020820190508181036000830152611e0b81611dcf565b9050919050565b7f56656869636c65206e6f7420617661696c61626c650000000000000000000000600082015250565b6000611e4860158361139c565b9150611e5382611e12565b602082019050919050565b60006020820190508181036000830152611e7781611e3b565b9050919050565b7f496e636f7272656374207061796d656e7420616d6f756e740000000000000000600082015250565b6000611eb460188361139c565b9150611ebf82611e7e565b602082019050919050565b60006020820190508181036000830152611ee381611ea7565b9050919050565b7f536869706d656e74206e6f742061637469766500000000000000000000000000600082015250565b6000611f2060138361139c565b9150611f2b82611eea565b602082019050919050565b60006020820190508181036000830152611f4f81611f13565b905091905056fea264697066735822122015db89d827d56fc3f4ccef8b3b78f9c4710e8f70feadd2e43af471ed523aa04464736f6c63430008140033",
  "linkReferences": {},
  "deployedLinkReferences": {}
}